:100000000C942A000C9434000C9434000C943400AA
:100010000C9434000C9434000C9434000C94340090
:100020000C9434000C9434000C9434000C94340080
:100030000C9434000C9434000C9434000C94340070
:100040000C9434000C9434000C9434000C94340060
:100050000C94340011241FBECFE5D8E0DEBFCDBF25
:100060000E9455010C9499010C9400008FEF8ABBFB
:1000700087BB84BB81BB1BBA18BA15BA12BA81E020
:1000800090E00895843080F4823051F0833051F054
:10009000813021F06ABB81E090E0089567BBFBCF1F
:1000A00064BBF9CF61BBF7CF83E090E00895843063
:1000B00080F4823051F0833051F0813021F06BBBFD
:1000C00081E090E0089568BBFBCF65BBF9CF62BBD0
:1000D000F7CF83E090E008958430C0F4823071F06F
:1000E000833081F0813031F08BB380958BBB81E020
:1000F00090E0089588B3809588BBF9CF85B380954B
:1001000085BBF5CF82B3809582BBF1CF83E090E0D1
:100110000895FB018430B8F43097C1F0823059F073
:10012000833059F0813029F089B3808381E090E0F9
:10013000089586B3FACF83B3F8CF80B3808382B3B8
:10014000809582BBF3CF83E090E0089582E090E059
:100150000895843060F5683050F5423040F521E074
:1001600030E0062E01C0220F0A94EAF7209501C064
:10017000440F6A95EAF7823081F0833099F081303C
:1001800039F08AB32823242B2ABB90E080E008951D
:1001900087B32823242B27BBF8CF84B32823242B11
:1001A00024BBF3CF81B32823242B21BBEECF83E0E4
:1001B00090E00895843060F5683050F5423040F5A5
:1001C00021E030E0062E01C0220F0A94EAF72095C4
:1001D00001C0440F6A95EAF7823081F0833099F0CC
:1001E000813039F08BB32823242B2BBB90E080E0A7
:1001F000089588B32823242B28BBF8CF85B3282360
:10020000242B25BBF3CF82B32823242B22BBEECF94
:1002100083E090E00895843000F56830F0F421E048
:1002200030E001C0220F6A95EAF7823071F0833026
:1002300081F0813031F08BB328272BBB90E080E038
:10024000089588B3282728BBF9CF85B3282725BB75
:10025000F5CF82B3282722BBF1CF83E090E0089549
:10026000FA018430E0F46830D0F43097D9F082306D
:1002700091F0833091F0813061F089B390E002C059
:10028000959587956A95E2F78170808390E080E08C
:10029000089586B3F3CF83B3F1CF80B3EFCF83E07C
:1002A00090E0089582E090E00895CF93DF931F924D
:1002B000CDB7DEB70E9436006FEF80E00E944200AB
:1002C0006FEF81E00E94420019826FEF80E00E9490
:1002D000570010E0BE016F5F7F4F80E00E948900F1
:1002E000698181E00E94570040E0612F80E00E9418
:1002F000DA002FEF84E39CE0215080409040E1F74A
:1003000000C00000BE016F5F7F4F80E00E94890047
:10031000698181E00E9457002FEF84E39CE0215027
:1003200080409040E1F700C000001F5F183091F658
:06033000D0CFF894FFCFCE
:00000001FF
