:100000000C942A000C947F060C94AE060C94DB062C
:100010000C9447000C9447000C9447000C94470044
:100020000C9447000C9447000C943B070C94470039
:100030000C9447000C9447000C9447000C94470024
:100040000C94E0030C9447000C9447000C94470078
:100050000C94470011241FBECFE5D8E0DEBFCDBF12
:1000600010E0A0E6B0E0E4E7FEE102C005900D92EA
:10007000AC3DB107D9F721E0ACEDB0E001C01D9275
:10008000AF30B207E1F70E948E0C0C94380F0C943D
:1000900000001092E7001092E8001092E900109220
:1000A000EA001092E3001092E4001092E500109232
:1000B000E6001092E2001092DE001092DF00109233
:1000C000E0001092E1001092DD001092DC00089533
:1000D000CF930E94D8080E9468070E94B6090E9428
:1000E000BC09C0E0EC2FF0E0EC53FF4F80818111A0
:1000F0000FC02FEF89E698E1215080409040E1F752
:1001000000C000000E94B60981E090E0CF91089500
:100110000E943909CF5FE6CF2F923F924F925F92B4
:100120006F927F928F929F92AF92BF92CF92DF9207
:10013000EF92FF920F931F93CF93DF931F92CDB750
:10014000DEB7B12CA12C1091DD001111A2C0CE019F
:1001500001960E94BB0789818F3FC9F38D3309F057
:100160004DC10E9439095C018091E2008B3209F493
:10017000C9C008F0A3C08A3209F4F8C0C090DE00FC
:10018000D090DF00E090E000F090E100C701B60100
:100190000E940E0E0E943D0E9B01AC01C701B601EC
:1001A0000E94280D20E030E04AE754E40E94CB0E84
:1001B0000E940E0E2B013C01C701B6010E94070EE2
:1001C0006B017C011FEC411451046104710429F19D
:1001D000812F0E94A809C301B2012AE030E040E06B
:1001E00050E00E94C70C022F932E842E352E80E300
:1001F000860F0E943909402E592C682C732C8FEFE2
:10020000810F411451046104710409F0D9C00E94A6
:10021000A8098EE20E94390912509AE0492E512C09
:10022000612C712CF7FEE4C0F094E094D094C0945B
:10023000C11CD11CE11CF11C8AE0282E312C412C60
:10024000512C812F0E94A809C701B601A20191017A
:100250000E94E90C722E832E942E052F80E3860FC8
:100260000E943909C72CD82CE92CF02E1150C1144A
:10027000D104E104F10429F7812F0E94A8098DE23D
:100280000E9439090E94BC090E94490081E08093C4
:10029000DC00C5010F90DF91CF911F910F91FF906E
:1002A000EF90DF90CF90BF90AF909F908F907F9016
:1002B0006F905F904F903F902F9008958D3209F48A
:1002C00040C08F3209F05ACFC090E300D090E400D4
:1002D000E090E500F090E600C114D104E104F104DF
:1002E00009F057C00E94B6090E94BC09E12FF0E056
:1002F000EB52FF4F8081882309F440CF0E943909D7
:100300001F5FF4CF6091E7007091E8008091E900F1
:100310009091EA000091E3001091E4002091E50043
:100320003091E600600F711F821F931F0E943F0EE5
:100330006093DE007093DF008093E0009093E10013
:100340001DCF6091E7007091E8008091E9009091E5
:10035000EA000091E3001091E4002091E500309163
:10036000E600601B710B820B930BE0CF2091E7003E
:100370003091E8004091E9005091EA006091E3007B
:100380007091E4008091E5009091E6000E94A30C3A
:10039000CDCF6091E7007091E8008091E9009091E5
:1003A000EA000E943F0E2B013C01C701B6010E94EA
:1003B0003F0E9B01AC01C301B2010E94950DB8CF65
:1003C000182F06CF812F0E94A809C701B601A301EB
:1003D00092010E94E90C322E832E942E052F80E389
:1003E000860F0E943909C32CD82CE92CF02E11500D
:1003F000C114D104E104F10429F744CF90ED980F22
:100400009A3008F062C08091DC00813021F40E94B3
:10041000B6091092DC008091E200811134C0809115
:10042000E7009091E800A091E900B091EA00892BE3
:100430008A2B8B2B11F40E94B6092091E700309192
:10044000E8004091E9005091EA00AAE0B0E00E9483
:100450000E0D29812053330B8901330F220B330BEF
:10046000DC01CB01800F911FA21FB31F8093E70017
:100470009093E800A093E900B093EA0089810E947C
:1004800039095C0160CE2091E3003091E400409195
:10049000E5005091E600AAE0B0E00E940E0D29812F
:1004A0002053330B8901330F220B330BDC01CB01BB
:1004B000800F911FA21FB31F8093E3009093E4006D
:1004C000A093E500B093E600D9CF833431F40E94C5
:1004D000B6095C010E94490036CE0E9439095C01D0
:1004E0008091DC00813021F40E94B6091092DC007A
:1004F0001092DD0089818093E20025CE8091EC008E
:100500009091ED0001969093ED008093EC0068E2ED
:1005100070E00E94B30C892B89F48091EB0081116B
:1005200023C00E949F0B81E00E94840B6091EE002B
:1005300081E00E949C0A81E08093EB008091EC00B6
:100540009091ED00803A9F4071F48091EE008F5FB2
:100550008093EE0080916000815080936000109243
:10056000ED001092EC00089581E00E949F0B80E066
:100570000E94840B6091600080E00E949C0A1092AF
:10058000EB00DCCF87B18F73806287B986B187605B
:1005900086B990E080E008959091EF00911127C016
:1005A00091E09093EF008830F8F497B1907E892B1A
:1005B00087B981E090E026B1206526B924B1229563
:1005C00026952695237030E0FB013183208345B1C9
:1005D000F4E04F9FA0011124242B352BFB01318324
:1005E00020831092EF00089583E090E0E4CF85E04F
:1005F00090E008959091EF0091111EC08830F8F4BA
:1006000041155105F9F091E09093EF007093F600D9
:100610006093F5005093FA004093F9003093F8008E
:100620002093F70097B1907E892B87B986B18864B3
:1006300086B981E090E0089585E090E0089583E038
:1006400090E0089582E090E00895FC018091EF0031
:10065000811127C081E08093EF008093F30082E056
:1006600090E04115510511F090E080E07081783004
:10067000D8F45093FA004093F9003093F800209397
:10068000F7006093F200F093F100E093F00027B1DF
:10069000207E27B93081232B27B926B1286426B9BB
:1006A000089590E080E0089583E090E00895369A00
:1006B00090E080E0089586B1982F92959F7009F49C
:1006C000FFCF806186B990E080E0089525B1FC01FC
:1006D000208390E080E0089524B122952695269508
:1006E000237030E0FC013183208345B1F4E04F9F5B
:1006F000A0011124242B352BFC013183208390E0B1
:1007000080E00895009759F09093FA008093F900E3
:100710007093F8006093F70090E080E0089582E025
:1007200090E00895379A90E080E00895379890E03F
:1007300080E00895339A90E080E00895339890E047
:1007400080E00895883038F497B1907E892B87B97E
:1007500081E090E0089583E090E00895359A883034
:1007600040F5E82FF0E0E854FC4F90B70C94080DEA
:10077000C003C503C803CB03CE03D103D403D703FF
:100780009F7190BF90E080E008959F739062F9CFD1
:100790009F759064F6CF9F779066F3CF9F799068AE
:1007A000F0CF9F7B906AEDCF9F7D906CEACF906EEB
:1007B000E8CF83E090E00895359890E080E00895D8
:1007C0001F920F920FB60F9211242F933F934F93C6
:1007D0005F936F937F938F939F93AF93BF93EF93A9
:1007E000FF938091F300813009F057C08091F400AD
:1007F0009091F2008917E0F52091F0003091F1001E
:1008000093E0F901899FE00DF11D11240180F2812F
:10081000E02D45B140838F5F8093F400899F200DC8
:10082000311D1124F9018081883088F487B1807EE0
:1008300087B92091F400E091F000F091F100299F38
:10084000E00DF11D11249081892B87B9369AFF9113
:10085000EF91BF91AF919F918F917F916F915F9138
:100860004F913F912F910F900FBE0F901F901895B1
:100870008913EDCFE091F900F091FA00309739F348
:100880008091F7009091F8000995349A1092EF004A
:100890001092F4001092F300DACFE091F900F09199
:1008A000FA003097A1F285B1A091F500B091F60061
:1008B0008C938091F7009091F8000995349A1092EA
:1008C000EF00C5CF8FEF8ABB9CEF97BB84BB81BB8A
:1008D0001BBA18BA15BA12BA81E090E008958430B4
:1008E00080F4823051F0833051F0813021F06ABBC6
:1008F00081E090E0089567BBFBCF64BBF9CF61BB9B
:10090000F7CF83E090E00895843080F4823051F096
:10091000833051F0813021F06BBB81E090E008958D
:1009200068BBFBCF65BBF9CF62BBF7CF83E090E03C
:1009300008958430C0F4823071F0833081F08130CA
:1009400031F08BB380958BBB81E090E0089588B344
:10095000809588BBF9CF85B3809585BBF5CF82B3F1
:10096000809582BBF1CF83E090E00895FB01843055
:10097000B8F43097C1F0823059F0833059F08130AB
:1009800029F089B3808381E090E0089586B3FACF9F
:1009900083B3F8CF80B3808382B3809582BBF3CFDB
:1009A00083E090E0089582E090E00895843060F55F
:1009B000683050F5423040F521E030E0062E01C0AD
:1009C000220F0A94EAF7209501C0440F6A95EAF7CE
:1009D000823081F0833099F0813039F08AB3282356
:1009E000242B2ABB90E080E0089587B32823242B92
:1009F00027BBF8CF84B32823242B24BBF3CF81B3A8
:100A00002823242B21BBEECF83E090E0089584308F
:100A100060F5683050F5423040F521E030E0062EB8
:100A200001C0220F0A94EAF7209501C0440F6A958D
:100A3000EAF7823081F0833099F0813039F08BB35E
:100A40002823242B2BBB90E080E0089588B3282333
:100A5000242B28BBF8CF85B32823242B25BBF3CF29
:100A600082B32823242B22BBEECF83E090E00895AD
:100A7000843000F56830F0F421E030E001C0220F4E
:100A80006A95EAF7823071F0833081F0813031F07D
:100A90008BB328272BBB90E080E0089588B32827EC
:100AA00028BBF9CF85B3282725BBF5CF82B32827EC
:100AB00022BBF1CF83E090E00895FA018430E0F4A6
:100AC0006830D0F43097D9F0823091F0833091F0D3
:100AD000813061F089B390E002C0959587956A9561
:100AE000E2F78170808390E080E0089586B3F3CFD1
:100AF00083B3F1CF80B3EFCF83E090E0089582E03D
:100B000090E00895009709F460C0FC0180E09081B6
:100B1000913081F49BB7813051F1823009F446C0A5
:100B200090649BBF9181913091F058F09230B1F078
:100B30009330D1F08F5F3296833049F790E080E0B8
:100B4000089595B7926095BF95B79E7F05C095B7FC
:100B5000916095BF95B7926095BFECCF95B79D7F9B
:100B600095BF95B79160F8CF95B79D7FECCF906812
:100B70009BBF9181913071F038F0923089F09330C1
:100B8000C9F695B7977F02C095B7986095BF95B79E
:100B90009B7FE2CF95B7946095BF95B79860DCCF07
:100BA00095B7977F95BF95B79460D6CF90629BBF5E
:100BB0009181992331F0913009F0BCCF94B79064C2
:100BC00002C094B79F7B94BFB5CF82E090E00895B8
:100BD000833080F4813041F0823049F08BB78064FB
:100BE0008BBF90E080E008958BB78068F9CF8BB71A
:100BF0008062F6CF83E090E00895833080F4813006
:100C000041F0823049F08BB78F7B8BBF90E080E062
:100C100008958BB78F77F9CF8BB78F7DF6CF83E0B1
:100C200090E00895643048F4843038F4813009F459
:100C300042C030F0823009F445C090E080E0089571
:100C400085B7623009F1633059F1613079F0826023
:100C500085BF85B78E7F85BF85B7886085BF85B71F
:100C60008B7F85BF84B78F7B84BFE7CF816085BFD3
:100C700085B7826085BF85B7846085BF85B788608A
:100C800085BF84B78064F0CF8D7F85BF85B78160D5
:100C900085BF85B7877F85BF85B7846085BFCDCF8A
:100CA0008D7F85BF85B78E7F85BF85B7877F85BFE1
:100CB00085B78B7FF3CF623061F36330B1F361307E
:100CC00059F6D9CF662371F26130D9F2B6CF8330AD
:100CD00098F46115710569F090E0880F991FFC0187
:100CE000EF5FFE4F7183608385509F4FFC015183FE
:100CF000408390E080E0089583E090E008951F92A3
:100D00000F920FB60F9211242F933F934F935F933F
:100D10006F937F938F939F93AF93BF93EF93FF93C3
:100D20008091FB009091FC00009739F0E091010167
:100D3000F0910201309709F00995FF91EF91BF9171
:100D4000AF919F918F917F916F915F914F913F9163
:100D50002F910F900FBE0F901F9018951F920F921A
:100D60000FB60F9211242F933F934F935F936F937E
:100D70007F938F939F93AF93BF93EF93FF93E091F4
:100D80000301F0910401309729F08091FD009091CA
:100D9000FE000995FF91EF91BF91AF919F918F91C7
:100DA0007F916F915F914F913F912F910F900FBE67
:100DB0000F901F9018951F920F920FB60F9211244B
:100DC0002F933F934F935F936F937F938F939F9353
:100DD000AF93BF93EF93FF93E0910501F09106016C
:100DE000309729F08091FF00909100010995FF91C3
:100DF000EF91BF91AF919F918F917F916F915F9193
:100E00004F913F912F910F900FBE0F901F9018950B
:100E10008FB780688FBF81E090E008958FB78F779C
:100E20008FBF81E090E0089583B78F7B83BF83B746
:100E3000877F83BF89B7826089BF8AEF8CBF83B702
:100E40008E7F83BF83B7826083BF83B78B7F83BF6F
:100E500090E080E00895009759F090930A01809304
:100E60000901709308016093070181E090E0089503
:100E700082E090E008951F920F920FB60F92112416
:100E80002F933F934F935F936F937F938F939F9392
:100E9000AF93BF93EF93FF93E0910901F0910A01A3
:100EA000309729F080910701909108010995FF91F1
:100EB000EF91BF91AF919F918F917F916F915F91D2
:100EC0004F913F912F910F900FBE0F901F9018954B
:100ED00040E064E083E00E94D60440E065E083E007
:100EE0000E94D60440E066E083E00E94D60440E021
:100EF00067E083E00E94D60441E060E083E00E9466
:100F0000D60441E061E083E00E94D60441E062E063
:100F100083E00E94D60441E063E083E00E94D604AF
:100F200041E064E083E00E94070541E065E083E082
:100F30000E94070541E066E083E00E94070541E06A
:100F400067E083E00E94070541E060E083E00E94E3
:100F5000070541E061E083E00E94070541E062E0AF
:100F600083E00E94070541E063E083E00E940705FB
:100F700090E080E008951F93CF93DF93EC018FEF13
:100F800080930E0110920D011FEFE0910D01E430EE
:100F900030F080910E01888390E080E041C0F0E065
:100FA000EA54FF4F40E0608183E00E940705109201
:100FB0000C01E0910C01E43080F0E0910D01F0E0D3
:100FC000EA54FF4F41E0608183E00E940705809171
:100FD0000D018F5F80930D01D8CFF0E0EE54FF4FED
:100FE0004BE051E0608183E00E945D0580910B0140
:100FF000811124C080910C0190E020910B012223EB
:1010000099F020910D01880F991F880F991F8E5517
:101010009F4F820F911DFC018081888381E090E0C9
:10102000DF91CF911F9108958E549F4F4BE051E077
:10103000FC01608183E00E945D05DCCF10930E010E
:1010400080910C018F5F80930C01B3CFCF93C82F99
:1010500040E067E080E00E94070540E066E080E055
:101060000E94070540E065E080E00E9407054C2FE4
:10107000417060E082E00E940705C1FB442740F90F
:1010800061E082E00E940705C2FB442740F962E06C
:1010900082E00E940705C3FB442740F963E082E039
:1010A0000E940705C4FB442740F964E082E00E94E7
:1010B00007054C2F42954695477065E082E00E94F7
:1010C000070540E066E082E00E94070540E067E037
:1010D00082E00E94070541E065E080E00E9407058C
:1010E0008FE19EE40197F1F700C0000040E065E069
:1010F00080E0CF910C940705CF93C82F40E066E0C5
:1011000080E00E94070540E065E080E00E9407055E
:10111000C4FB442740F964E082E00E940705C5FB58
:10112000442740F965E082E00E940705C6FB44279A
:1011300040F966E082E00E9407054C2F441F4427D7
:10114000441F67E082E00E9407054C2F417060E079
:1011500082E00E940705C1FB442740F961E082E07C
:101160000E940705C2FB442740F962E082E00E942A
:101170000705C3FB442740F963E082E00E940705AE
:1011800041E065E080E00E9407058FE19EE4019761
:10119000F1F700C0000040E065E080E00E94070534
:1011A0008FE19EE40197F1F700C00000CF91089510
:1011B00041E067E080E00E94D60441E066E080E024
:1011C0000E94D60441E065E080E00E94D60441E040
:1011D00064E082E00E94D60441E065E082E00E9483
:1011E000D60441E066E082E00E94D60441E067E078
:1011F00082E00E94D6042FEB8AED90E021508040DF
:101200009040E1F700C0000041E060E082E00E9411
:10121000D60441E061E082E00E94D60441E062E051
:1012200082E00E94D60441E063E082E00E94D6049E
:1012300088E30E9426088FEC97E00197F1F700C041
:1012400000008FE00E9426088FEC97E00197F1F7ED
:1012500000C0000081E00E9426088FE99FE001970E
:10126000F1F700C0000086E00E94260890E080E0D0
:101270000895CF93C82F41E067E080E00E94070502
:101280008C2F0E947C0890E080E0CF9108954F92CF
:101290005F926F927F928F929F92AF92BF92DF92F6
:1012A000EF92FF920F931F93CF93DF93CDB7DEB7EB
:1012B0002A970FB6F894DEBF0FBECDBF4B015C017D
:1012C00041E067E080E00E940705D12CCE01019645
:1012D0007C018AE0482E512C612C712C0D2D10E0E0
:1012E0000E0D1F1D81149104A104B104F9F40150E5
:1012F0001109C8018E199F09019621F590E080E03F
:101300002A960FB6F894DEBF0FBECDBFDF91CF9106
:101310001F910F91FF90EF90DF90BF90AF909F9043
:101320008F907F906F905F904F900895C501B401AA
:10133000A30192010E94E90CF8016083D394490152
:101340005A01CCCFF8018081805D0E947C08CFCF0C
:10135000CF93C82F40E067E080E00E9407058C2F04
:101360000E947C0890E080E0CF91089581E00E9487
:10137000260890E080E0089582E00E94260890E030
:1013800080E008950F931F93CF93DF93009759F157
:10139000EC018C01045F1F4F4B81698188810E94A1
:1013A00007058A81811115C08B81813011F440E0DD
:1013B00003C0811115C041E0698188810E94070541
:1013C0002496C017D10741F7DF91CF911F910F915C
:1013D0000895813029F48B81813069F3882339F3B2
:1013E00083E090E0EDCF82E090E0EECFFC01892B2E
:1013F00059F0828140E0882319F0813041F441E0C6
:10140000618180810C94070582E090E0089583E07B
:1014100090E00895FC01892B59F0828141E08823F6
:1014200019F0813041F440E0618180810C9407051E
:1014300082E090E0089583E090E008950E94920396
:101440000C94C2020F931F93CF93DF9300D0CDB7BC
:10145000DEB71A8219820097F1F08C01BE016F5F2E
:101460007F4F80E00E94CC0269817A8144EF51E095
:10147000649F9001659F300D749F300D1124232FC0
:1014800026952695F80120830F900F90DF91CF913C
:101490001F910F91089582E090E0F6CF0F931F9374
:1014A000CF93DF93009709F444C0EC018C010A5DEF
:1014B0001F4F41E0698188810E94D60441E06B8121
:1014C0008A810E94D60441E06D818C810E94D604FD
:1014D00041E06F818E810E94D60441E06985888554
:1014E0000E94D60441E06B858A850E94D60441E0C3
:1014F0006D858C850E94D6042F85222339F06E8558
:10150000662321F041E0822F0E94D60429892223FC
:1015100039F06889662321F041E0822F0E94D604C9
:101520006396C017D10729F6DF91CF911F910F91D4
:10153000089590E080E0F8CF0F931F93CF93DF934F
:101540006A3008F0D7C0823008F0D4C0E62F082FE8
:1015500010E093E1899FE0011124CD58DF4F8A8983
:10156000811138C0F0E0E654FF4F1081412F4170E7
:10157000698188810E94070511FB442740F96B812E
:101580008A810E94070512FB442740F96D818C81F6
:101590000E94070513FB442740F96F818E810E944A
:1015A000070514FB442740F9698588850E940705D3
:1015B00015FB442740F96B858A850E94070516FBB9
:1015C000442740F96D858C85DF91CF911F910F9154
:1015D0000C940705813009F094C0F0E0E654FF4F09
:1015E000C08141E0C11140E083E1809FF001819F13
:1015F000F00D1124ED58FF4F618180810E94070595
:1016000041E08C2F869509F040E083E1809FF00156
:10161000819FF00D1124ED58FF4F638182810E945C
:10162000070541E08C2F8695869509F040E083E11F
:10163000809FF001819FF00D1124ED58FF4F6581CF
:1016400084810E94070541E08C2F869586958695BA
:1016500009F040E083E1809FF001819FF00D1124AB
:10166000ED58FF4F678186810E94070541E08C2F6E
:1016700082958F7009F040E083E1809FF001819FA7
:10168000F00D1124ED58FF4F618580850E940705FC
:1016900041E08C2F82958695877009F040E083E1C8
:1016A000809FF001819FF00D1124ED58FF4F63855D
:1016B00082850E94070541E08C2F8295869586954C
:1016C000837009F040E023E1209FC001219F900D2D
:1016D00011248C010D581F4FF801658584850E94E7
:1016E00007054C2F4095441F4427441FF80160898B
:1016F00081896ACF83E090E0DF91CF911F910F91B4
:10170000089584E090E0F8CF823098F493E1899FC7
:10171000F0011124ED58FF4F6685662351F0828950
:1017200041E0882319F0813039F440E087850C943A
:10173000070583E090E0089584E090E0089582300A
:1017400098F493E1899FF0011124ED58FF4F6685CD
:10175000662351F0828940E0882319F0813039F402
:1017600041E087850C94070583E090E0089584E0CC
:1017700090E00895823098F493E1899FF00111245C
:10178000ED58FF4F6089662351F0828941E088233C
:1017900019F0813039F440E081890C94070583E029
:1017A00090E0089584E090E00895823098F493E109
:1017B000899FF0011124ED58FF4F6089662351F095
:1017C000828940E0882319F0813039F441E0818931
:1017D0000C94070583E090E0089584E090E008957C
:1017E000CF93DF93823008F066C093E1899FE001D8
:1017F0001124CD58DF4F8A8981112AC040E06981C8
:1018000088810E94070540E06B818A810E9407055C
:1018100040E06D818C810E94070540E06F818E81E0
:101820000E94070540E0698588850E94070540E021
:101830006B858A850E94070540E06D858C850E9436
:101840000705688940E0611131C0DF91CF910895AB
:101850008130A1F541E0698188810E94070541E05E
:101860006B818A810E94070541E06D818C810E9415
:10187000070541E06F818E810E94070541E069857F
:1018800088850E94070541E06B858A850E940705CF
:1018900041E06D858C850E94070541E06889898952
:1018A0000E9407056889662381F241E08989DF91FA
:1018B000CF910C94070583E090E0C7CF84E090E0DF
:1018C000C4CF0F931F93CF93DF930097B9F0EC0130
:1018D0008C01075F1F4F40E0698188810E94D60418
:1018E0004A81698188810E9407052396C017D10724
:1018F00091F7DF91CF911F910F91089582E090E0D1
:10190000F8CFAB01009739F0672B29F0FC0161811A
:1019100080810C945D0582E090E0089583E790E07B
:101920000E944E0A80E00E949F0B81E00E94840B7F
:101930000E9408070E94140770E060E08EE792E0C2
:101940000E942B07FFCFDB018F939F930E940E0D08
:10195000BF91AF91A29F800D911DA39F900DB29F4B
:10196000900D11240895AA1BBB1B51E107C0AA1FAB
:10197000BB1FA617B70710F0A61BB70B881F991F30
:101980005A95A9F780959095BC01CD010895A1E2E3
:101990001A2EAA1BBB1BFD010DC0AA1FBB1FEE1FE9
:1019A000FF1FA217B307E407F50720F0A21BB30B34
:1019B000E40BF50B661F771F881F991F1A9469F7B0
:1019C00060957095809590959B01AC01BD01CF010C
:1019D0000895052E97FB1EF400940E94000D57FDFC
:1019E00007D00E94C70C07FC03D04EF40C94000DE6
:1019F00050954095309521953F4F4F4F5F4F08953B
:101A000090958095709561957F4F8F4F9F4F08956A
:101A1000EE0FFF1F0590F491E02D09940E94190D1F
:101A2000A59F900DB49F900DA49F800D911D112432
:101A30000895A29FB001B39FC001A39F700D811DA7
:101A40001124911DB29F700D811D1124911D0895C7
:101A50005058BB27AA270E94400D0C94910E0E945B
:101A6000830E38F00E948A0E20F039F49F3F19F45B
:101A700026F40C94800E0EF4E095E7FB0C947A0E9D
:101A8000E92F0E94A20E58F3BA1762077307840762
:101A9000950720F079F4A6F50C94C40E0EF4E095A9
:101AA0000B2EBA2FA02D0B01B90190010C01CA0118
:101AB000A0011124FF27591B99F0593F50F4503EC3
:101AC00068F11A16F040A22F232F342F4427585FB5
:101AD000F3CF469537952795A795F0405395C9F7CD
:101AE0007EF41F16BA0B620B730B840BBAF0915085
:101AF000A1F0FF0FBB1F661F771F881FC2F70EC024
:101B0000BA0F621F731F841F48F4879577956795F6
:101B1000B795F7959E3F08F0B0CF9395880F08F0E2
:101B20009927EE0F9795879508950E94A90D0C941B
:101B3000910E0E948A0E58F00E94830E40F029F404
:101B40005F3F29F00C947A0E51110C94C50E0C9441
:101B5000800E0E94A20E68F39923B1F3552391F3EE
:101B6000951B550BBB27AA2762177307840738F00C
:101B70009F5F5F4F220F331F441FAA1FA9F335D069
:101B80000E2E3AF0E0E832D091505040E695001C1D
:101B9000CAF72BD0FE2F29D0660F771F881FBB1FD7
:101BA000261737074807AB07B0E809F0BB0B802DB5
:101BB000BF01FF2793585F4F3AF09E3F510578F0E1
:101BC0000C947A0E0C94C50E5F3FE4F3983ED4F368
:101BD000869577956795B795F7959F5FC9F7880FB5
:101BE000911D9695879597F90895E1E0660F771F07
:101BF000881FBB1F621773078407BA0720F0621B98
:101C0000730B840BBA0BEE1F88F7E09508950E94C2
:101C10000E0E6894B1110C94C50E08950E94AA0E80
:101C200088F09F5798F0B92F9927B751B0F0E1F09D
:101C3000660F771F881F991F1AF0BA95C9F714C04D
:101C4000B13091F00E94C40EB1E008950C94C40E1E
:101C5000672F782F8827B85F39F0B93FCCF3869586
:101C600077956795B395D9F73EF4909580957095E3
:101C700061957F4F8F4F9F4F0895E89409C097FB60
:101C80003EF490958095709561957F4F8F4F9F4F53
:101C90009923A9F0F92F96E9BB279395F695879597
:101CA00077956795B795F111F8CFFAF4BB0F11F45A
:101CB00060FF1BC06F5F7F4F8F4F9F4F16C0882301
:101CC00011F096E911C0772321F09EE8872F762F37
:101CD00005C0662371F096E8862F70E060E02AF078
:101CE0009A95660F771F881FDAF7880F9695879564
:101CF00097F9089597F99F6780E870E060E008958C
:101D00009FEF80EC089500240A9416161706180613
:101D10000906089500240A941216130614060506EF
:101D20000895092E0394000C11F4882352F0BB0F80
:101D300040F4BF2B11F460FF04C06F5F7F4F8F4FE3
:101D40009F4F089557FD9058440F551F59F05F3F1E
:101D500071F04795880F97FB991F61F09F3F79F0CD
:101D600087950895121613061406551FF2CF46954F
:101D7000F1DF08C0161617061806991FF1CF8695D1
:101D80007105610508940895E894BB2766277727B5
:101D9000CB0197F908950E94DE0E0C94910E0E94DB
:101DA000830E38F00E948A0E20F0952311F00C94D7
:101DB0007A0E0C94800E11240C94C50E0E94A20E73
:101DC00070F3959FC1F3950F50E0551F629FF0018E
:101DD000729FBB27F00DB11D639FAA27F00DB11DA7
:101DE000AA1F649F6627B00DA11D661F829F222730
:101DF000B00DA11D621F739FB00DA11D621F839FB7
:101E0000A00D611D221F749F3327A00D611D231F8C
:101E1000849F600D211D822F762F6A2F11249F57DA
:101E200050409AF0F1F088234AF0EE0FFF1FBB1FDD
:101E3000661F771F881F91505040A9F79E3F51059C
:101E400080F00C947A0E0C94C50E5F3FE4F3983E3C
:101E5000D4F3869577956795B795F795E7959F5F46
:101E6000C1F7FE2B880F911D9695879597F90895D8
:041E7000F894FFCF14
:101E7400090100010001000000010000010100004F
:101E84000201000100010101020103010401050135
:101E9400060403070100010001010102010301041A
:101EA400010501060103070100020000020100020E
:101EB40002003738392F3435362A3132332D433046
:101EC4003D2B04050607000102033F065B4F666DC8
:101ED4007D077F6F48656C6C6F2043616C63756C24
:0C1EE40061746F72004572726F72000032
:00000001FF
