:100000000C942A000C9447000C9447000C94470071
:100010000C9447000C9447000C9447000C94470044
:100020000C9447000C9447000C9447000C94470034
:100030000C9447000C9447000C9447000C94470024
:100040000C9447000C9447000C9447000C94470014
:100050000C94470011241FBECFE5D8E0DEBFCDBF12
:1000600010E0A0E6B0E0E0E7F5E102C005900D92F7
:10007000A03DB107D9F720E0A0EDB0E001C01D928E
:10008000A33EB207E1F70E9436080C94B60A0C941E
:1000900000001092DB001092DC001092DD00109244
:1000A000DE001092D7001092D8001092D900109262
:1000B000DA001092D6001092D2001092D300109263
:1000C000D4001092D5001092D1001092D000089563
:1000D000CF930E9411050E94A8030E948E050E94E2
:1000E0009405C0E0EC2FF0E0E754FF4F80818111D0
:1000F0000FC02FEF89E698E1215080409040E1F752
:1001000000C000000E948E0581E090E0CF9108952C
:100110000E947205CF5FE6CF3F924F925F926F923F
:100120007F928F929F92AF92BF92CF92DF92EF9287
:10013000FF920F931F93CF93DF931F92CDB7DEB73C
:10014000B12CA12C1091D10011118FC0CE010196BC
:100150000E94FB0389818F3FC9F38D3309F057C19A
:100160000E9472055C018091D6008B3209F4B5C003
:1001700008F08FC08A3209F4E4C0C090D200D09059
:10018000D300E090D400F090D500C701B6010E94E2
:100190008C090E94BB099B01AC01C701B6010E94FA
:1001A000A60820E030E04AE754E40E94490A0E9491
:1001B0008C092B013C01C701B6010E9485096B0126
:1001C0007C011FEC411451046104710409F0E3C087
:1001D0008FEC0E94800580E30E9472051EEC812F47
:1001E0000E9480058EE20E94720511509AE0492E0D
:1001F000512C612C712CF7FE04C1F094E094D09442
:10020000C094C11CD11CE11CF11C8AE0482E512C69
:10021000612C712C812F0E948005C701B601A301BA
:1002200092010E946D08322E832E942E052F80E3BA
:10023000860F0E947205C32CD82CE92CF02E8FEF6C
:10024000810FC114D104E104F10409F0C2C08EEFA2
:10025000810F0E9480058DE20E9472050E94940524
:100260000E94490081E08093D000C5010F90DF918A
:10027000CF911F910F91FF90EF90DF90CF90BF90A3
:10028000AF909F908F907F906F905F904F903F9036
:1002900008958D3209F440C08F3209F06ECFC090BE
:1002A000D700D090D800E090D900F090DA00C114C7
:1002B000D104E104F10409F057C00E948E050E94A8
:1002C0009405E12FF0E0E653FF4F8081882309F485
:1002D00054CF0E9472051F5FF4CF6091DB007091D4
:1002E000DC008091DD009091DE000091D70010913C
:1002F000D8002091D9003091DA00600F711F821F61
:10030000931F0E94BD096093D2007093D300809325
:10031000D4009093D50031CF6091DB007091DC0068
:100320008091DD009091DE000091D7001091D800FF
:100330002091D9003091DA00601B710B820B930B76
:10034000E0CF2091DB003091DC004091DD00509146
:10035000DE006091D7007091D8008091D900909113
:10036000DA000E943B08CDCF6091DB007091DC0089
:100370008091DD009091DE000E94BD092B013C01BF
:10038000C701B6010E94BD099B01AC01C301B201C6
:100390000E941309B8CF812F0E948005C301B201CA
:1003A0002AE030E040E050E00E944B08022F932EFC
:1003B000842E352E80E3860F0E947205402E592C24
:1003C000682C732C1150411451046104710419F705
:1003D00006CF182F1FCF812F0E948005C701B601BD
:1003E000A30192010E946D08322E832E942E052FB8
:1003F00080E3860F0E947205C32CD82CE92CF02EC6
:100400001150C114D104E104F10429F727CF90ED74
:10041000980F9A3008F062C08091D000813021F4AA
:100420000E948E051092D0008091D600811134C0B8
:100430008091DB009091DC00A091DD00B091DE00A6
:10044000892B8A2B8B2B11F40E948E052091DB00C7
:100450003091DC004091DD005091DE00AAE0B0E078
:100460000E948C0829812053330B8901330F220B02
:10047000330BDC01CB01800F911FA21FB31F8093B0
:10048000DB009093DC00A093DD00B093DE00898157
:100490000E9472055C0156CE2091D7003091D800A1
:1004A0004091D9005091DA00AAE0B0E00E948C0897
:1004B00029812053330B8901330F220B330BDC01CD
:1004C000CB01800F911FA21FB31F8093D700909381
:1004D000D800A093D900B093DA00D9CF833431F497
:1004E0000E948E055C010E9449002CCE0E9472057C
:1004F0005C018091D000813021F40E948E05109221
:10050000D0001092D10089818093D6001BCE08952F
:100510008FEF8ABB9CEF97BB84BB81BB1BBA18BA19
:1005200015BA12BA81E090E00895843080F48230E8
:1005300051F0833051F0813021F06ABB81E090E0CE
:10054000089567BBFBCF64BBF9CF61BBF7CF83E0F6
:1005500090E00895843080F4823051F0833051F07F
:10056000813021F06BBB81E090E0089568BBFBCF48
:1005700065BBF9CF62BBF7CF83E090E0089584308C
:10058000C0F4823071F0833081F0813031F08BB370
:1005900080958BBB81E090E0089588B3809588BBFF
:1005A000F9CF85B3809585BBF5CF82B3809582BBAB
:1005B000F1CF83E090E00895FB018430B8F43097E8
:1005C000C1F0823059F0833059F0813029F089B37D
:1005D000808381E090E0089586B3FACF83B3F8CFAB
:1005E00080B3808382B3809582BBF3CF83E090E0B9
:1005F000089582E090E00895843060F5683050F509
:10060000423040F521E030E0062E01C0220F0A946E
:10061000EAF7209501C0440F6A95EAF7823081F02D
:10062000833099F0813039F08AB32823242B2ABBF8
:1006300090E080E0089587B32823242B27BBF8CFD0
:1006400084B32823242B24BBF3CF81B32823242B6A
:1006500021BBEECF83E090E00895843060F56830F0
:1006600050F5423040F521E030E0062E01C0220F67
:100670000A94EAF7209501C0440F6A95EAF78230A0
:1006800081F0833099F0813039F08BB32823242B0B
:100690002BBB90E080E0089588B32823242B28BB4F
:1006A000F8CF85B32823242B25BBF3CF82B328238F
:1006B000242B22BBEECF83E090E00895843000F538
:1006C0006830F0F421E030E001C0220F6A95EAF7CB
:1006D000823071F0833081F0813031F08BB3282784
:1006E0002BBB90E080E0089588B3282728BBF9CF82
:1006F00085B3282725BBF5CF82B3282722BBF1CFAE
:1007000083E090E00895FA018430E0F46830D0F49A
:100710003097D9F0823091F0833091F0813061F0E0
:1007200089B390E002C0959587956A95E2F781704C
:10073000808390E080E0089586B3F3CF83B3F1CF58
:1007400080B3EFCF83E090E0089582E090E00895D9
:1007500040E064E083E00E94FC0240E065E083E06A
:100760000E94FC0240E066E083E00E94FC0240E060
:1007700067E083E00E94FC0241E060E083E00E94C9
:10078000FC0241E061E083E00E94FC0241E062E0A3
:1007900083E00E94FC0241E063E083E00E94FC02EF
:1007A00041E064E083E00E942D0341E065E083E0E6
:1007B0000E942D0341E066E083E00E942D0341E0AA
:1007C00067E083E00E942D0341E060E083E00E9447
:1007D0002D0341E061E083E00E942D0341E062E0EF
:1007E00083E00E942D0341E063E083E00E942D033B
:1007F00090E080E008951F93CF93DF93EC018FEF9B
:100800008093E2001092E1001FEFE091E100E430FC
:1008100030F08091E200888390E080E041C0F0E019
:10082000E555FF4F40E0608183E00E942D03109268
:10083000E000E091E000E43080F0E091E100F0E0E1
:10084000E555FF4F41E0608183E00E942D038091D8
:10085000E1008F5F8093E100D8CFF0E0E955FF4FD2
:100860004FED50E0608183E00E9483038091DF00C0
:10087000811124C08091E00090E02091DF002223CC
:1008800099F02091E100880F991F880F991F8956D0
:100890009F4F820F911DFC018081888381E090E051
:1008A000DF91CF911F91089589559F4F4FED50E0F3
:1008B000FC01608183E00E948303DCCF1093E2009F
:1008C0008091E0008F5F8093E000B3CFCF93C82F7B
:1008D00040E060E080E00E942D0340E061E080E0C5
:1008E0000E942D0340E062E080E00E942D034C2F27
:1008F000417060E081E00E942D03C1FB442740F974
:1009000061E081E00E942D03C2FB442740F962E0D0
:1009100081E00E942D03C3FB442740F963E081E09E
:100920000E942D03C4FB442740F964E081E00E944B
:100930002D034C2F42954695477065E081E00E945B
:100940002D0340E066E081E00E942D0340E067E077
:1009500081E00E942D0341E062E080E00E942D03CF
:100960008FE19EE40197F1F700C0000040E062E0F3
:1009700080E0CF910C942D03CF93C82F40E061E02D
:1009800080E00E942D0340E062E080E00E942D03A1
:10099000C4FB442740F964E081E00E942D03C5FBBD
:1009A000442740F965E081E00E942D03C6FB4427FF
:1009B00040F966E081E00E942D034C2F441F44273C
:1009C000441F67E081E00E942D034C2F417060E0DE
:1009D00081E00E942D03C1FB442740F961E081E0E2
:1009E0000E942D03C2FB442740F962E081E00E948F
:1009F0002D03C3FB442740F963E081E00E942D03EF
:100A000041E062E080E00E942D038FE19EE40197C7
:100A1000F1F700C0000040E062E080E0CF910C946C
:100A20002D0341E060E080E00E94FC0241E061E0D3
:100A300080E00E94FC0241E062E080E00E94FC0253
:100A400041E064E081E00E94FC0241E065E081E079
:100A50000E94FC0241E066E081E00E94FC0241E06D
:100A600067E081E00E94FC022FEB8AED90E02150CC
:100A700080409040E1F700C0000041E060E081E08C
:100A80000E94FC0241E061E081E00E94FC0241E042
:100A900062E081E00E94FC0241E063E081E00E94AC
:100AA000FC0288E30E9466048FEC97E00197F1F75F
:100AB00000C000008FE00E9466048FEC97E0019771
:100AC000F1F700C0000081E00E9466048FE99FE01A
:100AD0000197F1F700C0000086E00E94660490E0F4
:100AE00080E00895CF93C82F41E060E080E00E944D
:100AF0002D038C2F0E94BC0490E080E0CF910895DC
:100B0000CF93C82F40E060E080E00E942D038C2F3F
:100B10000E94BC0490E080E0CF91089581E00E94A3
:100B2000660490E080E0089582E00E94660490E010
:100B300080E008950F931F93CF93DF93009759F1AF
:100B4000EC018C01085F1F4F4B81698188810E94F5
:100B50002D038A81811115C08B81813011F440E011
:100B600003C0811115C041E0698188810E942D0375
:100B70002496C017D10741F7DF91CF911F910F91B4
:100B80000895813029F48B81813069F3882339F30A
:100B900083E090E0EDCF82E090E0EECFFC01892B86
:100BA00059F0828140E0882319F0813041F441E01E
:100BB000618180810C942D0382E090E0089583E0B0
:100BC00090E00895FC01892B59F0828141E088234F
:100BD00019F0813041F440E0618180810C942D0353
:100BE00082E090E0089583E090E008950F931F93D2
:100BF000CF93DF93009709F444C0EC018C010A5DA8
:100C00001F4F41E0698188810E94FC0241E06B81B5
:100C10008A810E94FC0241E06D818C810E94FC026D
:100C200041E06F818E810E94FC0241E069858885E8
:100C30000E94FC0241E06B858A850E94FC0241E033
:100C40006D858C850E94FC022F85222339F06E85EC
:100C5000662321F041E0822F0E94FC022989222391
:100C600039F06889662321F041E0822F0E94FC025E
:100C70006396C017D10729F6DF91CF911F910F918D
:100C8000089590E080E0F8CF0F931F93CF93DF9308
:100C90006A3008F0D7C0823008F0D4C0E62F082FA1
:100CA00010E093E1899FE0011124C859DF4F8A8940
:100CB000811138C0F0E0E155FF4F1081412F4170A4
:100CC000698188810E942D0311FB442740F96B81C3
:100CD0008A810E942D0312FB442740F96D818C818B
:100CE0000E942D0313FB442740F96F818E810E94DF
:100CF0002D0314FB442740F9698588850E942D0344
:100D000015FB442740F96B858A850E942D0316FB4D
:100D1000442740F96D858C85DF91CF911F910F910C
:100D20000C942D03813009F094C0F0E0E155FF4FA1
:100D3000C08141E0C11140E083E1809FF001819FCB
:100D4000F00D1124E859FF4F618180810E942D032D
:100D500041E08C2F869509F040E083E1809FF0010F
:100D6000819FF00D1124E859FF4F638182810E9419
:100D70002D0341E08C2F8695869509F040E083E1B4
:100D8000809FF001819FF00D1124E859FF4F65818C
:100D900084810E942D0341E08C2F8695869586954F
:100DA00009F040E083E1809FF001819FF00D112464
:100DB000E859FF4F678186810E942D0341E08C2F07
:100DC00082958F7009F040E083E1809FF001819F60
:100DD000F00D1124E859FF4F618580850E942D0395
:100DE00041E08C2F82958695877009F040E083E181
:100DF000809FF001819FF00D1124E859FF4F63851A
:100E000082850E942D0341E08C2F829586958695E0
:100E1000837009F040E023E1209FC001219F900DE5
:100E200011248C0108591F4FF801658584850E94A3
:100E30002D034C2F4095441F4427441FF80160891F
:100E400081896ACF83E090E0DF91CF911F910F916C
:100E5000089584E090E0F8CF823098F493E1899F80
:100E6000F0011124E859FF4F6685662351F082890D
:100E700041E0882319F0813039F440E087850C94F3
:100E80002D0383E090E0089584E090E0089582309F
:100E900098F493E1899FF0011124E859FF4F66858A
:100EA000662351F0828940E0882319F0813039F4BB
:100EB00041E087850C942D0383E090E0089584E061
:100EC00090E00895823098F493E1899FF001112415
:100ED000E859FF4F6089662351F0828941E08823F9
:100EE00019F0813039F440E081890C942D0383E0BE
:100EF00090E0089584E090E00895823098F493E1C2
:100F0000899FF0011124E859FF4F6089662351F051
:100F1000828940E0882319F0813039F441E08189E9
:100F20000C942D0383E090E0089584E090E0089510
:100F3000CF93DF93823008F066C093E1899FE00190
:100F40001124C859DF4F8A8981112AC040E0698184
:100F500088810E942D0340E06B818A810E942D03CD
:100F600040E06D818C810E942D0340E06F818E8175
:100F70000E942D0340E0698588850E942D0340E092
:100F80006B858A850E942D0340E06D858C850E94CB
:100F90002D03688940E0611131C0DF91CF91089540
:100FA0008130A1F541E0698188810E942D0341E0F3
:100FB0006B818A810E942D0341E06D818C810E94AA
:100FC0002D0341E06F818E810E942D0341E06985F0
:100FD00088850E942D0341E06B858A850E942D0340
:100FE00041E06D858C850E942D0341E068898989E7
:100FF0000E942D036889662381F241E08989DF918F
:10100000CF910C942D0383E090E0C7CF84E090E073
:10101000C4CF0F931F93CF93DF930097B9F0EC01E8
:101020008C01075F1F4F40E0698188810E94FC02AC
:101030004A81698188810E942D032396C017D107B8
:1010400091F7DF91CF911F910F91089582E090E089
:10105000F8CFAB01009739F0672B29F0FC016181D3
:1010600080810C94830382E090E008950E946800E0
:101070000E948C00FDCFDB018F939F930E948C0810
:10108000BF91AF91A29F800D911DA39F900DB29F24
:10109000900D11240895A1E21A2EAA1BBB1BFD017D
:1010A0000DC0AA1FBB1FEE1FFF1FA217B307E40747
:1010B000F50720F0A21BB30BE40BF50B661F771F9F
:1010C000881F991F1A9469F760957095809590957F
:1010D0009B01AC01BD01CF010895052E97FB1EF4C5
:1010E00000940E94840857FD07D00E944B0807FC1B
:1010F00003D04EF40C94840850954095309521957A
:101100003F4F4F4F5F4F0895909580957095619533
:101110007F4F8F4F9F4F08950E949708A59F900D76
:10112000B49F900DA49F800D911D11240895A29F3E
:10113000B001B39FC001A39F700D811D1124911DAB
:10114000B29F700D811D1124911D08955058BB2729
:10115000AA270E94BE080C940F0A0E94010A38F0C8
:101160000E94080A20F039F49F3F19F426F40C94E9
:10117000FE090EF4E095E7FB0C94F809E92F0E94B4
:10118000200A58F3BA17620773078407950720F0FF
:1011900079F4A6F50C94420A0EF4E0950B2EBA2FC2
:1011A000A02D0B01B90190010C01CA01A00111246D
:1011B000FF27591B99F0593F50F4503E68F11A1619
:1011C000F040A22F232F342F4427585FF3CF4695AA
:1011D00037952795A795F0405395C9F77EF41F16CC
:1011E000BA0B620B730B840BBAF09150A1F0FF0F96
:1011F000BB1F661F771F881FC2F70EC0BA0F621F82
:10120000731F841F48F4879577956795B795F79571
:101210009E3F08F0B0CF9395880F08F09927EE0F06
:101220009795879508950E9427090C940F0A0E94AC
:10123000080A58F00E94010A40F029F45F3F29F0A3
:101240000C94F80951110C94430A0C94FE090E9465
:10125000200A68F39923B1F3552391F3951B550B9D
:10126000BB27AA2762177307840738F09F5F5F4F79
:10127000220F331F441FAA1FA9F335D00E2E3AF0B8
:10128000E0E832D091505040E695001CCAF72BD0D0
:10129000FE2F29D0660F771F881FBB1F2617370721
:1012A0004807AB07B0E809F0BB0B802DBF01FF2753
:1012B00093585F4F3AF09E3F510578F00C94F8092F
:1012C0000C94430A5F3FE4F3983ED4F386957795F8
:1012D0006795B795F7959F5FC9F7880F911D96950C
:1012E000879597F90895E1E0660F771F881FBB1F68
:1012F000621773078407BA0720F0621B730B840B15
:10130000BA0BEE1F88F7E09508950E948C09689447
:10131000B1110C94430A08950E94280A88F09F573F
:1013200098F0B92F9927B751B0F0E1F0660F771F09
:10133000881F991F1AF0BA95C9F714C0B13091F0FF
:101340000E94420AB1E008950C94420A672F782F58
:101350008827B85F39F0B93FCCF3869577956795C4
:10136000B395D9F73EF490958095709561957F4F30
:101370008F4F9F4F0895E89409C097FB3EF49095D6
:101380008095709561957F4F8F4F9F4F9923A9F05E
:10139000F92F96E9BB279395F695879577956795ED
:1013A000B795F111F8CFFAF4BB0F11F460FF1BC031
:1013B0006F5F7F4F8F4F9F4F16C0882311F096E9C4
:1013C00011C0772321F09EE8872F762F05C0662372
:1013D00071F096E8862F70E060E02AF09A95660F2B
:1013E000771F881FDAF7880F9695879597F90895E4
:1013F00097F99F6780E870E060E008959FEF80ECC8
:10140000089500240A94161617061806090608956A
:1014100000240A9412161306140605060895092ED0
:101420000394000C11F4882352F0BB0F40F4BF2B3F
:1014300011F460FF04C06F5F7F4F8F4F9F4F08957F
:1014400057FD9058440F551F59F05F3F71F0479575
:10145000880F97FB991F61F09F3F79F0879508955A
:10146000121613061406551FF2CF4695F1DF08C079
:10147000161617061806991FF1CF86957105610596
:1014800008940895E894BB2766277727CB0197F93E
:1014900008950E945C0A0C940F0A0E94010A38F019
:1014A0000E94080A20F0952311F00C94F8090C947E
:1014B000FE0911240C94430A0E94200A70F3959FA0
:1014C000C1F3950F50E0551F629FF001729FBB273B
:1014D000F00DB11D639FAA27F00DB11DAA1F649FD7
:1014E0006627B00DA11D661F829F2227B00DA11D8A
:1014F000621F739FB00DA11D621F839FA00D611D10
:10150000221F749F3327A00D611D231F849F600D30
:10151000211D822F762F6A2F11249F5750409AF059
:10152000F1F088234AF0EE0FFF1FBB1F661F771FE5
:10153000881F91505040A9F79E3F510580F00C94B0
:10154000F8090C94430A5F3FE4F3983ED4F3869580
:1015500077956795B795F795E7959F5FC1F7FE2B50
:10156000880F911D9695879597F90895F894FFCF68
:101570000000010000010100000000010002000362
:10158000000400050006000207000001000101013F
:101590000201030104010501060002070100020027
:1015A000010201010202013738392F3435362A3160
:1015B00032332D43303D2B04050607000102033F63
:1015C000065B4F666D7D077F6F48656C6C6F2043CF
:1015D000616C63756C61746F72004572726F72003A
:00000001FF
