:100000000C942A000C9447000C9447000C94470071
:100010000C9447000C9447000C9447000C94470044
:100020000C9447000C9447000C9447000C94470034
:100030000C9447000C9447000C9447000C94470024
:100040000C9447000C9447000C9447000C94470014
:100050000C94470011241FBECFE5D8E0DEBFCDBF12
:1000600010E0A0E6B0E0E8E0F5E002C005900D92F7
:10007000AC37B107D9F720E0ACE7B0E001C01D9282
:10008000AD37B207E1F70E9407020C9482020C948C
:1000900000008FEF8ABB9CEF97BB84BB81BB1BBA70
:1000A00018BA15BA12BA81E090E00895843080F44D
:1000B000823051F0833051F0813021F06ABB81E011
:1000C00090E0089567BBFBCF64BBF9CF61BBF7CF6E
:1000D00083E090E00895843080F4823051F08330E2
:1000E00051F0813021F06BBB81E090E0089568BB56
:1000F000FBCF65BBF9CF62BBF7CF83E090E00895FB
:100100008430C0F4823071F0833081F0813031F07E
:100110008BB380958BBB81E090E0089588B3809588
:1001200088BBF9CF85B3809585BBF5CF82B3809529
:1001300082BBF1CF83E090E00895FB018430B8F4F6
:100140003097C1F0823059F0833059F0813029F076
:1001500089B3808381E090E0089586B3FACF83B3BA
:10016000F8CF80B3808382B3809582BBF3CF83E0E6
:1001700090E0089582E090E00895843060F5683062
:1001800050F5423040F521E030E0062E01C0220F4C
:100190000A94EAF7209501C0440F6A95EAF7823085
:1001A00081F0833099F0813039F08AB32823242BF1
:1001B0002ABB90E080E0089587B32823242B27BB37
:1001C000F8CF84B32823242B24BBF3CF81B3282377
:1001D000242B21BBEECF83E090E00895843060F5BE
:1001E000683050F5423040F521E030E0062E01C085
:1001F000220F0A94EAF7209501C0440F6A95EAF7A6
:10020000823081F0833099F0813039F08BB328232C
:10021000242B2BBB90E080E0089588B32823242B67
:1002200028BBF8CF85B32823242B25BBF3CF82B37B
:100230002823242B22BBEECF83E090E00895843066
:1002400000F56830F0F421E030E001C0220F6A953B
:10025000EAF7823071F0833081F0813031F08BB376
:1002600028272BBB90E080E0089588B3282728BB7F
:10027000F9CF85B3282725BBF5CF82B3282722BB2A
:10028000F1CF83E090E00895FA018430E0F4683023
:10029000D0F43097D9F0823091F0833091F08130F2
:1002A00061F089B390E002C0959587956A95E2F771
:1002B0008170808390E080E0089586B3F3CF83B3AC
:1002C000F1CF80B3EFCF83E090E0089582E090E03B
:1002D00008950F931F93CF93DF93009759F1EC018B
:1002E0008C01085F1F4F4B81698188810E94EE005D
:1002F0008A81811115C08B81813011F440E003C0E7
:10030000811115C041E0698188810E94EE00249628
:10031000C017D10741F7DF91CF911F910F91089539
:10032000813029F48B81813069F3882339F383E0AC
:1003300090E0EDCF82E090E0EECFFC01892B59F008
:10034000828140E0882319F0813041F441E06181ED
:1003500080810C94EE0082E090E0089583E090E0CC
:100360000895FC01892B59F0828141E0882319F01E
:10037000813041F440E0618180810C94EE0082E0A4
:1003800090E0089583E090E0089590E080E0089583
:1003900090E080E0089590E080E0089590E080E0B3
:1003A000089590E080E0089590E080E0089590E066
:1003B00080E008950F931F93CF93DF930097B9F0D8
:1003C000EC018C01075F1F4F40E0698188810E942A
:1003D000BD004A81698188810E94EE002396C01782
:1003E000D10791F7DF91CF911F910F91089582E08E
:1003F00090E0F8CFAB01009739F0672B29F0FC01B2
:10040000618180810C94440182E090E00895CF9353
:10041000DF93CDB7DEB72C970FB6F894DEBF0FBED3
:10042000CDBF0E9449006FE780E00E9456006FE751
:1004300081E00E9456008AE0E1E7F0E0DE011196DB
:1004400001900D928A95E1F788E690E00E94DA012A
:100450001C861B866FE380E00E946B006FE381E0E7
:100460000E946B0010E08AE0F82EBE01645F7F4FAF
:1004700088E690E00E94FA01BE01655F7F4F8BE63F
:1004800090E00E94FA012C8580917C00211121C00E
:1004900011111FC08F5F80937C0011E080917C0060
:1004A0006F2D0E947602082FE1E0F0E0EC0FFD1FB7
:1004B000E90FF11D608180E00E946B00E1E0F0E057
:1004C000EC0FFD1FE00FF11D608181E00E946B00C9
:1004D000CCCF9B85911104C01111E0CF8150DBCFAF
:1004E0002130E1F69130D1F610E0D8CF991B79E0B8
:1004F00004C0991F961708F0961B881F7A95C9F7B4
:0805000080950895F894FFCFE7
:1005080000000100000101000200010201010202D5
:0C051800013F065B4F666D7D077F6F00A2
:00000001FF
