:100000000C942A000C943F000C943F000C943F0089
:100010000C943F000C943F000C943F000C943F0064
:100020000C943F000C943F000C943F000C943F0054
:100030000C943F000C943F000C943F000C943F0044
:100040000C943F000C943F000C943F000C943F0034
:100050000C943F0011241FBECFE5D8E0DEBFCDBF1A
:1000600010E0A0E6B0E0EEE7F5E002C005900D92EA
:10007000AC37B107D9F70E949F020C94BD020C94D3
:1000800000008FEF8ABB9CEF97BB84BB81BB1BBA80
:1000900018BA15BA12BA81E090E00895843080F45D
:1000A000823051F0833051F0813021F06ABB81E021
:1000B00090E0089567BBFBCF64BBF9CF61BBF7CF7E
:1000C00083E090E00895843080F4823051F08330F2
:1000D00051F0813021F06BBB81E090E0089568BB66
:1000E000FBCF65BBF9CF62BBF7CF83E090E008950B
:1000F0008430C0F4823071F0833081F0813031F08F
:100100008BB380958BBB81E090E0089588B3809598
:1001100088BBF9CF85B3809585BBF5CF82B3809539
:1001200082BBF1CF83E090E00895FB018430B8F406
:100130003097C1F0823059F0833059F0813029F086
:1001400089B3808381E090E0089586B3FACF83B3CA
:10015000F8CF80B3808382B3809582BBF3CF83E0F6
:1001600090E0089582E090E00895843060F5683072
:1001700050F5423040F521E030E0062E01C0220F5C
:100180000A94EAF7209501C0440F6A95EAF7823095
:1001900081F0833099F0813039F08AB32823242B01
:1001A0002ABB90E080E0089587B32823242B27BB47
:1001B000F8CF84B32823242B24BBF3CF81B3282387
:1001C000242B21BBEECF83E090E00895843060F5CE
:1001D000683050F5423040F521E030E0062E01C095
:1001E000220F0A94EAF7209501C0440F6A95EAF7B6
:1001F000823081F0833099F0813039F08BB328233D
:10020000242B2BBB90E080E0089588B32823242B77
:1002100028BBF8CF85B32823242B25BBF3CF82B38B
:100220002823242B22BBEECF83E090E00895843076
:1002300000F56830F0F421E030E001C0220F6A954B
:10024000EAF7823071F0833081F0813031F08BB386
:1002500028272BBB90E080E0089588B3282728BB8F
:10026000F9CF85B3282725BBF5CF82B3282722BB3A
:10027000F1CF83E090E00895FA018430E0F4683033
:10028000D0F43097D9F0823091F0833091F0813002
:1002900061F089B390E002C0959587956A95E2F781
:1002A0008170808390E080E0089586B3F3CF83B3BC
:1002B000F1CF80B3EFCF83E090E0089582E090E04B
:1002C00008950F931F93CF93DF93009759F1EC019B
:1002D0008C01085F1F4F4B81698188810E94E60075
:1002E0008A81811115C08B81813011F440E003C0F7
:1002F000811115C041E0698188810E94E600249641
:10030000C017D10741F7DF91CF911F910F91089549
:10031000813029F48B81813069F3882339F383E0BC
:1003200090E0EDCF82E090E0EECFFC01892B59F018
:10033000828140E0882319F0813041F441E06181FD
:1003400080810C94E60082E090E0089583E090E0E4
:100350000895FC01892B59F0828141E0882319F02E
:10036000813041F440E0618180810C94E60082E0BC
:1003700090E0089583E090E0089541E060E080E03F
:100380000E94B50041E061E080E00E94B50041E0DC
:1003900062E080E00E94B50041E063E080E00E94FE
:1003A000B50041E064E080E00E94B50041E065E016
:1003B00080E00E94B50041E066E080E00E94B50068
:1003C00041E060E080E00E94B50041E060E080E054
:1003D0000E94B50090E080E00895CF93DF938A30CB
:1003E00008F049C0C82FD0E0C859DF4F4881409578
:1003F000417060E080E00E94E600488146954095AB
:10040000417061E080E00E94E60048814695469593
:100410004095417062E080E00E94E6004881469588
:10042000469546954095417063E080E00E94E60065
:10043000488142954F704095417064E080E00E9491
:10044000E60048814295469547704095417065E0C9
:1004500080E00E94E60048814295469546954370AB
:100460004095417066E080E00E94E60090E080E008
:10047000DF91CF91089583E090E0FACF41E060E012
:1004800080E00C94E60040E060E080E00C94E60040
:100490000C9443020C943E0241E060E080E00E9434
:1004A000E60041E061E080E00E94E60041E062E0B9
:1004B00080E00E94E60041E063E080E00E94E60008
:1004C00041E064E080E00E94E60041E065E080E019
:1004D0000E94E60041E066E080E00E94E60090E0D5
:1004E00080E008950F931F93CF93DF930097B9F0A7
:1004F000EC018C01075F1F4F40E0698188810E94F9
:10050000B5004A81698188810E94E6002396C01760
:10051000D10791F7DF91CF911F910F91089582E05C
:1005200090E0F8CFAB01009739F0672B29F0FC0180
:10053000618180810C943C0182E090E008950E94EA
:10054000BD01C0E08C2F0E94ED012FEF89E698E1FC
:10055000215080409040E1F700C00000CF5FCA30DA
:1005600089F70E944C022FEF89E698E121508040E4
:0E0570009040E1F700C00000E4CFF894FFCF08
:10057E0000000100000101003F065B4F666D7D0724
:0C058E007F6F0200010201010202010067
:00000001FF
