:100000000C942A000C9447000C9447000C94470071
:100010000C9447000C9447000C9447000C94470044
:100020000C9447000C9447000C9447000C94470034
:100030000C9447000C9447000C9447000C94470024
:100040000C9447000C9447000C9447000C94470014
:100050000C94470011241FBECFE5D8E0DEBFCDBF12
:1000600010E0A0E6B0E0E2E2FCE002C005900D92F4
:10007000AA3BB107D9F720E0AAEBB0E001C01D927E
:10008000AE3BB207E1F70E94F7050C940F060C9403
:1000900000008FEF8ABB9CEF97BB84BB81BB1BBA70
:1000A00018BA15BA12BA81E090E00895843080F44D
:1000B000823051F0833051F0813021F06ABB81E011
:1000C00090E0089567BBFBCF64BBF9CF61BBF7CF6E
:1000D00083E090E00895843080F4823051F08330E2
:1000E00051F0813021F06BBB81E090E0089568BB56
:1000F000FBCF65BBF9CF62BBF7CF83E090E00895FB
:100100008430C0F4823071F0833081F0813031F07E
:100110008BB380958BBB81E090E0089588B3809588
:1001200088BBF9CF85B3809585BBF5CF82B3809529
:1001300082BBF1CF83E090E00895FB018430B8F4F6
:100140003097C1F0823059F0833059F0813029F076
:1001500089B3808381E090E0089586B3FACF83B3BA
:10016000F8CF80B3808382B3809582BBF3CF83E0E6
:1001700090E0089582E090E00895843060F5683062
:1001800050F5423040F521E030E0062E01C0220F4C
:100190000A94EAF7209501C0440F6A95EAF7823085
:1001A00081F0833099F0813039F08AB32823242BF1
:1001B0002ABB90E080E0089587B32823242B27BB37
:1001C000F8CF84B32823242B24BBF3CF81B3282377
:1001D000242B21BBEECF83E090E00895843060F5BE
:1001E000683050F5423040F521E030E0062E01C085
:1001F000220F0A94EAF7209501C0440F6A95EAF7A6
:10020000823081F0833099F0813039F08BB328232C
:10021000242B2BBB90E080E0089588B32823242B67
:1002200028BBF8CF85B32823242B25BBF3CF82B37B
:100230002823242B22BBEECF83E090E00895843066
:1002400000F56830F0F421E030E001C0220F6A953B
:10025000EAF7823071F0833081F0813031F08BB376
:1002600028272BBB90E080E0089588B3282728BB7F
:10027000F9CF85B3282725BBF5CF82B3282722BB2A
:10028000F1CF83E090E00895FA018430E0F4683023
:10029000D0F43097D9F0823091F0833091F08130F2
:1002A00061F089B390E002C0959587956A95E2F771
:1002B0008170808390E080E0089586B3F3CF83B3AC
:1002C000F1CF80B3EFCF83E090E0089582E090E03B
:1002D000089540E064E083E00E94BD0040E065E0F6
:1002E00083E00E94BD0040E066E083E00E94BD0024
:1002F00040E067E083E00E94BD0041E060E083E011
:100300000E94BD0041E061E083E00E94BD0041E049
:1003100062E083E00E94BD0041E063E083E00E9470
:10032000BD0041E064E083E00E94EE0041E065E052
:1003300083E00E94EE0041E066E083E00E94EE0070
:1003400041E067E083E00E94EE0041E060E083E08E
:100350000E94EE0041E061E083E00E94EE0041E097
:1003600062E083E00E94EE0041E063E083E00E94EF
:10037000EE0090E080E008951F93CF93DF93EC01AF
:100380008FEF8093BD001092BC001FEFE091BC0086
:10039000E43030F08091BD00888390E080E041C07F
:1003A000F0E0E555FF4F40E0608183E00E94EE0001
:1003B0001092BB00E091BB00E43080F0E091BC0003
:1003C000F0E0E555FF4F41E0608183E00E94EE00E0
:1003D0008091BC008F5F8093BC00D8CFF0E0E955DE
:1003E000FF4F4AEB50E0608183E00E94440180911E
:1003F000BA00811124C08091BB0090E02091BA0026
:10040000222399F02091BC00880F991F880F991F13
:1004100089569F4F820F911DFC018081888381E066
:1004200090E0DF91CF911F91089589559F4F4AEB3E
:1004300050E0FC01608183E00E944401DCCF109316
:10044000BD008091BB008F5F8093BB00B3CFCF9383
:10045000C82F40E060E080E00E94EE0040E061E0F4
:1004600080E00E94EE0040E062E080E00E94EE004A
:100470004C2F417060E081E00E94EE00C1FB4427F8
:1004800040F961E081E00E94EE00C2FB442740F9A0
:1004900062E081E00E94EE00C3FB442740F963E084
:1004A00081E00E94EE00C4FB442740F964E081E053
:1004B0000E94EE004C2F42954695477065E081E022
:1004C0000E94EE0040E066E081E00E94EE0040E025
:1004D00067E081E00E94EE0041E062E080E00E947F
:1004E000EE008FE19EE40197F1F700C0000040E0CC
:1004F00062E080E0CF910C94EE00CF93C82F40E0F3
:1005000061E080E00E94EE0040E062E080E00E9456
:10051000EE00C4FB442740F964E081E00E94EE0055
:10052000C5FB442740F965E081E00E94EE00C6FB70
:10053000442740F966E081E00E94EE004C2F441F02
:100540004427441F67E081E00E94EE004C2F417079
:1005500060E081E00E94EE00C1FB442740F961E0C9
:1005600081E00E94EE00C2FB442740F962E081E096
:100570000E94EE00C3FB442740F963E081E00E9443
:10058000EE0041E062E080E00E94EE008FE19EE438
:100590000197F1F700C0000040E062E080E0CF91F9
:1005A0000C94EE0041E060E080E00E94BD0041E07C
:1005B00061E080E00E94BD0041E062E080E00E94D6
:1005C000BD0041E064E081E00E94BD0041E065E0E3
:1005D00081E00E94BD0041E066E081E00E94BD0034
:1005E00041E067E081E00E94BD002FEB8AED90E0E2
:1005F000215080409040E1F700C0000041E060E001
:1006000081E00E94BD0041E061E081E00E94BD0008
:1006100041E062E081E00E94BD0041E063E081E0F2
:100620000E94BD0088E30E9427028FEC97E00197AB
:10063000F1F700C000008FE00E9427028FEC97E0E6
:100640000197F1F700C0000081E00E9427028FE9C6
:100650009FE00197F1F700C0000086E00E942702AA
:1006600090E080E00895CF93C82F41E060E080E003
:100670000E94EE008C2F0E947D0290E080E0CF91DE
:100680000895CF93C82F40E060E080E00E94EE0024
:100690008C2F0E947D0290E080E0CF91089581E050
:1006A0000E94270290E080E0089582E00E942702E5
:1006B00090E080E008950F931F93CF93DF9300970E
:1006C00059F1EC018C01085F1F4F4B8169818881D2
:1006D0000E94EE008A81811115C08B81813011F456
:1006E00040E003C0811115C041E0698188810E940A
:1006F000EE002496C017D10741F7DF91CF911F91EB
:100700000F910895813029F48B81813069F388231A
:1007100039F383E090E0EDCF82E090E0EECFFC0192
:10072000892B59F0828140E0882319F0813041F40F
:1007300041E0618180810C94EE0082E090E00895B8
:1007400083E090E00895FC01892B59F0828141E01B
:10075000882319F0813041F440E0618180810C945C
:10076000EE0082E090E0089583E090E008950F931A
:100770001F93CF93DF93009709F444C0EC018C01E1
:100780000A5D1F4F41E0698188810E94BD0041E000
:100790006B818A810E94BD0041E06D818C810E9445
:1007A000BD0041E06F818E810E94BD0041E06985FE
:1007B00088850E94BD0041E06B858A850E94BD004E
:1007C00041E06D858C850E94BD002F85222339F084
:1007D0006E85662321F041E0822F0E94BD002989A9
:1007E000222339F06889662321F041E0822F0E949C
:1007F000BD006396C017D10729F6DF91CF911F91F5
:100800000F91089590E080E0F8CF0F931F93CF935E
:10081000DF936A3008F0D7C0823008F0D4C0E62FEA
:10082000082F10E093E1899FE0011124C859DF4FA0
:100830008A89811138C0F0E0E155FF4F1081412FC6
:100840004170698188810E94EE0011FB442740F9C4
:100850006B818A810E94EE0012FB442740F96D8172
:100860008C810E94EE0013FB442740F96F818E813A
:100870000E94EE0014FB442740F9698588850E9498
:10088000EE0015FB442740F96B858A850E94EE0037
:1008900016FB442740F96D858C85DF91CF911F9120
:1008A0000F910C94EE00813009F094C0F0E0E15516
:1008B000FF4FC08141E0C11140E083E1809FF00122
:1008C000819FF00D1124E859FF4F618180810E94C2
:1008D000EE0041E08C2F869509F040E083E1809F97
:1008E000F001819FF00D1124E859FF4F638182814F
:1008F0000E94EE0041E08C2F8695869509F040E03D
:1009000083E1809FF001819FF00D1124E859FF4F92
:10091000658184810E94EE0041E08C2F869586954A
:10092000869509F040E083E1809FF001819FF00D02
:100930001124E859FF4F678186810E94EE0041E053
:100940008C2F82958F7009F040E083E1809FF00149
:10095000819FF00D1124E859FF4F618580850E9429
:10096000EE0041E08C2F82958695877009F040E07B
:1009700083E1809FF001819FF00D1124E859FF4F22
:10098000638582850E94EE0041E08C2F82958695DA
:100990008695837009F040E023E1209FC001219FEC
:1009A000900D11248C0108591F4FF801658584852D
:1009B0000E94EE004C2F4095441F4427441FF8012D
:1009C000608981896ACF83E090E0DF91CF911F91A8
:1009D0000F91089584E090E0F8CF823098F493E18D
:1009E000899FF0011124E859FF4F6685662351F075
:1009F000828941E0882319F0813039F440E087850D
:100A00000C94EE0083E090E0089584E090E0089577
:100A1000823098F493E1899FF0011124E859FF4F47
:100A20006685662351F0828940E0882319F0813081
:100A300039F441E087850C94EE0083E090E008955E
:100A400084E090E00895823098F493E1899FF0016A
:100A50001124E859FF4F6089662351F0828941E0F3
:100A6000882319F0813039F440E081890C94EE003C
:100A700083E090E0089584E090E00895823098F457
:100A800093E1899FF0011124E859FF4F60896623A3
:100A900051F0828940E0882319F0813039F441E037
:100AA00081890C94EE0083E090E0089584E090E06A
:100AB0000895CF93DF93823008F066C093E1899F59
:100AC000E0011124C859DF4F8A8981112AC040E012
:100AD000698188810E94EE0040E06B818A810E94DA
:100AE000EE0040E06D818C810E94EE0040E06F815D
:100AF0008E810E94EE0040E0698588850E94EE00AC
:100B000040E06B858A850E94EE0040E06D858C8513
:100B10000E94EE00688940E0611131C0DF91CF9101
:100B200008958130A1F541E0698188810E94EE003D
:100B300041E06B818A810E94EE0041E06D818C81F1
:100B40000E94EE0041E06F818E810E94EE0041E044
:100B5000698588850E94EE0041E06B858A850E9448
:100B6000EE0041E06D858C850E94EE0041E06889D1
:100B700089890E94EE006889662381F241E08989B3
:100B8000DF91CF910C94EE0083E090E0C7CF84E03A
:100B900090E0C4CF0F931F93CF93DF930097B9F0EA
:100BA000EC018C01075F1F4F40E0698188810E9442
:100BB000BD004A81698188810E94EE002396C0179A
:100BC000D10791F7DF91CF911F910F91089582E0A6
:100BD00090E0F8CFAB01009739F0672B29F0FC01CA
:100BE000618180810C94440182E090E00895CF936C
:100BF000DF931F92CDB7DEB70E94D2020E94690137
:100C000080E80E9441038FEF8983CE0101960E9404
:100C1000BC0189818F3FC9F30E943303F6CFF8945A
:020C2000FFCF04
:100C220000000100000101000000000100020003B9
:100C32000004000500060002070000010001010196
:100C4200020103010401050106000207010002007E
:100C5200010201010202013738392F3435362A31B7
:100C620032332D25303D2B04050607000102033FD8
:0A0C7200065B4F666D7D077F6F0083
:00000001FF
