:100000000C942A000C9498060C94C5060C94F206E5
:100010000C9447000C9447000C944C090C947909FB
:100020000C9483090C948D090C94C3080C94F0086B
:100030000C9447000C9447000C9447000C94470024
:100040000C9406040C9447000C9447000C94470051
:100050000C94470011241FBECFE5D8E0DEBFCDBF12
:1000600010E0A0E6B0E0E8E8F3E202C005900D92EF
:10007000AA3DB107D9F721E0AAEDB0E001C01D9279
:10008000A532B207E1F70E94D20E0C94C2110C9473
:1000900000001092E5001092E6001092E700109226
:1000A000E8001092E1001092E2001092E30010923A
:1000B000E4001092E0001092DC001092DD0010923B
:1000C000DE001092DF001092DB001092DA0008953B
:1000D000CF930E941C0B0E94AC090E94FA0B0E9455
:1000E000000CC0E0EC2FF0E0ED53FF4F8081811158
:1000F0000FC02FEF89E698E1215080409040E1F752
:1001000000C000000E94FA0B81E090E0CF910895BA
:100110000E947D0BCF5FE6CF2F923F924F925F926E
:100120006F927F928F929F92AF92BF92CF92DF9207
:10013000EF92FF920F931F93CF93DF931F92CDB750
:10014000DEB7B12CA12C1091DB001111A2C0CE01A1
:1001500001960E94FF0989818F3FC9F38D3309F011
:100160004DC10E947D0B5C018091E0008B3209F44F
:10017000C9C008F0A3C08A3209F4F8C0C090DC00FE
:10018000D090DD00E090DE00F090DF00C701B60106
:100190000E9474100E94A3109B01AC01C701B6011C
:1001A0000E94890F20E030E04AE754E40E94551194
:1001B0000E9474102B013C01C701B6010E946D1012
:1001C0006B017C011FEC411451046104710429F19D
:1001D000812F0E94EC0BC301B2012AE030E040E025
:1001E00050E00E94140F022F932E842E352E80E3B0
:1001F000860F0E947D0B402E592C682C732C8FEF9C
:10020000810F411451046104710409F0D9C00E94A6
:10021000EC0B8EE20E947D0B12509AE0492E512C7D
:10022000612C712CF7FEE4C0F094E094D094C0945B
:10023000C11CD11CE11CF11C8AE0282E312C412C60
:10024000512C812F0E94EC0BC701B601A201910134
:100250000E94360F722E832E942E052F80E3860F78
:100260000E947D0BC72CD82CE92CF02E1150C11404
:10027000D104E104F10429F7812F0E94EC0B8DE2F7
:100280000E947D0B0E94000C0E94490081E0809337
:10029000DA00C5010F90DF91CF911F910F91FF9070
:1002A000EF90DF90CF90BF90AF909F908F907F9016
:1002B0006F905F904F903F902F9008958D3209F48A
:1002C00040C08F3209F05ACFC090E100D090E200D8
:1002D000E090E300F090E400C114D104E104F104E3
:1002E00009F057C00E94FA0B0E94000CE12FF0E0C9
:1002F000EC52FF4F8081882309F440CF0E947D0B90
:100300001F5FF4CF6091E5007091E6008091E700F7
:100310009091E8000091E1001091E2002091E3004B
:100320003091E400600F711F821F931F0E94A5107F
:100330006093DC007093DD008093DE009093DF001B
:100340001DCF6091E5007091E6008091E7009091EB
:10035000E8000091E1001091E2002091E30030916B
:10036000E400601B710B820B930BE0CF2091E50042
:100370003091E6004091E7005091E8006091E10083
:100380007091E2008091E3009091E4000E94F00EF1
:10039000CDCF6091E5007091E6008091E7009091EB
:1003A000E8000E94A5102B013C01C701B6010E9484
:1003B000A5109B01AC01C301B2010E94FB0FB8CF95
:1003C000182F06CF812F0E94EC0BC701B601A301A5
:1003D00092010E94360F322E832E942E052F80E339
:1003E000860F0E947D0BC32CD82CE92CF02E1150C7
:1003F000C114D104E104F10429F744CF90ED980F22
:100400009A3008F062C08091DA00813021F40E94B5
:10041000FA0B1092DA008091E000811134C08091D3
:10042000E5009091E600A091E700B091E800892BEB
:100430008A2B8B2B11F40E94FA0B2091E50030914E
:10044000E6004091E7005091E800AAE0B0E00E9489
:100450005B0F29812053330B8901330F220B330BA0
:10046000DC01CB01800F911FA21FB31F8093E50019
:100470009093E600A093E700B093E80089810E9482
:100480007D0B5C0160CE2091E1003091E200409153
:10049000E3005091E400AAE0B0E00E945B0F2981E4
:1004A0002053330B8901330F220B330BDC01CB01BB
:1004B000800F911FA21FB31F8093E1009093E20071
:1004C000A093E300B093E400D9CF833431F40E94C9
:1004D000FA0B5C010E94490036CE0E947D0B5C0144
:1004E0008091DA00813021F40E94FA0B1092DA0038
:1004F0001092DB0089818093E00025CE8091F0008E
:100500008F5F8093F000813021F490E080E00C94C4
:100510006F08823041F483EF90E00E94740860E03D
:1005200081E00C9438068330C9F481EF90E00E949A
:1005300074088091F1009091F2002091F3003091C5
:10054000F400821B930B9093F2008093F1001092C1
:10055000F0000E94000C81E00C9423060895809125
:10056000EF008F5F8093EF00813021F48DEE90E0FB
:100570000C94B6088230A9F48BEE90E00E94B60885
:100580008091EB009091EC002091ED003091EE0015
:10059000821B930B9093F4008093F30081E00C9402
:1005A0008A088330A1F489EE90E00E94B608809119
:1005B000E9009091EA002091EB003091EC00821B61
:1005C000930B9093F2008093F1000C94A00808958F
:1005D00087B18F73806287B986B1876086B990E0F2
:1005E00080E008959091F500911127C091E09093DB
:1005F000F5008830F8F497B1907E892B87B981E0B7
:1006000090E026B1206526B924B12295269526953D
:10061000237030E0FB013183208345B1F4E04F9F2C
:10062000A0011124242B352BFB0131832083109250
:10063000F500089583E090E0E4CF85E090E0089530
:100640009091F50091111EC08830F8F441155105C4
:10065000F9F091E09093F5007093FC006093FB003B
:10066000509300014093FF003093FE002093FD0063
:1006700097B1907E892B87B986B1886486B981E06D
:1006800090E0089585E090E0089583E090E008957B
:1006900082E090E00895FC018091F500811127C06F
:1006A00081E08093F5008093F90082E090E04115AD
:1006B000510511F090E080E070817830D8F45093CB
:1006C00000014093FF003093FE002093FD006093F3
:1006D000F800F093F700E093F60027B1207E27B9E9
:1006E0003081232B27B926B1286426B9089590E0DC
:1006F00080E0089583E090E00895369A90E080E0ED
:10070000089586B1982F92959F7009F4FFCF80616C
:1007100086B990E080E0089525B1FC01208390E047
:1007200080E0089524B1229526952695237030E027
:10073000FC013183208345B1F4E04F9FA0011124D7
:10074000242B352BFC013183208390E080E0089539
:10075000009759F0909300018093FF007093FE0082
:100760006093FD0090E080E0089582E090E00895BD
:10077000379A90E080E00895379890E080E00895FF
:10078000339A90E080E00895339890E080E00895F7
:10079000883038F497B1907E892B87B981E090E05A
:1007A000089583E090E00895359A883040F5E82F69
:1007B000F0E0E252FC4F90B70C94550FE603EB03C8
:1007C000EE03F103F403F703FA03FD039F7190BFF7
:1007D00090E080E008959F739062F9CF9F759064D8
:1007E000F6CF9F779066F3CF9F799068F0CF9F7B8D
:1007F000906AEDCF9F7D906CEACF906EE8CF83E05A
:1008000090E00895359890E080E008951F920F924F
:100810000FB60F9211242F933F934F935F936F93D3
:100820007F938F939F93AF93BF93EF93FF938091A9
:10083000F900813009F057C08091FA009091F800DA
:100840008917E0F52091F6003091F70093E0F90167
:10085000899FE00DF11D11240180F281E02D45B149
:1008600040838F5F8093FA00899F200D311D1124F2
:10087000F9018081883088F487B1807E87B9209122
:10088000FA00E091F600F091F700299FE00DF11DCC
:1008900011249081892B87B9369AFF91EF91BF91EE
:1008A000AF919F918F917F916F915F914F913F9108
:1008B0002F910F900FBE0F901F9018958913EDCFB9
:1008C000E091FF00F0910001309739F38091FD0035
:1008D0009091FE000995349A1092F5001092FA005A
:1008E0001092F900DACFE091FF00F091000130970B
:1008F000A1F285B1A091FB00B091FC008C93809196
:10090000FD009091FE000995349A1092F500C5CF34
:100910008FEF8ABB9CEF97BB84BB81BB1BBA18BA15
:1009200015BA12BA81E090E00895843080F48230E4
:1009300051F0833051F0813021F06ABB81E090E0CA
:10094000089567BBFBCF64BBF9CF61BBF7CF83E0F2
:1009500090E00895843080F4823051F0833051F07B
:10096000813021F06BBB81E090E0089568BBFBCF44
:1009700065BBF9CF62BBF7CF83E090E00895843088
:10098000C0F4823071F0833081F0813031F08BB36C
:1009900080958BBB81E090E0089588B3809588BBFB
:1009A000F9CF85B3809585BBF5CF82B3809582BBA7
:1009B000F1CF83E090E00895FB018430B8F43097E4
:1009C000C1F0823059F0833059F0813029F089B379
:1009D000808381E090E0089586B3FACF83B3F8CFA7
:1009E00080B3808382B3809582BBF3CF83E090E0B5
:1009F000089582E090E00895843060F5683050F505
:100A0000423040F521E030E0062E01C0220F0A946A
:100A1000EAF7209501C0440F6A95EAF7823081F029
:100A2000833099F0813039F08AB32823242B2ABBF4
:100A300090E080E0089587B32823242B27BBF8CFCC
:100A400084B32823242B24BBF3CF81B32823242B66
:100A500021BBEECF83E090E00895843060F56830EC
:100A600050F5423040F521E030E0062E01C0220F63
:100A70000A94EAF7209501C0440F6A95EAF782309C
:100A800081F0833099F0813039F08BB32823242B07
:100A90002BBB90E080E0089588B32823242B28BB4B
:100AA000F8CF85B32823242B25BBF3CF82B328238B
:100AB000242B22BBEECF83E090E00895843000F534
:100AC0006830F0F421E030E001C0220F6A95EAF7C7
:100AD000823071F0833081F0813031F08BB3282780
:100AE0002BBB90E080E0089588B3282728BBF9CF7E
:100AF00085B3282725BBF5CF82B3282722BBF1CFAA
:100B000083E090E00895FA018430E0F46830D0F496
:100B10003097D9F0823091F0833091F0813061F0DC
:100B200089B390E002C0959587956A95E2F7817048
:100B3000808390E080E0089586B3F3CF83B3F1CF54
:100B400080B3EFCF83E090E0089582E090E00895D5
:100B5000009709F460C0FC0180E09081913081F43D
:100B60009BB7813051F1823009F446C090649BBF3D
:100B70009181913099F058F0923099F09330B9F01A
:100B80008F5F3296833049F790E080E0089595B703
:100B90009E7F95BF95B7926095BFF2CF95B7916054
:100BA000F8CF95B7916095BF95B79D7FF5CF95B775
:100BB0009D7F95BF95B79E7FEFCF90689BBF91813A
:100BC000913071F038F0923089F09330C9F695B7D2
:100BD000977F02C095B7986095BF95B79B7FDCCF94
:100BE00095B7946095BF95B79860D6CF95B7977F26
:100BF00095BF95B79460D0CF90629BBF91819923A8
:100C000031F0913009F0BCCF94B7906402C094B732
:100C10009F7B94BFB5CF82E090E00895833080F44D
:100C2000813041F0823049F08BB780648BBF90E017
:100C300080E008958BB78068F9CF8BB78062F6CFDC
:100C400083E090E00895833080F4813041F0823079
:100C500049F08BB78F7B8BBF90E080E008958BB716
:100C60008F77F9CF8BB78F7DF6CF83E090E0089533
:100C7000643038F4843028F48130F9F028F0823080
:100C8000A1F190E080E0089585B7623079F063309B
:100C900091F0613029F0826085BF85B78E7F04C0F6
:100CA000816085BF85B7826085BFEBCF8D7F85BFB3
:100CB00085B78160F9CF8D7FEFCF85B7623071F056
:100CC000633089F0613029F0886085BF85B78B7FFC
:100CD000EBCF846085BF85B78860E6CF877F85BF0F
:100CE00085B78460E1CF877FF0CF662329F061303C
:100CF00041F684B7806402C084B78F7B84BFC1CFC4
:100D0000833098F46115710569F090E0880F991FA0
:100D1000FC01E95FFE4F718360838F5F9E4FFC0192
:100D20005183408390E080E0089583E090E008954F
:100D30001F920F920FB60F9211242F933F934F9350
:100D40005F936F937F938F939F93AF93BF93EF9333
:100D5000FF938091010190910201009729F0E091A9
:100D60000701F09108010995FF91EF91BF91AF91B3
:100D70009F918F917F916F915F914F913F912F91B3
:100D80000F900FBE0F901F9018951F920F920FB6E5
:100D90000F9211242F933F934F935F936F937F9301
:100DA0008F939F93AF93BF93EF93FF93E0910901CC
:100DB000F0910A01309729F080910301909104018C
:100DC0000995FF91EF91BF91AF919F918F917F9185
:100DD0006F915F914F913F912F910F900FBE0F90A8
:100DE0001F9018951F920F920FB60F9211242F93F8
:100DF0003F934F935F936F937F938F939F93AF93A3
:100E0000BF93EF93FF93E0910B01F0910C013097AA
:100E100029F080910501909106010995FF91EF91CC
:100E2000BF91AF919F918F917F916F915F914F9102
:100E30003F912F910F900FBE0F901F9018958FB775
:100E400080688FBF81E090E008958FB78F778FBF64
:100E500081E090E0089583B78F7E83BF83B78F7D55
:100E600083BF83B7806483BF83B7886083BF83B742
:100E7000806283BF83B78F7E83BF89B78D7F89BF31
:100E800089B78E7F89BF83B78E7F83BF83B7826028
:100E900083BF83B78B7F83BF90E080E008958FB5D9
:100EA0008E7F8FBD8FB58D7F8FBD8EB5877F8EBDB9
:100EB0008EB58F7E8EBD8FB58F7B8FBD8FB58F77B3
:100EC0008FBD8EB58E7F8EBD8EB582608EBD8EB588
:100ED0008B7F8EBD90E080E008958F929F92AF92BD
:100EE000BF92CF92DF92EF92FF9229B72E7F29BF58
:100EF0000E94A3102DEB37E346E858E30E94FB0F56
:100F00004B015C010E9474106B017C010E94A310D4
:100F10009B01AC01C501B4010E94890F4B015C012A
:100F200020E030E0A9010E94F60F8823B1F120E013
:100F300030E040E853E4C501B4010E9455119B0123
:100F4000AC0160E070E080E893E40E94890F0E94A9
:100F5000741062BF8FEFC816D806E806F80659F479
:100F600090E080E0FF90EF90DF90CF90BF90AF9047
:100F70009F908F90089508B600FEFDCF88B78160DE
:100F800088BF81E0C81AD108E108F108E3CF08B6AC
:100F900000FEFDCF88B7816088BFC114D104E10491
:100FA000F104A9F7DDCF8F929F92AF92BF92CF92BB
:100FB000DF92EF92FF92CF93DF93C2E0D0E0411532
:100FC000510551F05093200140931F0130931C01B3
:100FD00020931B01C1E0D0E00E94A3102DEB37E36A
:100FE00046E858E30E94FB0F4B015C010E9474101D
:100FF0006B017C010E94A3109B01AC01C501B401EF
:101000000E94890F4B015C0120E030E0A9010E94A1
:10101000F60F8823C9F1A501940160E070E080E833
:101020009FE30E94890F20E030E040E853E40E94F3
:1010300055110E9474108FEFC81AD80AE80AF80AEE
:10104000C0921501D0921601E0921701F09218019A
:10105000862F90E0B0E0A0E0809311019093120100
:10106000A0931301B093140162BF89B7816089BF57
:10107000CE01DF91CF91FF90EF90DF90CF90BF90A6
:10108000AF909F908F900895C0921501D092160155
:10109000E0921701F0921801E8CF009759F0909371
:1010A000200180931F0170931C0160931B0181E05C
:1010B00090E0089582E090E00895892B19F081E096
:1010C00090E0089582E090E00895982F80E064E633
:1010D00070E00E94000F6CBF81E090E008959DBD1C
:1010E0008CBD81E090E00895009741F02CB53DB5AE
:1010F000FC013183208381E090E0089582E090E05C
:1011000008958EB580648EBD89B7806289BF90E0F6
:1011100080E00895823058F4811106C08EB5806455
:101120008EBD90E080E008958EB58F7BF9CF83E08F
:1011300090E0089589B7806289BF81E090E00895CA
:1011400089B78F7D89BF81E090E00895009759F0BD
:1011500090931E0180931D0170931A0160931901F1
:1011600081E090E0089582E090E00895009741F0DA
:1011700026B537B5FC013183208381E090E00895E6
:1011800082E090E008951F920F920FB60F92112403
:101190002F933F934F935F936F937F938F939F937F
:1011A000AF93BF93EF93FF93E0911F01F091200164
:1011B000309729F080911B0190911C010995FF91B6
:1011C000EF91BF91AF919F918F917F916F915F91BF
:1011D0004F913F912F910F900FBE0F901F90189538
:1011E0001F920F920FB60F9211242F933F934F939C
:1011F0005F936F937F938F939F93AF93BF93EF937F
:10120000FF9380911F0190912001892BA1F1809182
:101210000D0190910E01A0910F01B0911001019666
:10122000A11DB11D80930D0190930E01A0930F019C
:10123000B093100140911501509116016091170172
:101240007091180184179507A607B707A1F480913C
:10125000110182BFE0911F01F091200180911B01DB
:1012600090911C01099510920D0110920E0110929F
:101270000F0110921001FF91EF91BF91AF919F91DB
:101280008F917F916F915F914F913F912F910F902F
:101290000FBE0F901F9018951F920F920FB60F92CE
:1012A00011242F933F934F935F936F937F938F936B
:1012B0009F93AF93BF93EF93FF93E0911D01F09144
:1012C0001E01309729F08091190190911A0109951A
:1012D000FF91EF91BF91AF919F918F917F916F910E
:1012E0005F914F913F912F910F900FBE0F901F90E4
:1012F00018951F920F920FB60F9211240F900FBEE8
:101300000F901F9018951F920F920FB60F921124F5
:101310000F900FBE0F901F9018951F920F920FB64F
:101320000F9211240F900FBE0F901F90189581B54A
:10133000886081BD81E090E0089588E181BD11BCA5
:1013400081E090E0089591B5987F91BD91B5892B8A
:1013500081BD81E090E0089540E064E083E00E9478
:10136000FC0440E065E083E00E94FC0440E066E0AD
:1013700083E00E94FC0440E067E083E00E94FC04FC
:1013800041E060E083E00E94FC0441E061E083E032
:101390000E94FC0441E062E083E00E94FC0441E022
:1013A00063E083E00E94FC0441E064E083E00E948B
:1013B0002D0541E065E083E00E942D0541E066E0F7
:1013C00083E00E942D0541E067E083E00E942D0547
:1013D00041E060E083E00E942D0541E061E083E0B0
:1013E0000E942D0541E062E083E00E942D0541E06E
:1013F00063E083E00E942D0590E080E008951F9354
:10140000CF93DF93EC018FEF80932401109223019F
:101410001FEFE0912301E43030F0809124018883B4
:1014200090E080E041C0F0E0EB54FF4F40E060818D
:1014300083E00E942D0510922201E0912201E43008
:1014400080F0E0912301F0E0EB54FF4F41E0608138
:1014500083E00E942D05809123018F5F80932301FB
:10146000D8CFF0E0EF54FF4F41E251E0608183E0DC
:101470000E94830580912101811124C08091220165
:1014800090E020912101222399F020912301880FDF
:10149000991F880F991F8F559F4F820F911DFC0137
:1014A0008081888381E090E0DF91CF911F91089542
:1014B0008F549F4F41E251E0FC01608183E00E9424
:1014C0008305DCCF10932401809122018F5F8093EC
:1014D0002201B3CFCF93C82F40E067E080E00E94A5
:1014E0002D0540E066E080E00E942D0540E065E0CB
:1014F00080E00E942D054C2F417060E082E00E9448
:101500002D05C1FB442740F961E082E00E942D05D2
:10151000C2FB442740F962E082E00E942D05C3FB34
:10152000442740F963E082E00E942D05C4FB442774
:1015300040F964E082E00E942D054C2F42954695CB
:10154000477065E082E00E942D0540E066E082E0A1
:101550000E942D0540E067E082E00E942D0541E0F9
:1015600065E080E00E942D058FE19EE40197F1F790
:1015700000C0000040E065E080E0CF910C942D05B4
:10158000CF93C82F40E066E080E00E942D0540E048
:1015900065E080E00E942D05C4FB442740F964E02B
:1015A00082E00E942D05C5FB442740F965E082E0FA
:1015B0000E942D05C6FB442740F966E082E00E94A8
:1015C0002D054C2F441F4427441F67E082E00E94F2
:1015D0002D054C2F417060E082E00E942D05C1FB7B
:1015E000442740F961E082E00E942D05C2FB4427B8
:1015F00040F962E082E00E942D05C3FB442740F9D8
:1016000063E082E00E942D0541E065E080E00E94F9
:101610002D058FE19EE40197F1F700C0000040E046
:1016200065E080E00E942D058FE19EE40197F1F7CF
:1016300000C00000CF91089541E067E080E00E9483
:10164000FC0441E066E080E00E94FC0441E065E0CB
:1016500080E00E94FC0441E064E082E00E94FC041F
:1016600041E065E082E00E94FC0441E066E082E047
:101670000E94FC0441E067E082E00E94FC042FEB42
:101680008AED90E0215080409040E1F700C00000DA
:1016900041E060E082E00E94FC0441E061E082E021
:1016A0000E94FC0441E062E082E00E94FC0441E010
:1016B00063E082E00E94FC0488E30E946A0A8FECE7
:1016C00097E00197F1F700C000008FE00E946A0ADE
:1016D0008FEC97E00197F1F700C0000081E00E94D5
:1016E0006A0A8FE99FE00197F1F700C0000086E0E9
:1016F0000E946A0A90E080E00895CF93C82F41E0ED
:1017000067E080E00E942D058C2F0E94C00A90E0C7
:1017100080E0CF9108954F925F926F927F928F9267
:101720009F92AF92BF92DF92EF92FF920F931F931F
:10173000CF93DF93CDB7DEB72A970FB6F894DEBF0D
:101740000FBECDBF4B015C0141E067E080E00E942D
:101750002D05D12CCE0101967C018AE0482E512C1A
:10176000612C712C0D2D10E00E0D1F1D81149104A4
:10177000A104B104F9F401501109C8018E199F099F
:10178000019621F590E080E02A960FB6F894DEBF2E
:101790000FBECDBFDF91CF911F910F91FF90EF90C2
:1017A000DF90BF90AF909F908F907F906F905F90F1
:1017B0004F900895C501B401A30192010E94360F14
:1017C000F8016083D39449015A01CCCFF80180819C
:1017D000805D0E94C00ACFCFCF93C82F40E067E062
:1017E00080E00E942D058C2F0E94C00A90E080E0CE
:1017F000CF91089581E00E946A0A90E080E0089508
:1018000082E00E946A0A90E080E008950F931F939F
:10181000CF93DF93009759F1EC018C01045F1F4FC8
:101820004B81698188810E942D058A81811115C0B3
:101830008B81813011F440E003C0811115C041E07B
:10184000698188810E942D052496C017D10741F730
:10185000DF91CF911F910F910895813029F48B81F1
:10186000813069F3882339F383E090E0EDCF82E0A3
:1018700090E0EECFFC01892B59F0828140E0882373
:1018800019F0813041F441E0618180810C942D0593
:1018900082E090E0089583E090E00895FC01892BB8
:1018A00059F0828141E0882319F0813041F440E011
:1018B000618180810C942D0582E090E0089583E0A1
:1018C00090E008950E94B8030C94E8020F931F93D0
:1018D000CF93DF9300D0CDB7DEB71A82198200977D
:1018E000F1F08C01BE016F5F7F4F80E00E94F20239
:1018F00069817A8144EF51E0649F9001659F300DCA
:10190000749F300D1124232F26952695F8012083EE
:101910000F900F90DF91CF911F910F91089582E06A
:1019200090E0F6CF0F931F93CF93DF93009709F4C6
:1019300044C0EC018C010A5D1F4F41E06981888140
:101940000E94FC0441E06B818A810E94FC0441E01A
:101950006D818C810E94FC0441E06F818E810E9428
:10196000FC0441E0698588850E94FC0441E06B85A8
:101970008A850E94FC0441E06D858C850E94FC04F0
:101980002F85222339F06E85662321F041E0822FD6
:101990000E94FC042989222339F06889662321F0FA
:1019A00041E0822F0E94FC046396C017D10729F6FC
:1019B000DF91CF911F910F91089590E080E0F8CFD3
:1019C0000F931F93CF93DF936A3008F0D7C0823014
:1019D00008F0D4C0E62F082F10E093E1899FE001C2
:1019E0001124CE58DF4F8A89811138C0F0E0E754C6
:1019F000FF4F1081412F4170698188810E942D0520
:101A000011FB442740F96B818A810E942D0512FB4E
:101A1000442740F96D818C810E942D0513FB4427DA
:101A200040F96F818E810E942D0514FB442740F9F7
:101A3000698588850E942D0515FB442740F96B8533
:101A40008A850E942D0516FB442740F96D858C85FB
:101A5000DF91CF911F910F910C942D05813009F0EA
:101A600094C0F0E0E754FF4FC08141E0C11140E075
:101A700083E1809FF001819FF00D1124EE58FF4F0C
:101A8000618180810E942D0541E08C2F869509F0AF
:101A900040E083E1809FF001819FF00D1124EE581A
:101AA000FF4F638182810E942D0541E08C2F869536
:101AB000869509F040E083E1809FF001819FF00D61
:101AC0001124EE58FF4F658184810E942D0541E06D
:101AD0008C2F86958695869509F040E083E1809F5E
:101AE000F001819FF00D1124EE58FF4F6781868130
:101AF0000E942D0541E08C2F82958F7009F040E007
:101B000083E1809FF001819FF00D1124EE58FF4F7B
:101B1000618580850E942D0541E08C2F82958695F8
:101B2000877009F040E083E1809FF001819FF00D14
:101B30001124EE58FF4F638582850E942D0541E0F8
:101B40008C2F829586958695837009F040E023E17D
:101B5000209FC001219F900D11248C010E581F4F12
:101B6000F801658584850E942D054C2F4095441F02
:101B70004427441FF801608981896ACF83E090E09F
:101B8000DF91CF911F910F91089584E090E0F8CFFD
:101B9000823098F493E1899FF0011124EE58FF4FB1
:101BA0006685662351F0828941E0882319F08130EF
:101BB00039F440E087850C942D0583E090E008958A
:101BC00084E090E00895823098F493E1899FF001D9
:101BD0001124EE58FF4F6685662351F0828940E05C
:101BE000882319F0813039F441E087850C942D0564
:101BF00083E090E0089584E090E00895823098F4C6
:101C000093E1899FF0011124EE58FF4F608966230C
:101C100051F0828941E0882319F0813039F440E0A5
:101C200081890C942D0583E090E0089584E090E094
:101C30000895823098F493E1899FF0011124EE58C1
:101C4000FF4F6089662351F0828940E0882319F0B4
:101C5000813039F441E081890C942D0583E090E0D6
:101C6000089584E090E00895CF93DF93823008F0E8
:101C700066C093E1899FE0011124CE58DF4F8A8925
:101C800081112AC040E0698188810E942D0540E0D1
:101C90006B818A810E942D0540E06D818C810E94BC
:101CA0002D0540E06F818E810E942D0540E0698501
:101CB00088850E942D0540E06B858A850E942D0550
:101CC00040E06D858C850E942D05688940E061119A
:101CD00031C0DF91CF9108958130A1F541E0698154
:101CE00088810E942D0541E06B818A810E942D052B
:101CF00041E06D818C810E942D0541E06F818E81D4
:101D00000E942D0541E0698588850E942D0541E0EE
:101D10006B858A850E942D0541E06D858C850E942A
:101D20002D0541E0688989890E942D05688966230F
:101D300081F241E08989DF91CF910C942D0583E0F8
:101D400090E0C7CF84E090E0C4CF0F931F93CF9370
:101D5000DF930097B9F0EC018C01075F1F4F40E063
:101D6000698188810E94FC044A81698188810E947E
:101D70002D052396C017D10791F7DF91CF911F91C1
:101D80000F91089582E090E0F8CFAB01009739F011
:101D9000672B29F0FC01618180810C94830582E02E
:101DA00090E0089541E067E083E00E94FC0441E098
:101DB00067E083E00E942D052FEF89E698E121502E
:101DC00080409040E1F700C0000040E067E083E021
:101DD0000E942D050E94970986E00E94A309FFCF6B
:101DE000DB018F939F930E945B0FBF91AF91A29FE6
:101DF000800D911DA39F900DB29F900D1124089509
:101E000097FB072E16F4009407D077FD09D00E94A7
:101E1000660F07FC05D03EF4909581959F4F08957D
:101E2000709561957F4F0895A1E21A2EAA1BBB1BE6
:101E3000FD010DC0AA1FBB1FEE1FFF1FA217B30796
:101E4000E407F50720F0A21BB30BE40BF50B661FAC
:101E5000771F881F991F1A9469F760957095809570
:101E600090959B01AC01BD01CF010895052E97FB14
:101E70001EF400940E944D0F57FD07D00E94140FCE
:101E800007FC03D04EF40C944D0F509540953095BF
:101E900021953F4F4F4F5F4F0895909580957095D6
:101EA00061957F4F8F4F9F4F0895EE0FFF1F059055
:101EB000F491E02D09940E947A0FA59F900DB49F94
:101EC000900DA49F800D911D11240895AA1BBB1B8A
:101ED00051E107C0AA1FBB1FA617B70710F0A61B2A
:101EE000B70B881F991F5A95A9F780959095BC014B
:101EF000CD010895A29FB001B39FC001A39F700DB3
:101F0000811D1124911DB29F700D811D1124911D01
:101F100008955058BB27AA270E94A10F0C941B11AB
:101F20000E940D1138F00E94141120F039F49F3FE7
:101F300019F426F40C940A110EF4E095E7FB0C94C6
:101F40000411E92F0E942C1158F3BA176207730786
:101F50008407950720F079F4A6F50C944E110EF441
:101F6000E0950B2EBA2FA02D0B01B90190010C01A9
:101F7000CA01A0011124FF27591B99F0593F50F4C1
:101F8000503E68F11A16F040A22F232F342F442719
:101F9000585FF3CF469537952795A795F040539511
:101FA000C9F77EF41F16BA0B620B730B840BBAF0E1
:101FB0009150A1F0FF0FBB1F661F771F881FC2F74C
:101FC0000EC0BA0F621F731F841F48F48795779560
:101FD0006795B795F7959E3F08F0B0CF9395880F1A
:101FE00008F09927EE0F9795879508950E94E010C5
:101FF00008F481E008950E940F100C941B110E94B8
:10200000141158F00E940D1140F029F45F3F29F09F
:102010000C94041151110C944F110C940A110E944C
:102020002C1168F39923B1F3552391F3951B550BAC
:10203000BB27AA2762177307840738F09F5F5F4F9B
:10204000220F331F441FAA1FA9F335D00E2E3AF0DA
:10205000E0E832D091505040E695001CCAF72BD0F2
:10206000FE2F29D0660F771F881FBB1F2617370743
:102070004807AB07B0E809F0BB0B802DBF01FF2775
:1020800093585F4F3AF09E3F510578F00C9404113D
:102090000C944F115F3FE4F3983ED4F38695779507
:1020A0006795B795F7959F5FC9F7880F911D96952E
:1020B000879597F90895E1E0660F771F881FBB1F8A
:1020C000621773078407BA0720F0621B730B840B37
:1020D000BA0BEE1F88F7E09508950E94741068947B
:1020E000B1110C944F1108950E94341188F09F573C
:1020F00098F0B92F9927B751B0F0E1F0660F771F2C
:10210000881F991F1AF0BA95C9F714C0B13091F021
:102110000E944E11B1E008950C944E11672F782F54
:102120008827B85F39F0B93FCCF3869577956795E6
:10213000B395D9F73EF490958095709561957F4F52
:102140008F4F9F4F0895E89409C097FB3EF49095F8
:102150008095709561957F4F8F4F9F4F9923A9F080
:10216000F92F96E9BB279395F6958795779567950F
:10217000B795F111F8CFFAF4BB0F11F460FF1BC053
:102180006F5F7F4F8F4F9F4F16C0882311F096E9E6
:1021900011C0772321F09EE8872F762F05C0662394
:1021A00071F096E8862F70E060E02AF09A95660F4D
:1021B000771F881FDAF7880F9695879597F9089506
:1021C000990F0008550FAA0BE0E8FEEF1616170648
:1021D000E807F907C0F012161306E407F50798F0B0
:1021E000621B730B840B950B39F40A2661F0232BC9
:1021F000242B252B21F408950A2609F4A140A69545
:102200008FEF811D811D089597F99F6780E870E029
:1022100060E008959FEF80EC089500240A9416165C
:10222000170618060906089500240A9412161306C4
:10223000140605060895092E0394000C11F4882352
:1022400052F0BB0F40F4BF2B11F460FF04C06F5F6E
:102250007F4F8F4F9F4F089557FD9058440F551F44
:1022600059F05F3F71F04795880F97FB991F61F018
:102270009F3F79F087950895121613061406551F8F
:10228000F2CF4695F1DF08C0161617061806991FFB
:10229000F1CF86957105610508940895E894BB27F0
:1022A00066277727CB0197F908950E9468110C944F
:1022B0001B110E940D1138F00E94141120F095237B
:1022C00011F00C9404110C940A1111240C944F1168
:1022D0000E942C1170F3959FC1F3950F50E0551F8C
:1022E000629FF001729FBB27F00DB11D639FAA276B
:1022F000F00DB11DAA1F649F6627B00DA11D661FBA
:10230000829F2227B00DA11D621F739FB00DA11DDA
:10231000621F839FA00D611D221F749F3327A00D94
:10232000611D231F849F600D211D822F762F6A2F30
:1023300011249F5750409AF0F1F088234AF0EE0F95
:10234000FF1FBB1F661F771F881F91505040A9F7C2
:102350009E3F510580F00C9404110C944F115F3F87
:10236000E4F3983ED4F3869577956795B795F795FE
:10237000E7959F5FC1F7FE2B880F911D9695879576
:0823800097F90895F894FFCFCE
:10238800000001010000000001000001010000023E
:102398000100010001010102010301040105010618
:1023A8000403070100010001010102010301040106
:1023B80005010601030701000200000201000202F4
:1023C800003738392F3435362A3132332D43303DF2
:1023D8002B04050607000102033F065B4F666D7D6F
:1023E800077F6F48656C6C6F2043616C63756C6127
:0A23F800746F72004572726F72007C
:00000001FF
