:100000000C942A000C9447000C9447000C94470071
:100010000C9447000C9447000C9447000C94470044
:100020000C9447000C9447000C9447000C94470034
:100030000C9447000C9447000C9447000C94470024
:100040000C9447000C9447000C9447000C94470014
:100050000C94470011241FBECFE5D8E0DEBFCDBF12
:1000600010E0A0E6B0E0E2E3F4E102C005900D92FA
:10007000AA3BB107D9F720E0AAEBB0E001C01D927E
:10008000AD3CB207E1F70E94BD070C94170A0C942F
:1000900000001092C5001092C6001092C700109286
:1000A000C8001092C1001092C2001092C3001092BA
:1000B000C4001092C0001092BC001092BD001092BB
:1000C000BE001092BF001092BB001092BA000895BB
:1000D0000E9498040E942F030E94150590E080E082
:1000E00008952F923F924F925F926F927F928F92DC
:1000F0009F92AF92BF92CF92DF92EF92FF920F93B7
:100100001F93CF93DF9300D0CDB7DEB78091BB00B4
:1001100081115BC0CE0101960E94820389818F3FCD
:10012000C9F38D3309F0FDC00E94F9048091C0002D
:100130008B3209F484C008F05FC08A3209F4B3C07E
:100140008090BC009090BD00A090BE00B090BF0019
:10015000C501B4010E94ED086B017C010E941C09DD
:100160009B01AC01C501B4010E940E0820E030E003
:100170004AE754E40E94AA090E94ED084B015C0181
:100180008FEC9AE0492E512C612C712C1FEF180F27
:1001900081149104A104B10409F098C00E940705DC
:1001A0008EE20E94F9048AE0882E912CA12CB12CB9
:1001B000C114D104E104F10409F09CC00E941B05A4
:1001C0000E94490081E08093BA0090E080E00F90A7
:1001D0000F90DF91CF911F910F91FF90EF90DF90E3
:1001E000CF90BF90AF909F908F907F906F905F90D7
:1001F0004F903F902F9008958D3209F43FC08F3279
:1002000009F09ECF6091C5007091C6008091C70033
:100210009091C8000E941C096B017C016091C10093
:100220007091C2008091C3009091C4000E941C098B
:100230009B01AC01C701B6010E947B0816C060910A
:10024000C5007091C6008091C7009091C8000091D0
:10025000C1001091C2002091C3003091C400600F12
:10026000711F821F931F0E941C096093BC00709332
:10027000BD008093BE009093BF0062CF6091C50027
:100280007091C6008091C7009091C8000091C10094
:100290001091C2002091C3003091C400601B710B0B
:1002A000820B930BE0CF2091C5003091C6004091A6
:1002B000C7005091C8006091C1007091C200809148
:1002C000C3009091C4000E94C207CDCF0E940705D1
:1002D000C501B401A30192010E94D2071901042FA4
:1002E0005A8380E3860F0E94F9044101A02EBA8050
:1002F000812F4CCF812F0E940705C701B601A501B0
:1003000094010E94D207522E632E742E052F80E393
:10031000860F0E94F904C52CD62CE72CF02E115024
:1003200047CF90ED980F9A3008F061C08091BA00E5
:10033000813021F40E9415051092BA008091C0000E
:10034000811133C08091C5009091C600A091C70073
:10035000B091C800892B8A2B8B2B11F40E941505B4
:100360002091C5003091C6004091C7005091C8004F
:10037000AAE0B0E00E94F40729812053330B8901E1
:10038000330F220B330BDC01CB01800F911FA21F17
:10039000B31F8093C5009093C600A093C700B0938D
:1003A000C80089810E94F904B1CE2091C10030912A
:1003B000C2004091C3005091C400AAE0B0E00E9486
:1003C000F40729812053330B8901330F220B330BA0
:1003D000DC01CB01800F911FA21FB31F8093C100CE
:1003E0009093C200A093C300B093C400DACF8334CB
:1003F00029F40E9415050E94490088CE0E94F90444
:100400008091BA00813021F40E9415051092BA0043
:100410001092BB0089818093C00078CE08958FEF41
:100420008ABB9CEF97BB84BB81BB1BBA18BA15BAB9
:1004300012BA81E090E00895843080F4823051F067
:10044000833051F0813021F06ABB81E090E0089563
:1004500067BBFBCF64BBF9CF61BBF7CF83E090E014
:100460000895843080F4823051F0833051F081302F
:1004700021F06BBB81E090E0089568BBFBCF65BBCA
:10048000F9CF62BBF7CF83E090E008958430C0F4E9
:10049000823071F0833081F0813031F08BB3809500
:1004A0008BBB81E090E0089588B3809588BBF9CF3D
:1004B00085B3809585BBF5CF82B3809582BBF1CFA4
:1004C00083E090E00895FB018430B8F43097C1F0E8
:1004D000823059F0833059F0813029F089B380831C
:1004E00081E090E0089586B3FACF83B3F8CF80B36C
:1004F000808382B3809582BBF3CF83E090E0089540
:1005000082E090E00895843060F5683050F5423024
:1005100040F521E030E0062E01C0220F0A94EAF7F0
:10052000209501C0440F6A95EAF7823081F083304C
:1005300099F0813039F08AB32823242B2ABB90E02C
:1005400080E0089587B32823242B27BBF8CF84B3FA
:100550002823242B24BBF3CF81B32823242B21BBB6
:10056000EECF83E090E00895843060F5683050F578
:10057000423040F521E030E0062E01C0220F0A94FF
:10058000EAF7209501C0440F6A95EAF7823081F0BE
:10059000833099F0813039F08BB32823242B2BBB87
:1005A00090E080E0089588B32823242B28BBF8CF5F
:1005B00085B32823242B25BBF3CF82B32823242BF8
:1005C00022BBEECF83E090E00895843000F56830E0
:1005D000F0F421E030E001C0220F6A95EAF78230A2
:1005E00071F0833081F0813031F08BB328272BBB41
:1005F00090E080E0089588B3282728BBF9CF85B321
:10060000282725BBF5CF82B3282722BBF1CF83E073
:1006100090E00895FA018430E0F46830D0F4309727
:10062000D9F0823091F0833091F0813061F089B35C
:1006300090E002C0959587956A95E2F78170808376
:1006400090E080E0089586B3F3CF83B3F1CF80B319
:10065000EFCF83E090E0089582E090E0089540E0DD
:1006600064E083E00E94830240E065E083E00E9452
:10067000830240E066E083E00E94830240E067E09E
:1006800083E00E94830241E060E083E00E948302F5
:1006900041E061E083E00E94830241E062E083E0A8
:1006A0000E94830241E063E083E00E94830241E014
:1006B00064E083E00E94B40241E065E083E00E94D0
:1006C000B40241E066E083E00E94B40241E067E0EA
:1006D00083E00E94B40241E060E083E00E94B40243
:1006E00041E061E083E00E94B40241E062E083E027
:1006F0000E94B40241E063E083E00E94B40290E013
:1007000080E008951F93CF93DF93EC018FEF8093E8
:10071000CC001092CB001FEFE091CB00E43030F022
:100720008091CC00888390E080E041C0F0E0E55506
:10073000FF4F40E0608183E00E94B4021092CA0043
:10074000E091CA00E43080F0E091CB00F0E0E555A4
:10075000FF4F41E0608183E00E94B4028091CB00B2
:100760008F5F8093CB00D8CFF0E0E955FF4F49EC85
:1007700050E0608183E00E940A038091C9008111EA
:1007800024C08091CA0090E02091C900222399F0F2
:100790002091CB00880F991F880F991F89569F4F72
:1007A000820F911DFC018081888381E090E0DF91C0
:1007B000CF911F91089589559F4F49EC50E0FC015E
:1007C000608183E00E940A03DCCF1093CC0080910B
:1007D000CA008F5F8093CA00B3CFCF93C82F40E089
:1007E00060E080E00E94B40240E061E080E00E94AE
:1007F000B40240E062E080E00E94B4024C2F4170FD
:1008000060E081E00E94B402C1FB442740F961E04E
:1008100081E00E94B402C2FB442740F962E081E01B
:100820000E94B402C3FB442740F963E081E00E94C8
:10083000B402C4FB442740F964E081E00E94B402A2
:100840004C2F42954695477065E081E00E94B402C6
:1008500040E066E081E00E94B40240E067E081E0B1
:100860000E94B40241E062E080E00E94B4028FE1A5
:100870009EE40197F1F700C0000040E062E080E0F4
:10088000CF910C94B402CF93C82F40E061E080E098
:100890000E94B40240E062E080E00E94B402C4FB27
:1008A000442740F964E081E00E94B402C5FB44277C
:1008B00040F965E081E00E94B402C6FB442740F99C
:1008C00066E081E00E94B4024C2F441F4427441F7D
:1008D00067E081E00E94B4024C2F417060E081E04B
:1008E0000E94B402C1FB442740F961E081E00E940C
:1008F000B402C2FB442740F962E081E00E94B402E6
:10090000C3FB442740F963E081E00E94B40241E068
:1009100062E080E00E94B4028FE19EE40197F1F76B
:1009200000C0000040E062E080E0CF910C94B4028F
:1009300041E060E080E00E94830241E061E080E00D
:100940000E94830241E062E080E00E94830241E075
:1009500064E081E00E94830241E065E081E00E9462
:10096000830241E066E081E00E94830241E067E0AB
:1009700081E00E9483022FEB8AED90E021508040BD
:100980009040E1F700C0000041E060E081E00E949B
:10099000830241E061E081E00E94830241E062E085
:1009A00081E00E94830241E063E081E00E948302D3
:1009B00088E30E94ED038FEC97E00197F1F700C008
:1009C00000008FE00E94ED038FEC97E00197F1F7B4
:1009D00000C0000081E00E94ED038FE99FE00197D5
:1009E000F1F700C0000086E00E94ED0390E080E097
:1009F0000895CF93C82F41E060E080E00E94B402E8
:100A00008C2F0E94430490E080E0CF910895CF9313
:100A1000C82F40E060E080E00E94B4028C2F0E946A
:100A2000430490E080E0CF91089581E00E94ED03BF
:100A300090E080E0089582E00E94ED0390E080E085
:100A400008950F931F93CF93DF93009759F1EC0113
:100A50008C01085F1F4F4B81698188810E94B4021D
:100A60008A81811115C08B81813011F440E003C06F
:100A7000811115C041E0698188810E94B4022496E9
:100A8000C017D10741F7DF91CF911F910F910895C2
:100A9000813029F48B81813069F3882339F383E035
:100AA00090E0EDCF82E090E0EECFFC01892B59F091
:100AB000828140E0882319F0813041F441E0618176
:100AC00080810C94B40282E090E0089583E090E08D
:100AD0000895FC01892B59F0828141E0882319F0A7
:100AE000813041F440E0618180810C94B40282E065
:100AF00090E0089583E090E008950F931F93CF93C3
:100B0000DF93009709F444C0EC018C010A5D1F4F8C
:100B100041E0698188810E94830241E06B818A8182
:100B20000E94830241E06D818C810E94830241E03A
:100B30006F818E810E94830241E0698588850E94D1
:100B4000830241E06B858A850E94830241E06D85C6
:100B50008C850E9483022F85222339F06E856623BF
:100B600021F041E0822F0E9483022989222339F05B
:100B70006889662321F041E0822F0E9483026396F8
:100B8000C017D10729F6DF91CF911F910F910895DA
:100B900090E080E0F8CF0F931F93CF93DF936A30FC
:100BA00008F0D7C0823008F0D4C0E62F082F10E03C
:100BB00093E1899FE0011124C859DF4F8A8981118F
:100BC00038C0F0E0E155FF4F1081412F417069813D
:100BD00088810E94B40211FB442740F96B818A810D
:100BE0000E94B40212FB442740F96D818C810E945F
:100BF000B40213FB442740F96F818E810E94B40236
:100C000014FB442740F9698588850E94B40215FBCE
:100C1000442740F96B858A850E94B40216FB44275D
:100C200040F96D858C85DF91CF911F910F910C94C8
:100C3000B402813009F094C0F0E0E155FF4FC0816B
:100C400041E0C11140E083E1809FF001819FF00D00
:100C50001124E859FF4F618180810E94B40241E074
:100C60008C2F869509F040E083E1809FF001819F01
:100C7000F00D1124E859FF4F638182810E94B40274
:100C800041E08C2F8695869509F040E083E1809FB6
:100C9000F001819FF00D1124E859FF4F6581848197
:100CA0000E94B40241E08C2F86958695869509F0C6
:100CB00040E083E1809FF001819FF00D1124E8590D
:100CC000FF4F678186810E94B40241E08C2F82959C
:100CD0008F7009F040E083E1809FF001819FF00D6B
:100CE0001124E859FF4F618580850E94B40241E0DC
:100CF0008C2F82958695877009F040E083E1809F74
:100D0000F001819FF00D1124E859FF4F6385828522
:100D10000E94B40241E08C2F82958695869583705F
:100D200009F040E023E1209FC001219F900D112494
:100D30008C0108591F4FF801658584850E94B40213
:100D40004C2F4095441F4427441FF8016089818936
:100D50006ACF83E090E0DF91CF911F910F910895CA
:100D600084E090E0F8CF823098F493E1899FF0011D
:100D70001124E859FF4F6685662351F0828941E0CE
:100D8000882319F0813039F440E087850C94B4024F
:100D900083E090E0089584E090E00895823098F434
:100DA00093E1899FF0011124E859FF4F668566237E
:100DB00051F0828940E0882319F0813039F441E014
:100DC00087850C94B40283E090E0089584E090E07D
:100DD0000895823098F493E1899FF0011124E85935
:100DE000FF4F6089662351F0828941E0882319F022
:100DF000813039F440E081890C94B40283E090E0C2
:100E0000089584E090E00895823098F493E1899FFA
:100E1000F0011124E859FF4F6089662351F082895F
:100E200040E0882319F0813039F441E081890C9445
:100E3000B40283E090E0089584E090E00895CF93B9
:100E4000DF93823008F066C093E1899FE0011124AE
:100E5000C859DF4F8A8981112AC040E069818881A1
:100E60000E94B40240E06B818A810E94B40240E09B
:100E70006D818C810E94B40240E06F818E810E945E
:100E8000B40240E0698588850E94B40240E06B8529
:100E90008A850E94B40240E06D858C850E94B40270
:100EA000688940E0611131C0DF91CF9108958130B0
:100EB000A1F541E0698188810E94B40241E06B8123
:100EC0008A810E94B40241E06D818C810E94B4024B
:100ED00041E06F818E810E94B40241E0698588857E
:100EE0000E94B40241E06B858A850E94B40241E011
:100EF0006D858C850E94B40241E0688989890E94D1
:100F0000B4026889662381F241E08989DF91CF913B
:100F10000C94B40283E090E0C7CF84E090E0C4CFAB
:100F20000F931F93CF93DF930097B9F0EC018C01DF
:100F3000075F1F4F40E0698188810E9483024A81D8
:100F4000698188810E94B4022396C017D10791F766
:100F5000DF91CF911F910F91089582E090E0F8CF3B
:100F6000AB01009739F0672B29F0FC01618180818A
:100F70000C940A0382E090E008950E9468000E94A9
:100F80007100FDCFDB018F939F930E94F407BF9107
:100F9000AF91A29F800D911DA39F900DB29F900DC8
:100FA00011240895A1E21A2EAA1BBB1BFD010DC03E
:100FB000AA1FBB1FEE1FFF1FA217B307E407F50709
:100FC00020F0A21BB30BE40BF50B661F771F881FE5
:100FD000991F1A9469F760957095809590959B017B
:100FE000AC01BD01CF0108950E94FF07A59F900DA0
:100FF000B49F900DA49F800D911D11240895A29F70
:10100000B001B39FC001A39F700D811D1124911DDC
:10101000B29F700D811D1124911D08955058BB275A
:10102000AA270E9426080C9470090E94620938F0D1
:101030000E94690920F039F49F3F19F426F40C94BA
:101040005F090EF4E095E7FB0C945909E92F0E9423
:10105000810958F3BA17620773078407950720F0D0
:1010600079F4A6F50C94A3090EF4E0950B2EBA2F93
:10107000A02D0B01B90190010C01CA01A00111249E
:10108000FF27591B99F0593F50F4503E68F11A164A
:10109000F040A22F232F342F4427585FF3CF4695DB
:1010A00037952795A795F0405395C9F77EF41F16FD
:1010B000BA0B620B730B840BBAF09150A1F0FF0FC7
:1010C000BB1F661F771F881FC2F70EC0BA0F621FB3
:1010D000731F841F48F4879577956795B795F795A3
:1010E0009E3F08F0B0CF9395880F08F09927EE0F38
:1010F0009795879508950E948F080C9470090E9417
:10110000690958F00E94620940F029F45F3F29F014
:101110000C94590951110C94A4090C945F090E9474
:10112000810968F39923B1F3552391F3951B550B6E
:10113000BB27AA2762177307840738F09F5F5F4FAA
:10114000220F331F441FAA1FA9F335D00E2E3AF0E9
:10115000E0E832D091505040E695001CCAF72BD001
:10116000FE2F29D0660F771F881FBB1F2617370752
:101170004807AB07B0E809F0BB0B802DBF01FF2784
:1011800093585F4F3AF09E3F510578F00C945909FF
:101190000C94A4095F3FE4F3983ED4F386957795C9
:1011A0006795B795F7959F5FC9F7880F911D96953D
:1011B000879597F90895E1E0660F771F881FBB1F99
:1011C000621773078407BA0720F0621B730B840B46
:1011D000BA0BEE1F88F7E09508950E94890988F000
:1011E0009F5798F0B92F9927B751B0F0E1F0660FEB
:1011F000771F881F991F1AF0BA95C9F714C0B1302C
:1012000091F00E94A309B1E008950C94A309672FFF
:10121000782F8827B85F39F0B93FCCF3869577955A
:101220006795B395D9F73EF4909580957095619543
:101230007F4F8F4F9F4F0895E89409C097FB3EF46E
:1012400090958095709561957F4F8F4F9F4F992313
:10125000A9F0F92F96E9BB279395F6958795779591
:101260006795B795F111F8CFFAF4BB0F11F460FF51
:101270001BC06F5F7F4F8F4F9F4F16C0882311F0A9
:1012800096E911C0772321F09EE8872F762F05C0BD
:10129000662371F096E8862F70E060E02AF09A9558
:1012A000660F771F881FDAF7880F9695879597F94D
:1012B000089597F99F6780E870E060E008959FEFD8
:1012C00080EC089500240A941616170618060906DD
:1012D000089500240A9412161306140605060895AC
:1012E000092E0394000C11F4882352F0BB0F40F434
:1012F000BF2B11F460FF04C06F5F7F4F8F4F9F4F74
:10130000089557FD9058440F551F59F05F3F71F0F5
:101310004795880F97FB991F61F09F3F79F087955C
:101320000895121613061406551FF2CF4695F1DFE5
:1013300008C0161617061806991FF1CF8695710575
:10134000610508940895E894BB2766277727CB01A9
:1013500097F908950E94BD090C9470090E946209D2
:1013600038F00E94690920F0952311F00C94590976
:101370000C945F0911240C94A4090E94810970F354
:10138000959FC1F3950F50E0551F629FF001729F2A
:10139000BB27F00DB11D639FAA27F00DB11DAA1F39
:1013A000649F6627B00DA11D661F829F2227B00D86
:1013B000A11D621F739FB00DA11D621F839FA00D11
:1013C000611D221F749F3327A00D611D231F849F61
:1013D000600D211D822F762F6A2F11249F575040B8
:1013E0009AF0F1F088234AF0EE0FFF1FBB1F661F33
:1013F000771F881F91505040A9F79E3F510580F0FC
:101400000C9459090C94A4095F3FE4F3983ED4F37B
:10141000869577956795B795F795E7959F5FC1F79F
:10142000FE2B880F911D9695879597F90895F8944E
:02143000FFCFEC
:1014320000000100000101000000000100020003A1
:10144200000400050006000207000001000101017E
:101452000201030104010501060002070100020066
:10146200010201010202013738392F3435362A319F
:1014720032332D43303D2B04050607000102033FA2
:0A148200065B4F666D7D077F6F006B
:00000001FF
