:100000000C942A000C942F060C945C060C94890620
:100010000C9447000C9447000C94E1080C940E09D2
:100020000C9418090C9422090C9458080C94850817
:100030000C9447000C9447000C9447000C94470024
:100040000C949D030C9447000C9447000C944700BB
:100050000C94470011241FBECFE5D8E0DEBFCDBF12
:1000600010E0A0E6B0E0E8EAF2E202C005900D92EE
:10007000AA3DB107D9F721E0AAEDB0E001C01D9279
:10008000A931B207E1F70E94670E0C9452110C944B
:1000900000001092E5001092E6001092E700109226
:1000A000E8001092E1001092E2001092E30010923A
:1000B000E4001092E0001092DC001092DD0010923B
:1000C000DE001092DF001092DB001092DA0008953B
:1000D000CF930E94B10A0E9441090E948F0B0E9497
:1000E000950BC0E0EC2FF0E0ED53FF4F80818111C4
:1000F0000FC02FEF89E698E1215080409040E1F752
:1001000000C000000E948F0B81E090E0CF91089525
:100110000E94120BCF5FE6CF2F923F924F925F92D9
:100120006F927F928F929F92AF92BF92CF92DF9207
:10013000EF92FF920F931F93CF93DF931F92CDB750
:10014000DEB7B12CA12C1091DB001111A2C0CE01A1
:1001500001960E94940989818F3FC9F38D3309F07C
:100160004DC10E94120B5C018091E0008B3209F4BA
:10017000C9C008F0A3C08A3209F4F8C0C090DC00FE
:10018000D090DD00E090DE00F090DF00C701B60106
:100190000E9404100E9433109B01AC01C701B601FC
:1001A0000E94190F20E030E04AE754E40E94E51075
:1001B0000E9404102B013C01C701B6010E94FD0FF3
:1001C0006B017C011FEC411451046104710429F19D
:1001D000812F0E94810BC301B2012AE030E040E090
:1001E00050E00E94A40E022F932E842E352E80E321
:1001F000860F0E94120B402E592C682C732C8FEF07
:10020000810F411451046104710409F0D9C00E94A6
:10021000810B8EE20E94120B12509AE0492E512C53
:10022000612C712CF7FEE4C0F094E094D094C0945B
:10023000C11CD11CE11CF11C8AE0282E312C412C60
:10024000512C812F0E94810BC701B601A20191019F
:100250000E94C60E722E832E942E052F80E3860FE9
:100260000E94120BC72CD82CE92CF02E1150C1146F
:10027000D104E104F10429F7812F0E94810B8DE262
:100280000E94120B0E94950B0E94490081E080930E
:10029000DA00C5010F90DF91CF911F910F91FF9070
:1002A000EF90DF90CF90BF90AF909F908F907F9016
:1002B0006F905F904F903F902F9008958D3209F48A
:1002C00040C08F3209F05ACFC090E100D090E200D8
:1002D000E090E300F090E400C114D104E104F104E3
:1002E00009F057C00E948F0B0E94950BE12FF0E0A0
:1002F000EC52FF4F8081882309F440CF0E94120BFB
:100300001F5FF4CF6091E5007091E6008091E700F7
:100310009091E8000091E1001091E2002091E3004B
:100320003091E400600F711F821F931F0E943510EF
:100330006093DC007093DD008093DE009093DF001B
:100340001DCF6091E5007091E6008091E7009091EB
:10035000E8000091E1001091E2002091E30030916B
:10036000E400601B710B820B930BE0CF2091E50042
:100370003091E6004091E7005091E8006091E10083
:100380007091E2008091E3009091E4000E94800E61
:10039000CDCF6091E5007091E6008091E7009091EB
:1003A000E8000E9435102B013C01C701B6010E94F4
:1003B00035109B01AC01C301B2010E948B0FB8CF75
:1003C000182F06CF812F0E94810BC701B601A30110
:1003D00092010E94C60E322E832E942E052F80E3AA
:1003E000860F0E94120BC32CD82CE92CF02E115032
:1003F000C114D104E104F10429F744CF90ED980F22
:100400009A3008F062C08091DA00813021F40E94B5
:100410008F0B1092DA008091E000811134C080913E
:10042000E5009091E600A091E700B091E800892BEB
:100430008A2B8B2B11F40E948F0B2091E5003091B9
:10044000E6004091E7005091E800AAE0B0E00E9489
:10045000EB0E29812053330B8901330F220B330B11
:10046000DC01CB01800F911FA21FB31F8093E50019
:100470009093E600A093E700B093E80089810E9482
:10048000120B5C0160CE2091E1003091E2004091BE
:10049000E3005091E400AAE0B0E00E94EB0E298155
:1004A0002053330B8901330F220B330BDC01CB01BB
:1004B000800F911FA21FB31F8093E1009093E20071
:1004C000A093E300B093E400D9CF833431F40E94C9
:1004D0008F0B5C010E94490036CE0E94120B5C011A
:1004E0008091DA00813021F40E948F0B1092DA00A3
:1004F0001092DB0089818093E00025CE089587B1BA
:100500008F73806287B986B1876086B990E080E09A
:1005100008959091E900911127C091E09093E9002E
:100520008830F8F497B1907E892B87B981E090E00C
:1005300026B1206526B924B12295269526952370EB
:1005400030E0FB013183208345B1F4E04F9FA001EF
:100550001124242B352BFB01318320831092E900D9
:10056000089583E090E0E4CF85E090E008959091D5
:10057000E90091111EC08830F8F441155105F9F0D9
:1005800091E09093E9007093F0006093EF00509336
:10059000F4004093F3003093F2002093F10097B100
:1005A000907E892B87B986B1886486B981E090E016
:1005B000089585E090E0089583E090E0089582E05A
:1005C00090E00895FC018091E900811127C081E04D
:1005D0008093E9008093ED0082E090E041155105A1
:1005E00011F090E080E070817830D8F45093F400FE
:1005F0004093F3003093F2002093F1006093EC00FD
:10060000F093EB00E093EA0027B1207E27B9308118
:10061000232B27B926B1286426B9089590E080E0FD
:10062000089583E090E00895369A90E080E0089580
:1006300086B1982F92959F7009F4FFCF806186B99B
:1006400090E080E0089525B1FC01208390E080E0F7
:10065000089524B1229526952695237030E0FC015B
:100660003183208345B1F4E04F9FA0011124242B56
:10067000352BFC013183208390E080E008950097C2
:1006800059F09093F4008093F3007093F20060931C
:10069000F10090E080E0089582E090E00895379ABC
:1006A00090E080E00895379890E080E00895339AD4
:1006B00090E080E00895339890E080E008958830DD
:1006C00038F497B1907E892B87B981E090E0089546
:1006D00083E090E00895359A883040F5E82FF0E007
:1006E000EB58FC4F90B70C94E50E7D038203850315
:1006F00088038B038E03910394039F7190BF90E056
:1007000080E008959F739062F9CF9F759064F6CF53
:100710009F779066F3CF9F799068F0CF9F7B906A28
:10072000EDCF9F7D906CEACF906EE8CF83E090E0B4
:100730000895359890E080E008951F920F920FB6CB
:100740000F9211242F933F934F935F936F937F9357
:100750008F939F93AF93BF93EF93FF938091ED009F
:10076000813009F057C08091EE009091EC0089171C
:10077000E0F52091EA003091EB0093E0F901899FC8
:10078000E00DF11D11240180F281E02D45B140837F
:100790008F5F8093EE00899F200D311D1124F90198
:1007A0008081883088F487B1807E87B92091EE00FF
:1007B000E091EA00F091EB00299FE00DF11D11247A
:1007C0009081892B87B9369AFF91EF91BF91AF91B4
:1007D0009F918F917F916F915F914F913F912F9159
:1007E0000F900FBE0F901F9018958913EDCFE091D9
:1007F000F300F091F400309739F38091F10090917B
:10080000F2000995349A1092E9001092EE001092CD
:10081000ED00DACFE091F300F091F4003097A1F20F
:1008200085B1A091EF00B091F0008C938091F10020
:100830009091F2000995349A1092E900C5CF8FEF9C
:100840008ABB9CEF97BB84BB81BB1BBA18BA15BA95
:1008500012BA81E090E00895843080F4823051F043
:10086000833051F0813021F06ABB81E090E008953F
:1008700067BBFBCF64BBF9CF61BBF7CF83E090E0F0
:100880000895843080F4823051F0833051F081300B
:1008900021F06BBB81E090E0089568BBFBCF65BBA6
:1008A000F9CF62BBF7CF83E090E008958430C0F4C5
:1008B000823071F0833081F0813031F08BB38095DC
:1008C0008BBB81E090E0089588B3809588BBF9CF19
:1008D00085B3809585BBF5CF82B3809582BBF1CF80
:1008E00083E090E00895FB018430B8F43097C1F0C4
:1008F000823059F0833059F0813029F089B38083F8
:1009000081E090E0089586B3FACF83B3F8CF80B347
:10091000808382B3809582BBF3CF83E090E008951B
:1009200082E090E00895843060F5683050F5423000
:1009300040F521E030E0062E01C0220F0A94EAF7CC
:10094000209501C0440F6A95EAF7823081F0833028
:1009500099F0813039F08AB32823242B2ABB90E008
:1009600080E0089587B32823242B27BBF8CF84B3D6
:100970002823242B24BBF3CF81B32823242B21BB92
:10098000EECF83E090E00895843060F5683050F554
:10099000423040F521E030E0062E01C0220F0A94DB
:1009A000EAF7209501C0440F6A95EAF7823081F09A
:1009B000833099F0813039F08BB32823242B2BBB63
:1009C00090E080E0089588B32823242B28BBF8CF3B
:1009D00085B32823242B25BBF3CF82B32823242BD4
:1009E00022BBEECF83E090E00895843000F56830BC
:1009F000F0F421E030E001C0220F6A95EAF782307E
:100A000071F0833081F0813031F08BB328272BBB1C
:100A100090E080E0089588B3282728BBF9CF85B3FC
:100A2000282725BBF5CF82B3282722BBF1CF83E04F
:100A300090E00895FA018430E0F46830D0F4309703
:100A4000D9F0823091F0833091F0813061F089B338
:100A500090E002C0959587956A95E2F78170808352
:100A600090E080E0089586B3F3CF83B3F1CF80B3F5
:100A7000EFCF83E090E0089582E090E00895009742
:100A800009F460C0FC0180E09081913081F49BB753
:100A9000813051F1823009F446C090649BBF91814E
:100AA000913099F058F0923099F09330B9F08F5F0F
:100AB0003296833049F790E080E0089595B79E7FA5
:100AC00095BF95B7926095BFF2CF95B79160F8CF7B
:100AD00095B7916095BF95B79D7FF5CF95B79D7FF1
:100AE00095BF95B79E7FEFCF90689BBF9181913066
:100AF00071F038F0923089F09330C9F695B7977F4E
:100B000002C095B7986095BF95B79B7FDCCF95B72E
:100B1000946095BF95B79860D6CF95B7977F95BFEE
:100B200095B79460D0CF90629BBF9181992331F0AB
:100B3000913009F0BCCF94B7906402C094B79F7B0A
:100B400094BFB5CF82E090E00895833080F4813087
:100B500041F0823049F08BB780648BBF90E080E039
:100B600008958BB78068F9CF8BB78062F6CF83E0AA
:100B700090E00895833080F4813041F0823049F074
:100B80008BB78F7B8BBF90E080E008958BB78F771A
:100B9000F9CF8BB78F7DF6CF83E090E00895643076
:100BA00038F4843028F48130F9F028F08230A1F153
:100BB00090E080E0089585B7623079F0633091F07D
:100BC000613029F0826085BF85B78E7F04C0816067
:100BD00085BF85B7826085BFEBCF8D7F85BF85B729
:100BE0008160F9CF8D7FEFCF85B7623071F06330D0
:100BF00089F0613029F0886085BF85B78B7FEBCFA6
:100C0000846085BF85B78860E6CF877F85BF85B75D
:100C10008460E1CF877FF0CF662329F0613041F611
:100C200084B7806402C084B78F7B84BFC1CF833018
:100C300098F46115710569F090E0880F991FFC0127
:100C4000E550FF4F718360838B509F4FFC015183B0
:100C5000408390E080E0089583E090E008951F9243
:100C60000F920FB60F9211242F933F934F935F93E0
:100C70006F937F938F939F93AF93BF93EF93FF9364
:100C80008091F5009091F600009729F0E091FB002B
:100C9000F091FC000995FF91EF91BF91AF919F9169
:100CA0008F917F916F915F914F913F912F910F9015
:100CB0000FBE0F901F9018951F920F920FB60F92B4
:100CC00011242F933F934F935F936F937F938F9351
:100CD0009F93AF93BF93EF93FF93E091FD00F0914B
:100CE000FE00309729F08091F7009091F800099567
:100CF000FF91EF91BF91AF919F918F917F916F91F4
:100D00005F914F913F912F910F900FBE0F901F90C9
:100D100018951F920F920FB60F9211242F933F93A5
:100D20004F935F936F937F938F939F93AF93BF93F3
:100D3000EF93FF93E091FF00F0910001309729F0CD
:100D40008091F9009091FA000995FF91EF91BF9180
:100D5000AF919F918F917F916F915F914F913F9153
:100D60002F910F900FBE0F901F9018958FB780682E
:100D70008FBF81E090E008958FB78F778FBF81E0BC
:100D800090E0089583B78F7E83BF83B78F7D83BF45
:100D900083B7806483BF83B7886083BF83B7806273
:100DA00083BF83B78F7E83BF89B78D7F89BF89B7A4
:100DB0008E7F89BF83B78E7F83BF83B7826083BFF7
:100DC00083B78B7F83BF90E080E008958FB58E7FDF
:100DD0008FBD8FB58D7F8FBD8EB5877F8EBD8EB554
:100DE0008F7E8EBD8FB58F7B8FBD8FB58F778FBD7B
:100DF0008EB58E7F8EBD8EB582608EBD8EB58B7F9B
:100E00008EBD90E080E008958F929F92AF92BF9246
:100E1000CF92DF92EF92FF9229B72E7F29BF0E94D7
:100E200033102DEB37E346E859E30E948B0F4B015B
:100E30005C010E9404106B017C010E9433109B0135
:100E4000AC01C501B4010E94190F4B015C0120E007
:100E500030E0A9010E94860F8823A1F1A501940129
:100E600060E070E080E89FE30E94190F20E030E02E
:100E700040E853E40E94E5100E94041062BF8FEF27
:100E8000C816D806E806F80659F490E080E0FF900E
:100E9000EF90DF90CF90BF90AF909F908F9008958C
:100EA00008B600FEFDCF88B7816088BF81E0C81A10
:100EB000D108E108F108E3CF08B600FEFDCF88B7FE
:100EC000816088BFC114D104E104F104A9F7DDCF2A
:100ED0008F929F92AF92BF92CF92DF92EF92FF924A
:100EE000CF93DF93C2E0D0E04115510551F050930C
:100EF0001401409313013093100120930F01C1E0BE
:100F0000D0E00E9433102DEB37E346E859E30E940E
:100F10008B0F4B015C010E9404106B017C010E944D
:100F200033109B01AC01C501B4010E94190F4B01A4
:100F30005C0120E030E0A9010E94860F8823C9F1FE
:100F4000A501940160E070E080E89FE30E94190F22
:100F500020E030E040E853E40E94E5100E940410D5
:100F60008FEFC81AD80AE80AF80AC0920901D0928D
:100F70000A01E0920B01F0920C01862F90E0B0E0A4
:100F8000A0E08093050190930601A0930701B09320
:100F9000080162BF89B7816089BFCE01DF91CF911F
:100FA000FF90EF90DF90CF90BF90AF909F908F9089
:100FB0000895C0920901D0920A01E0920B01F092CB
:100FC0000C01E8CF009759F090931401809313011E
:100FD0007093100160930F0181E090E0089582E02A
:100FE00090E00895892B19F081E090E0089582E067
:100FF00090E00895982F80E064E670E00E94900EE3
:101000006CBF81E090E008959DBD8CBD81E090E0D3
:101010000895009741F02CB53DB5FC013183208344
:1010200081E090E0089582E090E008958EB58064BC
:101030008EBD89B7806289BF90E080E008958230DC
:1010400058F4811106C08EB580648EBD90E080E0BA
:1010500008958EB58F7BF9CF83E090E0089589B72E
:10106000806289BF81E090E0089589B78F7D89BF54
:1010700081E090E00895009759F0909312018093D9
:10108000110170930E0160930D0181E090E00895CD
:1010900082E090E00895009741F026B537B5FC0155
:1010A0003183208381E090E0089582E090E008950C
:1010B0001F920F920FB60F9211242F933F934F93CD
:1010C0005F936F937F938F939F93AF93BF93EF93B0
:1010D000FF93E0911301F0911401309729F0809172
:1010E0000F01909110010995FF91EF91BF91AF9180
:1010F0009F918F917F916F915F914F913F912F9130
:101100000F900FBE0F901F9018951F920F920FB661
:101110000F9211242F933F934F935F936F937F937D
:101120008F939F93AF93BF93EF93FF93809113019E
:1011300090911401892BA1F18091010190910201FC
:10114000A0910301B09104010196A11DB11D8093EE
:10115000010190930201A0930301B0930401409117
:10116000090150910A0160910B0170910C018417E3
:101170009507A607B707A1F48091050182BFE0910A
:101180001301F091140180910F01909110010995C4
:1011900010920101109202011092030110920401B9
:1011A000FF91EF91BF91AF919F918F917F916F913F
:1011B0005F914F913F912F910F900FBE0F901F9015
:1011C00018951F920F920FB60F9211242F933F93F1
:1011D0004F935F936F937F938F939F93AF93BF933F
:1011E000EF93FF93E0911101F0911201309729F0F4
:1011F00080910D0190910E010995FF91EF91BF91A2
:10120000AF919F918F917F916F915F914F913F919E
:101210002F910F900FBE0F901F9018951F920F9255
:101220000FB60F9211240F900FBE0F901F901895BC
:101230001F920F920FB60F9211240F900FBE0F90B6
:101240001F9018951F920F920FB60F9211240F90B6
:101250000FBE0F901F90189581B5886081BD81E009
:1012600090E0089588E181BD11BC81E090E008958F
:1012700091B5987F91BD91B5892B81BD81E090E0BA
:10128000089540E064E083E00E94930440E065E05C
:1012900083E00E94930440E066E083E00E949304B0
:1012A00040E067E083E00E94930441E060E083E077
:1012B0000E94930441E061E083E00E94930441E0D6
:1012C00062E083E00E94930441E063E083E00E94D7
:1012D000930441E064E083E00E94C40441E065E0DF
:1012E00083E00E94C40441E066E083E00E94C404FD
:1012F00041E067E083E00E94C40441E060E083E0F5
:101300000E94C40441E061E083E00E94C40441E023
:1013100062E083E00E94C40441E063E083E00E9455
:10132000C40490E080E008951F93CF93DF93EC0115
:101330008FEF80931801109217011FEFE0911701B2
:10134000E43030F080911801888390E080E041C063
:10135000F0E0EB54FF4F40E0608183E00E94C40462
:1013600010921601E0911601E43080F0E09117012F
:10137000F0E0EB54FF4F41E0608183E00E94C40441
:10138000809117018F5F80931701D8CFF0E0EF5461
:10139000FF4F45E151E0608183E00E941A05809192
:1013A0001501811124C08091160190E02091150152
:1013B000222399F020911701880F991F880F991FF8
:1013C0008F559F4F820F911DFC018081888381E0A2
:1013D00090E0DF91CF911F9108958F549F4F45E189
:1013E00051E0FC01608183E00E941A05DCCF10937C
:1013F0001801809116018F5F80931601B3CFCF93B0
:10140000C82F40E067E080E00E94C40440E066E04E
:1014100080E00E94C40440E065E080E00E94C404D3
:101420004C2F417060E082E00E94C404C1FB44275D
:1014300040F961E082E00E94C404C2FB442740F905
:1014400062E082E00E94C404C3FB442740F963E0E9
:1014500082E00E94C404C4FB442740F964E082E0B7
:101460000E94C4044C2F42954695477065E082E087
:101470000E94C40440E066E082E00E94C40440E0B0
:1014800067E082E00E94C40441E065E080E00E94E1
:10149000C4048FE19EE40197F1F700C0000040E032
:1014A00065E080E0CF910C94C404CF93C82F40E056
:1014B00066E080E00E94C40440E065E080E00E94B5
:1014C000C404C4FB442740F964E082E00E94C404E1
:1014D000C5FB442740F965E082E00E94C404C6FBD6
:1014E000442740F966E082E00E94C4044C2F441F68
:1014F0004427441F67E082E00E94C4044C2F4170DF
:1015000060E082E00E94C404C1FB442740F961E02E
:1015100082E00E94C404C2FB442740F962E082E0FA
:101520000E94C404C3FB442740F963E082E00E94A8
:10153000C40441E065E080E00E94C4048FE19EE4C1
:101540000197F1F700C0000040E065E080E00E94F4
:10155000C4048FE19EE40197F1F700C00000CF9131
:10156000089541E067E080E00E94930441E066E076
:1015700080E00E94930441E065E080E00E949304D3
:1015800041E064E082E00E94930441E065E082E093
:101590000E94930441E066E082E00E94930441E0EF
:1015A00067E082E00E9493042FEB8AED90E02150E7
:1015B00080409040E1F700C0000041E060E082E040
:1015C0000E94930441E061E082E00E94930441E0C4
:1015D00062E082E00E94930441E063E082E00E94C6
:1015E000930488E30E94FF098FEC97E00197F1F7DD
:1015F00000C000008FE00E94FF098FEC97E0019788
:10160000F1F700C0000081E00E94FF098FE99FE030
:101610000197F1F700C0000086E00E94FF0990E00A
:1016200080E00895CF93C82F41E067E080E00E94FA
:10163000C4048C2F0E94550A90E080E0CF91089559
:101640004F925F926F927F928F929F92AF92BF92D2
:10165000DF92EF92FF920F931F93CF93DF93CDB75B
:10166000DEB72A970FB6F894DEBF0FBECDBF4B0191
:101670005C0141E067E080E00E94C404D12CCE010F
:1016800001967C018AE0482E512C612C712C0D2D85
:1016900010E00E0D1F1D81149104A104B104F9F492
:1016A00001501109C8018E199F09019621F590E09A
:1016B00080E02A960FB6F894DEBF0FBECDBFDF9153
:1016C000CF911F910F91FF90EF90DF90BF90AF905F
:1016D0009F908F907F906F905F904F900895C5017D
:1016E000B401A30192010E94C60EF8016083D39455
:1016F00049015A01CCCFF8018081805D0E94550AD2
:10170000CFCFCF93C82F40E067E080E00E94C404B1
:101710008C2F0E94550A90E080E0CF91089581E0DF
:101720000E94FF0990E080E0089582E00E94FF0996
:1017300090E080E008950F931F93CF93DF9300977D
:1017400059F1EC018C01045F1F4F4B816981888145
:101750000E94C4048A81811115C08B81813011F4EB
:1017600040E003C0811115C041E0698188810E9479
:10177000C4042496C017D10741F7DF91CF911F9180
:101780000F910895813029F48B81813069F388238A
:1017900039F383E090E0EDCF82E090E0EECFFC0102
:1017A000892B59F0828140E0882319F0813041F47F
:1017B00041E0618180810C94C40482E090E008954E
:1017C00083E090E00895FC01892B59F0828141E08B
:1017D000882319F0813041F440E0618180810C94CC
:1017E000C40482E090E0089583E090E008950E94B0
:1017F0004F030C947F020F931F93CF93DF9300D07E
:10180000CDB7DEB71A8219820097F1F08C01BE01C4
:101810006F5F7F4F80E00E94890269817A8144EF87
:1018200051E0649F9001659F300D749F300D11242D
:10183000232F26952695F80120830F900F90DF9196
:10184000CF911F910F91089582E090E0F6CF0F9312
:101850001F93CF93DF93009709F444C0EC018C01F0
:101860000A5D1F4F41E0698188810E94930441E035
:101870006B818A810E94930441E06D818C810E947A
:10188000930441E06F818E810E94930441E0698559
:1018900088850E94930441E06B858A850E949304A9
:1018A00041E06D858C850E9493042F85222339F0B9
:1018B0006E85662321F041E0822F0E9493042989DE
:1018C000222339F06889662321F041E0822F0E94AB
:1018D00093046396C017D10729F6DF91CF911F912A
:1018E0000F91089590E080E0F8CF0F931F93CF936E
:1018F000DF936A3008F0D7C0823008F0D4C0E62FFA
:10190000082F10E093E1899FE0011124CE58DF4FAA
:101910008A89811138C0F0E0E754FF4F1081412FD0
:101920004170698188810E94C40411FB442740F9F9
:101930006B818A810E94C40412FB442740F96D81A7
:101940008C810E94C40413FB442740F96F818E816F
:101950000E94C40414FB442740F9698588850E94CD
:10196000C40415FB442740F96B858A850E94C40492
:1019700016FB442740F96D858C85DF91CF911F912F
:101980000F910C94C404813009F094C0F0E0E75446
:10199000FF4FC08141E0C11140E083E1809FF00131
:1019A000819FF00D1124EE58FF4F618180810E94CC
:1019B000C40441E08C2F869509F040E083E1809FCC
:1019C000F001819FF00D1124EE58FF4F6381828159
:1019D0000E94C40441E08C2F8695869509F040E072
:1019E00083E1809FF001819FF00D1124EE58FF4F9D
:1019F000658184810E94C40441E08C2F8695869580
:101A0000869509F040E083E1809FF001819FF00D11
:101A10001124EE58FF4F678186810E94C40441E083
:101A20008C2F82958F7009F040E083E1809FF00158
:101A3000819FF00D1124EE58FF4F618580850E9433
:101A4000C40441E08C2F82958695877009F040E0B0
:101A500083E1809FF001819FF00D1124EE58FF4F2C
:101A6000638582850E94C40441E08C2F829586950F
:101A70008695837009F040E023E1209FC001219FFB
:101A8000900D11248C010E581F4FF8016585848537
:101A90000E94C4044C2F4095441F4427441FF80162
:101AA000608981896ACF83E090E0DF91CF911F91B7
:101AB0000F91089584E090E0F8CF823098F493E19C
:101AC000899FF0011124EE58FF4F6685662351F07F
:101AD000828941E0882319F0813039F440E087851C
:101AE0000C94C40483E090E0089584E090E00895AD
:101AF000823098F493E1899FF0011124EE58FF4F52
:101B00006685662351F0828940E0882319F0813090
:101B100039F441E087850C94C40483E090E0089593
:101B200084E090E00895823098F493E1899FF00179
:101B30001124EE58FF4F6089662351F0828941E0FD
:101B4000882319F0813039F440E081890C94C40471
:101B500083E090E0089584E090E00895823098F466
:101B600093E1899FF0011124EE58FF4F60896623AD
:101B700051F0828940E0882319F0813039F441E046
:101B800081890C94C40483E090E0089584E090E09F
:101B90000895CF93DF93823008F066C093E1899F68
:101BA000E0011124CE58DF4F8A8981112AC040E01C
:101BB000698188810E94C40440E06B818A810E940F
:101BC000C40440E06D818C810E94C40440E06F81B8
:101BD0008E810E94C40440E0698588850E94C40407
:101BE00040E06B858A850E94C40440E06D858C8549
:101BF0000E94C404688940E0611131C0DF91CF9137
:101C000008958130A1F541E0698188810E94C40472
:101C100041E06B818A810E94C40441E06D818C8126
:101C20000E94C40441E06F818E810E94C40441E09F
:101C3000698588850E94C40441E06B858A850E947D
:101C4000C40441E06D858C850E94C40441E068892C
:101C500089890E94C4046889662381F241E08989E8
:101C6000DF91CF910C94C40483E090E0C7CF84E06F
:101C700090E0C4CF0F931F93CF93DF930097B9F0F9
:101C8000EC018C01075F1F4F40E0698188810E9451
:101C900093044A81698188810E94C4042396C017F5
:101CA000D10791F7DF91CF911F910F91089582E0B5
:101CB00090E0F8CFAB01009739F0672B29F0FC01D9
:101CC000618180810C941A0582E090E008950E9461
:101CD000C20641E067E083E00E94930440E067E0D1
:101CE00083E00E94C4040E94B60667E083E00E947D
:101CF000F50465E070E080E090E00E940407F5CF15
:101D0000DB018F939F930E94EB0EBF91AF91A29F37
:101D1000800D911DA39F900DB29F900D11240895E9
:101D200097FB072E16F4009407D077FD09D00E9488
:101D3000F60E07FC05D03EF4909581959F4F0895CF
:101D4000709561957F4F0895A1E21A2EAA1BBB1BC7
:101D5000FD010DC0AA1FBB1FEE1FFF1FA217B30777
:101D6000E407F50720F0A21BB30BE40BF50B661F8D
:101D7000771F881F991F1A9469F760957095809551
:101D800090959B01AC01BD01CF010895052E97FBF5
:101D90001EF400940E94DD0E57FD07D00E94A40E91
:101DA00007FC03D04EF40C94DD0E50954095309511
:101DB00021953F4F4F4F5F4F0895909580957095B7
:101DC00061957F4F8F4F9F4F0895EE0FFF1F059036
:101DD000F491E02D09940E940A0FA59F900DB49FE5
:101DE000900DA49F800D911D11240895AA1BBB1B6B
:101DF00051E107C0AA1FBB1FA617B70710F0A61B0B
:101E0000B70B881F991F5A95A9F780959095BC012B
:101E1000CD010895A29FB001B39FC001A39F700D93
:101E2000811D1124911DB29F700D811D1124911DE2
:101E300008955058BB27AA270E94310F0C94AB106D
:101E40000E949D1038F00E94A41020F039F49F3FAA
:101E500019F426F40C949A100EF4E095E7FB0C9418
:101E60009410E92F0E94BC1058F3BA176207730749
:101E70008407950720F079F4A6F50C94DE100EF493
:101E8000E0950B2EBA2FA02D0B01B90190010C018A
:101E9000CA01A0011124FF27591B99F0593F50F4A2
:101EA000503E68F11A16F040A22F232F342F4427FA
:101EB000585FF3CF469537952795A795F0405395F2
:101EC000C9F77EF41F16BA0B620B730B840BBAF0C2
:101ED0009150A1F0FF0FBB1F661F771F881FC2F72D
:101EE0000EC0BA0F621F731F841F48F48795779541
:101EF0006795B795F7959E3F08F0B0CF9395880FFB
:101F000008F09927EE0F9795879508950E94701015
:101F100008F481E008950E949F0F0C94AB100E947A
:101F2000A41058F00E949D1040F029F45F3F29F062
:101F30000C94941051110C94DF100C949A100E9480
:101F4000BC1068F39923B1F3552391F3951B550BFE
:101F5000BB27AA2762177307840738F09F5F5F4F7C
:101F6000220F331F441FAA1FA9F335D00E2E3AF0BB
:101F7000E0E832D091505040E695001CCAF72BD0D3
:101F8000FE2F29D0660F771F881FBB1F2617370724
:101F90004807AB07B0E809F0BB0B802DBF01FF2756
:101FA00093585F4F3AF09E3F510578F00C9494108F
:101FB0000C94DF105F3FE4F3983ED4F38695779559
:101FC0006795B795F7959F5FC9F7880F911D96950F
:101FD000879597F90895E1E0660F771F881FBB1F6B
:101FE000621773078407BA0720F0621B730B840B18
:101FF000BA0BEE1F88F7E09508950E9404106894CC
:10200000B1110C94DF1008950E94C41088F09F57FE
:1020100098F0B92F9927B751B0F0E1F0660F771F0C
:10202000881F991F1AF0BA95C9F714C0B13091F002
:102030000E94DE10B1E008950C94DE10672F782F17
:102040008827B85F39F0B93FCCF3869577956795C7
:10205000B395D9F73EF490958095709561957F4F33
:102060008F4F9F4F0895E89409C097FB3EF49095D9
:102070008095709561957F4F8F4F9F4F9923A9F061
:10208000F92F96E9BB279395F695879577956795F0
:10209000B795F111F8CFFAF4BB0F11F460FF1BC034
:1020A0006F5F7F4F8F4F9F4F16C0882311F096E9C7
:1020B00011C0772321F09EE8872F762F05C0662375
:1020C00071F096E8862F70E060E02AF09A95660F2E
:1020D000771F881FDAF7880F9695879597F90895E7
:1020E000990F0008550FAA0BE0E8FEEF1616170629
:1020F000E807F907C0F012161306E407F50798F091
:10210000621B730B840B950B39F40A2661F0232BA9
:10211000242B252B21F408950A2609F4A140A69525
:102120008FEF811D811D089597F99F6780E870E00A
:1021300060E008959FEF80EC089500240A9416163D
:10214000170618060906089500240A9412161306A5
:10215000140605060895092E0394000C11F4882333
:1021600052F0BB0F40F4BF2B11F460FF04C06F5F4F
:102170007F4F8F4F9F4F089557FD9058440F551F25
:1021800059F05F3F71F04795880F97FB991F61F0F9
:102190009F3F79F087950895121613061406551F70
:1021A000F2CF4695F1DF08C0161617061806991FDC
:1021B000F1CF86957105610508940895E894BB27D1
:1021C00066277727CB0197F908950E94F8100C94A1
:1021D000AB100E949D1038F00E94A41020F09523AF
:1021E00011F00C9494100C949A1011240C94DF109C
:1021F0000E94BC1070F3959FC1F3950F50E0551FDE
:10220000629FF001729FBB27F00DB11D639FAA274B
:10221000F00DB11DAA1F649F6627B00DA11D661F9A
:10222000829F2227B00DA11D621F739FB00DA11DBB
:10223000621F839FA00D611D221F749F3327A00D75
:10224000611D231F849F600D211D822F762F6A2F11
:1022500011249F5750409AF0F1F088234AF0EE0F76
:10226000FF1FBB1F661F771F881F91505040A9F7A3
:102270009E3F510580F00C9494100C94DF105F3F4A
:10228000E4F3983ED4F3869577956795B795F795DF
:10229000E7959F5FC1F7FE2B880F911D9695879557
:0822A00097F90895F894FFCFAF
:1022A800000001010000000001000001010000021F
:1022B80001000100010101020103010401050106F9
:1022C80004030701000100010101020103010401E7
:1022D80005010601030701000200000201000202D5
:1022E800003738392F3435362A3132332D43303DD3
:1022F8002B04050607000102033F065B4F666D7D50
:10230800077F6F48656C6C6F2043616C63756C6107
:0A231800746F72004572726F72005C
:00000001FF
