:100000000C942A000C943F000C943F000C943F0089
:100010000C943F000C943F000C943F000C943F0064
:100020000C943F000C943F000C943F000C943F0054
:100030000C943F000C943F000C943F000C943F0044
:100040000C943F000C943F000C943F000C943F0034
:100050000C943F0011241FBECFE5D8E0DEBFCDBF1A
:1000600010E0A0E6B0E0E4E5F8E002C005900D92F3
:10007000A23AB107D9F70E94FD030C9428040C940E
:1000800000008FEF8ABB9CEF97BB84BB81BB1BBA80
:1000900018BA15BA12BA81E090E00895843080F45D
:1000A000823051F0833051F0813021F06ABB81E021
:1000B00090E0089567BBFBCF64BBF9CF61BBF7CF7E
:1000C00083E090E00895843080F4823051F08330F2
:1000D00051F0813021F06BBB81E090E0089568BB66
:1000E000FBCF65BBF9CF62BBF7CF83E090E008950B
:1000F0008430C0F4823071F0833081F0813031F08F
:100100008BB380958BBB81E090E0089588B3809598
:1001100088BBF9CF85B3809585BBF5CF82B3809539
:1001200082BBF1CF83E090E00895FB018430B8F406
:100130003097C1F0823059F0833059F0813029F086
:1001400089B3808381E090E0089586B3FACF83B3CA
:10015000F8CF80B3808382B3809582BBF3CF83E0F6
:1001600090E0089582E090E00895843060F5683072
:1001700050F5423040F521E030E0062E01C0220F5C
:100180000A94EAF7209501C0440F6A95EAF7823095
:1001900081F0833099F0813039F08AB32823242B01
:1001A0002ABB90E080E0089587B32823242B27BB47
:1001B000F8CF84B32823242B24BBF3CF81B3282387
:1001C000242B21BBEECF83E090E00895843060F5CE
:1001D000683050F5423040F521E030E0062E01C095
:1001E000220F0A94EAF7209501C0440F6A95EAF7B6
:1001F000823081F0833099F0813039F08BB328233D
:10020000242B2BBB90E080E0089588B32823242B77
:1002100028BBF8CF85B32823242B25BBF3CF82B38B
:100220002823242B22BBEECF83E090E00895843076
:1002300000F56830F0F421E030E001C0220F6A954B
:10024000EAF7823071F0833081F0813031F08BB386
:1002500028272BBB90E080E0089588B3282728BB8F
:10026000F9CF85B3282725BBF5CF82B3282722BB3A
:10027000F1CF83E090E00895FA018430E0F4683033
:10028000D0F43097D9F0823091F0833091F0813002
:1002900061F089B390E002C0959587956A95E2F781
:1002A0008170808390E080E0089586B3F3CF83B3BC
:1002B000F1CF80B3EFCF83E090E0089582E090E04B
:1002C00008950F931F93CF93DF93009759F1EC019B
:1002D0008C01085F1F4F4B81698188810E94E60075
:1002E0008A81811115C08B81813011F440E003C0F7
:1002F000811115C041E0698188810E94E600249641
:10030000C017D10741F7DF91CF911F910F91089549
:10031000813029F48B81813069F3882339F383E0BC
:1003200090E0EDCF82E090E0EECFFC01892B59F018
:10033000828140E0882319F0813041F441E06181FD
:1003400080810C94E60082E090E0089583E090E0E4
:100350000895FC01892B59F0828141E0882319F02E
:10036000813041F440E0618180810C94E60082E0BC
:1003700090E0089583E090E008950F931F93CF934A
:10038000DF93009709F444C0EC018C010A5D1F4F14
:1003900041E0698188810E94B50041E06B818A81DA
:1003A0000E94B50041E06D818C810E94B50041E062
:1003B0006F818E810E94B50041E0698588850E9429
:1003C000B50041E06B858A850E94B50041E06D85EE
:1003D0008C850E94B5002F85222339F06E85662317
:1003E00021F041E0822F0E94B5002989222339F0B3
:1003F0006889662321F041E0822F0E94B500639650
:10040000C017D10729F6DF91CF911F910F91089561
:1004100090E080E0F8CF0F931F93CF93DF936A3083
:1004200008F0D7C0823008F0D4C0E62F082F10E0C3
:1004300093E1899FE0011124C859DF4F8A89811116
:1004400038C0F0E0E956FF4F1081412F41706981BB
:1004500088810E94E60011FB442740F96B818A8164
:100460000E94E60012FB442740F96D818C810E94B6
:10047000E60013FB442740F96F818E810E94E6005D
:1004800014FB442740F9698588850E94E60015FB26
:10049000442740F96B858A850E94E60016FB4427B5
:1004A00040F96D858C85DF91CF911F910F910C9450
:1004B000E600813009F094C0F0E0E956FF4FC081BA
:1004C00041E0C11140E083E1809FF001819FF00D88
:1004D0001124E859FF4F618180810E94E60041E0CC
:1004E0008C2F869509F040E083E1809FF001819F89
:1004F000F00D1124E859FF4F638182810E94E600CC
:1005000041E08C2F8695869509F040E083E1809F3D
:10051000F001819FF00D1124E859FF4F658184811E
:100520000E94E60041E08C2F86958695869509F01D
:1005300040E083E1809FF001819FF00D1124E85994
:10054000FF4F678186810E94E60041E08C2F8295F3
:100550008F7009F040E083E1809FF001819FF00DF2
:100560001124E859FF4F618580850E94E60041E033
:100570008C2F82958695877009F040E083E1809FFB
:10058000F001819FF00D1124E859FF4F63858285AA
:100590000E94E60041E08C2F8295869586958370B7
:1005A00009F040E023E1209FC001219F900D11241C
:1005B0008C0108591F4FF801658584850E94E6006B
:1005C0004C2F4095441F4427441FF80160898189BE
:1005D0006ACF83E090E0DF91CF911F910F91089552
:1005E00084E090E0F8CF823098F493E1899FF001A5
:1005F0001124E859FF4F6685662351F0828941E056
:10060000882319F0813039F440E087850C94E600A6
:1006100083E090E0089584E090E00895823098F4BB
:1006200093E1899FF0011124E859FF4F6685662305
:1006300051F0828940E0882319F0813039F441E09B
:1006400087850C94E60083E090E0089584E090E0D4
:100650000895823098F493E1899FF0011124E859BC
:10066000FF4F6089662351F0828941E0882319F0A9
:10067000813039F440E081890C94E60083E090E019
:10068000089584E090E00895823098F493E1899F82
:10069000F0011124E859FF4F6089662351F08289E7
:1006A00040E0882319F0813039F441E081890C94CD
:1006B000E60083E090E0089584E090E00895CF9311
:1006C000DF93823008F066C093E1899FE001112436
:1006D000C859DF4F8A8981112AC040E06981888129
:1006E0000E94E60040E06B818A810E94E60040E0C3
:1006F0006D818C810E94E60040E06F818E810E94B6
:10070000E60040E0698588850E94E60040E06B8550
:100710008A850E94E60040E06D858C850E94E60097
:10072000688940E0611131C0DF91CF910895813037
:10073000A1F541E0698188810E94E60041E06B817A
:100740008A810E94E60041E06D818C810E94E60072
:1007500041E06F818E810E94E60041E069858885D5
:100760000E94E60041E06B858A850E94E60041E038
:100770006D858C850E94E60041E0688989890E9428
:10078000E6006889662381F241E08989DF91CF9193
:100790000C94E60083E090E0C7CF84E090E0C4CF03
:1007A0000F931F93CF93DF930097B9F0EC018C0167
:1007B000075F1F4F40E0698188810E94B5004A8130
:1007C000698188810E94E6002396C017D10791F7BE
:1007D000DF91CF911F910F91089582E090E0F8CFC3
:1007E000AB01009739F0672B29F0FC016181808112
:1007F0000C943C0182E090E0089588E690E00E942D
:10080000BD01C0E06C2F81E00E940B022FEF84E35A
:100810009CE0215080409040E1F700C00000CF5F95
:10082000CA3081F72FEF84E39CE021508040904054
:10083000E1F700C0000081E00E945F032FEF84E336
:100840009CE0215080409040E1F700C00000D9CFEB
:04085000F894FFCF4A
:10085400000001000001010000000001000200038B
:100864000004000500060002070000010001010168
:100874000201030104010501060002070100020050
:10088400010201010202013F065B4F666D7D077F95
:020894006F00F3
:00000001FF
