:100000000C942A000C943F000C943F000C943F0089
:100010000C943F000C943F000C943F000C943F0064
:100020000C943F000C943F000C943F000C943F0054
:100030000C943F000C943F000C943F000C943F0044
:100040000C943F000C943F000C943F000C943F0034
:100050000C943F0011241FBECFE5D8E0DEBFCDBF1A
:1000600010E0A0E6B0E0E0E6F3E002C005900D92FB
:10007000AA36B107D9F70E948F010C94AE010C94F7
:1000800000008EEF8ABB8FEF87BB84BB81BB81E012
:100090008BBB18BA15BA12BA81E090E0089584308B
:1000A00080F4823051F0833051F0813021F06ABB0E
:1000B00081E090E0089567BBFBCF64BBF9CF61BBE3
:1000C000F7CF83E090E00895843080F4823051F0DF
:1000D000833051F0813021F06BBB81E090E00895D6
:1000E00068BBFBCF65BBF9CF62BBF7CF83E090E085
:1000F00008958430C0F4823071F0833081F0813013
:1001000031F08BB380958BBB81E090E0089588B38C
:10011000809588BBF9CF85B3809585BBF5CF82B339
:10012000809582BBF1CF83E090E00895FB0184309D
:10013000B8F43097C1F0823059F0833059F08130F3
:1001400029F089B3808381E090E0089586B3FACFE7
:1001500083B3F8CF80B3808382B3809582BBF3CF23
:1001600083E090E0089582E090E00895843060F5A7
:10017000683050F5423040F521E030E0062E01C0F5
:10018000220F0A94EAF7209501C0440F6A95EAF716
:10019000823081F0833099F0813039F08AB328239E
:1001A000242B2ABB90E080E0089587B32823242BDA
:1001B00027BBF8CF84B32823242B24BBF3CF81B3F0
:1001C0002823242B21BBEECF83E090E008958430D8
:1001D00060F5683050F5423040F521E030E0062E01
:1001E00001C0220F0A94EAF7209501C0440F6A95D6
:1001F000EAF7823081F0833099F0813039F08BB3A7
:100200002823242B2BBB90E080E0089588B328237B
:10021000242B28BBF8CF85B32823242B25BBF3CF71
:1002200082B32823242B22BBEECF83E090E00895F5
:10023000843000F56830F0F421E030E001C0220F96
:100240006A95EAF7823071F0833081F0813031F0C5
:100250008BB328272BBB90E080E0089588B3282734
:1002600028BBF9CF85B3282725BBF5CF82B3282734
:1002700022BBF1CF83E090E00895FA018430E0F4EE
:100280006830D0F43097D9F0823091F0833091F01B
:10029000813061F089B390E002C0959587956A95A9
:1002A000E2F78170808390E080E0089586B3F3CF19
:1002B00083B3F1CF80B3EFCF83E090E0089582E085
:1002C00090E008950F931F93CF93DF930097B9F0B9
:1002D000EC018C01075F1F4F40E0698188810E941B
:1002E000B6004A81698188810E94E7002396C01781
:1002F000D10791F7DF91CF911F910F91089582E07F
:1003000090E0F8CFAB01009739F0672B29F0FC01A2
:10031000618180810C943D0182E090E00895CF934B
:10032000DF931F92CDB7DEB70E94410080E690E0D8
:100330000E946201BE016F5F7F4F80E690E00E94E5
:10034000820110E0898141E0811140E0612F81E06C
:100350000E94E7001F5F1330A9F7ECCFF894FFCF9E
:0A036000000001000100000200008F
:00000001FF
