:100000000C942A000C9447000C9447000C94470071
:100010000C9447000C9447000C9447000C94470044
:100020000C9447000C9447000C9447000C94470034
:100030000C9447000C9447000C9447000C94470024
:100040000C9447000C9447000C9447000C94470014
:100050000C94470011241FBECFE5D8E0DEBFCDBF12
:1000600010E0A0E6B0E0E8E9F4E102C005900D92EE
:10007000A03DB107D9F720E0A0EDB0E001C01D928E
:10008000A33EB207E1F70E94F0070C944A0A0C94D1
:1000900000001092DB001092DC001092DD00109244
:1000A000DE001092D7001092D8001092D900109262
:1000B000DA001092D6001092D2001092D300109263
:1000C000D4001092D5001092D1001092D000089563
:1000D000CF930E94CB040E9462030E9448050E94B5
:1000E0004E05C0E0EC2FF0E0E754FF4F8081811116
:1000F0000FC02FEF89E698E1215080409040E1F752
:1001000000C000000E94480590E080E0CF91089573
:100110000E942C05CF5FE6CF2F923F924F925F92C5
:100120006F927F928F929F92AF92BF92CF92DF9207
:10013000EF92FF920F931F93CF93DF9300D0CDB731
:10014000DEB71091D10011115BC0CE0101960E9463
:10015000B50389818F3FC9F38D3309F015C10E9422
:100160002C058091D6008B3209F485C008F05FC061
:100170008A3209F4B4C08090D2009090D300A0904D
:10018000D400B090D500C501B4010E9420096B01D4
:100190007C010E944F099B01AC01C501B4010E9482
:1001A000410820E030E04AE754E40E94DD090E9463
:1001B00020094B015C018FEC9AE0492E512C612CF7
:1001C000712C1FEF180F81149104A104B10409F0E0
:1001D000B0C00E943A058EE20E942C058AE0882E6B
:1001E000912CA12CB12CC114D104E104F10409F02B
:1001F000B4C00E944E050E94490081E08093D00067
:1002000090E080E00F900F90DF91CF911F910F91C0
:10021000FF90EF90DF90CF90BF90AF909F908F9026
:100220007F906F905F904F903F902F9008958D3208
:1002300009F440C08F3209F09ECFC090D700D09013
:10024000D800E090D900F090DA00C114D104E104A4
:10025000F10409F057C00E9448050E944E05E12FA5
:10026000F0E0E653FF4F8081882309F484CF0E9499
:100270002C051F5FF4CF6091DB007091DC00809152
:10028000DD009091DE000091D7001091D800209100
:10029000D9003091DA00600F711F821F931F0E94F6
:1002A0004F096093D2007093D3008093D400909351
:1002B000D50061CF6091DB007091DC008091DD00A2
:1002C0009091DE000091D7001091D8002091D900C4
:1002D0003091DA00601B710B820B930BE0CF209101
:1002E000DB003091DC004091DD005091DE00609138
:1002F000D7007091D8008091D9009091DA000E94C7
:10030000F507CDCF6091DB007091DC008091DD00BE
:100310009091DE000E944F094B015C01C701B601BC
:100320000E944F099B01AC01C501B4010E94AE08B7
:10033000B8CF0E943A05C501B401A30192010E9401
:1003400005081901042F5A8380E3860F0E942C05AB
:100350004101A02EBA80812F34CF812F0E943A050F
:10036000C701B601A50194010E940508522E632E13
:10037000742E052F80E3860F0E942C05C52CD62CE9
:10038000E72CF02E11502FCF90ED980F9A3008F0F7
:1003900061C08091D000813021F40E944805109204
:1003A000D0008091D600811133C08091DB00909104
:1003B000DC00A091DD00B091DE00892B8A2B8B2B15
:1003C00011F40E9448052091DB003091DC0040913F
:1003D000DD005091DE00AAE0B0E00E9427082981EC
:1003E0002053330B8901330F220B330BDC01CB017C
:1003F000800F911FA21FB31F8093DB009093DC003E
:10040000A093DD00B093DE0089810E942C0599CE77
:100410002091D7003091D8004091D9005091DA0056
:10042000AAE0B0E00E94270829812053330B8901FC
:10043000330F220B330BDC01CB01800F911FA21F66
:10044000B31F8093D7009093D800A093D900B093A6
:10045000DA00DACF833429F40E9448050E9449006B
:1004600070CE0E942C058091D000813021F40E9432
:1004700048051092D0001092D10089818093D60057
:1004800060CE08958FEF8ABB9CEF97BB84BB81BB86
:100490001BBA18BA15BA12BA81E090E008958430F8
:1004A00080F4823051F0833051F0813021F06ABB0A
:1004B00081E090E0089567BBFBCF64BBF9CF61BBDF
:1004C000F7CF83E090E00895843080F4823051F0DB
:1004D000833051F0813021F06BBB81E090E00895D2
:1004E00068BBFBCF65BBF9CF62BBF7CF83E090E081
:1004F00008958430C0F4823071F0833081F081300F
:1005000031F08BB380958BBB81E090E0089588B388
:10051000809588BBF9CF85B3809585BBF5CF82B335
:10052000809582BBF1CF83E090E00895FB01843099
:10053000B8F43097C1F0823059F0833059F08130EF
:1005400029F089B3808381E090E0089586B3FACFE3
:1005500083B3F8CF80B3808382B3809582BBF3CF1F
:1005600083E090E0089582E090E00895843060F5A3
:10057000683050F5423040F521E030E0062E01C0F1
:10058000220F0A94EAF7209501C0440F6A95EAF712
:10059000823081F0833099F0813039F08AB328239A
:1005A000242B2ABB90E080E0089587B32823242BD6
:1005B00027BBF8CF84B32823242B24BBF3CF81B3EC
:1005C0002823242B21BBEECF83E090E008958430D4
:1005D00060F5683050F5423040F521E030E0062EFD
:1005E00001C0220F0A94EAF7209501C0440F6A95D2
:1005F000EAF7823081F0833099F0813039F08BB3A3
:100600002823242B2BBB90E080E0089588B3282377
:10061000242B28BBF8CF85B32823242B25BBF3CF6D
:1006200082B32823242B22BBEECF83E090E00895F1
:10063000843000F56830F0F421E030E001C0220F92
:100640006A95EAF7823071F0833081F0813031F0C1
:100650008BB328272BBB90E080E0089588B3282730
:1006600028BBF9CF85B3282725BBF5CF82B3282730
:1006700022BBF1CF83E090E00895FA018430E0F4EA
:100680006830D0F43097D9F0823091F0833091F017
:10069000813061F089B390E002C0959587956A95A5
:1006A000E2F78170808390E080E0089586B3F3CF15
:1006B00083B3F1CF80B3EFCF83E090E0089582E081
:1006C00090E0089540E064E083E00E94B60240E0DC
:1006D00065E083E00E94B60240E066E083E00E94AD
:1006E000B60240E067E083E00E94B60241E060E0CD
:1006F00083E00E94B60241E061E083E00E94B6021E
:1007000041E062E083E00E94B60241E063E083E002
:100710000E94B60241E064E083E00E94E70241E00B
:1007200065E083E00E94E70241E066E083E00E942A
:10073000E70241E067E083E00E94E70241E060E019
:1007400083E00E94E70241E061E083E00E94E7026B
:1007500041E062E083E00E94E70241E063E083E081
:100760000E94E70290E080E008951F93CF93DF930B
:10077000EC018FEF8093E2001092E1001FEFE09117
:10078000E100E43030F08091E200888390E080E086
:1007900041C0F0E0E555FF4F40E0608183E00E94FA
:1007A000E7021092E000E091E000E43080F0E09198
:1007B000E100F0E0E555FF4F41E0608183E00E94F9
:1007C000E7028091E1008F5F8093E100D8CFF0E0F5
:1007D000E955FF4F4FED50E0608183E00E943D03FB
:1007E0008091DF00811124C08091E00090E0209191
:1007F000DF00222399F02091E100880F991F880FD4
:10080000991F89569F4F820F911DFC01808188831B
:1008100081E090E0DF91CF911F91089589559F4F1E
:100820004FED50E0FC01608183E00E943D03DCCF8E
:100830001093E2008091E0008F5F8093E000B3CFDF
:10084000CF93C82F40E060E080E00E94E70240E0E4
:1008500061E080E00E94E70240E062E080E00E9408
:10086000E7024C2F417060E081E00E94E702C1FB8B
:10087000442740F961E081E00E94E702C2FB44277F
:1008800040F962E081E00E94E702C3FB442740F99F
:1008900063E081E00E94E702C4FB442740F964E082
:1008A00081E00E94E7024C2F42954695477065E033
:1008B00081E00E94E70240E066E081E00E94E702FA
:1008C00040E067E081E00E94E70241E062E080E012
:1008D0000E94E7028FE19EE40197F1F700C000005B
:1008E00040E062E080E0CF910C94E702CF93C82F04
:1008F00040E061E080E00E94E70240E062E080E0EA
:100900000E94E702C4FB442740F964E081E00E94B2
:10091000E702C5FB442740F965E081E00E94E70259
:10092000C6FB442740F966E081E00E94E7024C2FB5
:10093000441F4427441F67E081E00E94E7024C2FD8
:10094000417060E081E00E94E702C1FB442740F96A
:1009500061E081E00E94E702C2FB442740F962E0C7
:1009600081E00E94E702C3FB442740F963E081E095
:100970000E94E70241E062E080E00E94E7028FE12E
:100980009EE40197F1F700C0000040E062E080E0E3
:10099000CF910C94E70241E060E080E00E94B60253
:1009A00041E061E080E00E94B60241E062E080E068
:1009B0000E94B60241E064E081E00E94B60241E09C
:1009C00065E081E00E94B60241E066E081E00E94BD
:1009D000B60241E067E081E00E94B6022FEB8AEDAB
:1009E00090E0215080409040E1F700C0000041E0DD
:1009F00060E081E00E94B60241E061E081E00E9497
:100A0000B60241E062E081E00E94B60241E063E0AC
:100A100081E00E94B60288E30E9420048FEC97E0F8
:100A20000197F1F700C000008FE00E9420048FECD6
:100A300097E00197F1F700C0000081E00E942004D8
:100A40008FE99FE00197F1F700C0000086E00E9467
:100A5000200490E080E00895CF93C82F41E060E04B
:100A600080E00E94E7028C2F0E94760490E080E0F4
:100A7000CF910895CF93C82F40E060E080E00E94BE
:100A8000E7028C2F0E94760490E080E0CF910895D9
:100A900081E00E94200490E080E0089582E00E94BE
:100AA000200490E080E008950F931F93CF93DF938D
:100AB000009759F1EC018C01085F1F4F4B81698150
:100AC00088810E94E7028A81811115C08B81813063
:100AD00011F440E003C0811115C041E069818881B3
:100AE0000E94E7022496C017D10741F7DF91CF910A
:100AF0001F910F910895813029F48B81813069F322
:100B0000882339F383E090E0EDCF82E090E0EECFF0
:100B1000FC01892B59F0828140E0882319F0813053
:100B200041F441E0618180810C94E70282E090E031
:100B3000089583E090E00895FC01892B59F08281AB
:100B400041E0882319F0813041F440E061818081E7
:100B50000C94E70282E090E0089583E090E008952D
:100B60000F931F93CF93DF93009709F444C0EC01D8
:100B70008C010A5D1F4F41E0698188810E94B602A5
:100B800041E06B818A810E94B60241E06D818C81D7
:100B90000E94B60241E06F818E810E94B60241E060
:100BA000698588850E94B60241E06B858A850E942E
:100BB000B60241E06D858C850E94B6022F85222306
:100BC00039F06E85662321F041E0822F0E94B60243
:100BD0002989222339F06889662321F041E0822F98
:100BE0000E94B6026396C017D10729F6DF91CF9114
:100BF0001F910F91089590E080E0F8CF0F931F931D
:100C0000CF93DF936A3008F0D7C0823008F0D4C0A9
:100C1000E62F082F10E093E1899FE0011124C859C5
:100C2000DF4F8A89811138C0F0E0E155FF4F108114
:100C3000412F4170698188810E94E70211FB44279E
:100C400040F96B818A810E94E70212FB442740F938
:100C50006D818C810E94E70213FB442740F96F816C
:100C60008E810E94E70214FB442740F9698588853C
:100C70000E94E70215FB442740F96B858A850E9494
:100C8000E70216FB442740F96D858C85DF91CF91F3
:100C90001F910F910C94E702813009F094C0F0E0AD
:100CA000E155FF4FC08141E0C11140E083E1809FE9
:100CB000F001819FF00D1124E859FF4F618180817F
:100CC0000E94E70241E08C2F869509F040E083E125
:100CD000809FF001819FF00D1124E859FF4F63813F
:100CE00082810E94E70241E08C2F8695869509F06B
:100CF00040E083E1809FF001819FF00D1124E859CD
:100D0000FF4F658184810E94E70241E08C2F869528
:100D10008695869509F040E083E1809FF001819FF0
:100D2000F00D1124E859FF4F678186810E94E70288
:100D300041E08C2F82958F7009F040E083E1809F25
:100D4000F001819FF00D1124E859FF4F61858085E6
:100D50000E94E70241E08C2F82958695877009F00A
:100D600040E083E1809FF001819FF00D1124E8595C
:100D7000FF4F638582850E94E70241E08C2F8295B8
:100D800086958695837009F040E023E1209FC0019D
:100D9000219F900D11248C0108591F4FF801658582
:100DA00084850E94E7024C2F4095441F4427441F2E
:100DB000F801608981896ACF83E090E0DF91CF916B
:100DC0001F910F91089584E090E0F8CF823098F45D
:100DD00093E1899FF0011124E859FF4F668566234E
:100DE00051F0828941E0882319F0813039F440E0E4
:100DF00087850C94E70283E090E0089584E090E01A
:100E00000895823098F493E1899FF0011124E85904
:100E1000FF4F6685662351F0828940E0882319F0F0
:100E2000813039F441E087850C94E70283E090E05B
:100E3000089584E090E00895823098F493E1899FCA
:100E4000F0011124E859FF4F6089662351F082892F
:100E500041E0882319F0813039F440E081890C9415
:100E6000E70283E090E0089584E090E00895823006
:100E700098F493E1899FF0011124E859FF4F6089AC
:100E8000662351F0828940E0882319F0813039F4DB
:100E900041E081890C94E70283E090E0089584E0CA
:100EA00090E00895CF93DF93823008F066C093E11D
:100EB000899FE0011124C859DF4F8A8981112AC016
:100EC00040E0698188810E94E70240E06B818A816D
:100ED0000E94E70240E06D818C810E94E70240E0C1
:100EE0006F818E810E94E70240E0698588850E94BB
:100EF000E70240E06B858A850E94E70240E06D854D
:100F00008C850E94E702688940E0611131C0DF9161
:100F1000CF9108958130A1F541E0698188810E94D7
:100F2000E70241E06B818A810E94E70241E06D8126
:100F30008C810E94E70241E06F818E810E94E7026E
:100F400041E0698588850E94E70241E06B858A85DA
:100F50000E94E70241E06D858C850E94E70241E036
:100F6000688989890E94E7026889662381F241E0E5
:100F70008989DF91CF910C94E70283E090E0C7CF9D
:100F800084E090E0C4CF0F931F93CF93DF9300973B
:100F9000B9F0EC018C01075F1F4F40E06981888147
:100FA0000E94B6024A81698188810E94E7022396E5
:100FB000C017D10791F7DF91CF911F910F9108953D
:100FC00082E090E0F8CFAB01009739F0672B29F071
:100FD000FC01618180810C943D0382E090E00895E2
:100FE0000E9468000E948C00FDCFDB018F939F93CD
:100FF0000E942708BF91AF91A29F800D911DA39FD2
:10100000900DB29F900D11240895A1E21A2EAA1BF3
:10101000BB1BFD010DC0AA1FBB1FEE1FFF1FA217A8
:10102000B307E407F50720F0A21BB30BE40BF50BA5
:10103000661F771F881F991F1A9469F7609570952E
:10104000809590959B01AC01BD01CF0108950E9450
:101050003208A59F900DB49F900DA49F800D911D07
:1010600011240895A29FB001B39FC001A39F700DEA
:10107000811D1124911DB29F700D811D1124911DA0
:1010800008955058BB27AA270E9459080C94A30919
:101090000E94950938F00E949C0920F039F49F3F86
:1010A00019F426F40C9492090EF4E095E7FB0C94E5
:1010B0008C09E92F0E94B40958F3BA176207730725
:1010C0008407950720F079F4A6F50C94D6090EF460
:1010D000E0950B2EBA2FA02D0B01B90190010C0148
:1010E000CA01A0011124FF27591B99F0593F50F460
:1010F000503E68F11A16F040A22F232F342F4427B8
:10110000585FF3CF469537952795A795F0405395AF
:10111000C9F77EF41F16BA0B620B730B840BBAF07F
:101120009150A1F0FF0FBB1F661F771F881FC2F7EA
:101130000EC0BA0F621F731F841F48F487957795FE
:101140006795B795F7959E3F08F0B0CF9395880FB8
:1011500008F09927EE0F9795879508950E94C20889
:101160000C94A3090E949C0958F00E94950940F034
:1011700029F45F3F29F00C948C0951110C94D70984
:101180000C9492090E94B40968F39923B1F3552392
:1011900091F3951B550BBB27AA276217730784078A
:1011A00038F09F5F5F4F220F331F441FAA1FA9F320
:1011B00035D00E2E3AF0E0E832D091505040E6950E
:1011C000001CCAF72BD0FE2F29D0660F771F881F6F
:1011D000BB1F261737074807AB07B0E809F0BB0B62
:1011E000802DBF01FF2793585F4F3AF09E3F510576
:1011F00078F00C948C090C94D7095F3FE4F3983E87
:10120000D4F3869577956795B795F7959F5FC9F75E
:10121000880F911D9695879597F90895E1E0660FDF
:10122000771F881FBB1F621773078407BA0720F058
:10123000621B730B840BBA0BEE1F88F7E0950895C1
:101240000E94BC0988F09F5798F0B92F9927B75191
:10125000B0F0E1F0660F771F881F991F1AF0BA955A
:10126000C9F714C0B13091F00E94D609B1E00895D9
:101270000C94D609672F782F8827B85F39F0B93FCB
:10128000CCF3869577956795B395D9F73EF490950D
:101290008095709561957F4F8F4F9F4F0895E8948B
:1012A00009C097FB3EF490958095709561957F4FAE
:1012B0008F4F9F4F9923A9F0F92F96E9BB2793955C
:1012C000F695879577956795B795F111F8CFFAF46C
:1012D000BB0F11F460FF1BC06F5F7F4F8F4F9F4F9D
:1012E00016C0882311F096E911C0772321F09EE8FB
:1012F000872F762F05C0662371F096E8862F70E061
:1013000060E02AF09A95660F771F881FDAF7880F3A
:101310009695879597F9089597F99F6780E870E00B
:1013200060E008959FEF80EC089500240A9416165B
:10133000170618060906089500240A9412161306C3
:10134000140605060895092E0394000C11F4882351
:1013500052F0BB0F40F4BF2B11F460FF04C06F5F6D
:101360007F4F8F4F9F4F089557FD9058440F551F43
:1013700059F05F3F71F04795880F97FB991F61F017
:101380009F3F79F087950895121613061406551F8E
:10139000F2CF4695F1DF08C0161617061806991FFA
:1013A000F1CF86957105610508940895E894BB27EF
:1013B00066277727CB0197F908950E94F0090C94CE
:1013C000A3090E94950938F00E949C0920F09523FA
:1013D00011F00C948C090C94920911240C94D709E7
:1013E0000E94B40970F3959FC1F3950F50E0551F0B
:1013F000629FF001729FBB27F00DB11D639FAA276A
:10140000F00DB11DAA1F649F6627B00DA11D661FB8
:10141000829F2227B00DA11D621F739FB00DA11DD9
:10142000621F839FA00D611D221F749F3327A00D93
:10143000611D231F849F600D211D822F762F6A2F2F
:1014400011249F5750409AF0F1F088234AF0EE0F94
:10145000FF1FBB1F661F771F881F91505040A9F7C1
:101460009E3F510580F00C948C090C94D7095F3F86
:10147000E4F3983ED4F3869577956795B795F795FD
:10148000E7959F5FC1F7FE2B880F911D9695879575
:0814900097F90895F894FFCFCD
:10149800000001000001010000000001000200033B
:1014A8000004000500060002070000010001010118
:1014B8000201030104010501060002070100020000
:1014C800010201010202013738392F3435362A3139
:1014D80032332D43303D2B04050607000102033F3C
:1014E800065B4F666D7D077F6F48656C6C6F2043A8
:1014F800616C63756C61746F72004572726F720013
:00000001FF
