:100000000C942A000C947F050C94AE050C94DB052F
:100010000C9447000C9447000C9447000C94470044
:100020000C9447000C9447000C9447000C94470034
:100030000C9447000C9447000C9447000C94470024
:100040000C9435030C9447000C9447000C94470023
:100050000C94470011241FBECFE5D8E0DEBFCDBF12
:1000600010E0A0E6B0E0E0ECFAE102C005900D92ED
:10007000A63DB107D9F720E0A6EDB0E001C01D9282
:10008000AA3FB207E1F70E94A20A0C945E0D0C94FD
:1000900000001092E1001092E2001092E300109232
:1000A000E4001092DD001092DE001092DF0010924A
:1000B000E0001092DC001092D8001092D90010924B
:1000C000DA001092DB001092D7001092D60008954B
:1000D000CF930E947D070E9414060E94FA070E9497
:1000E0000008C0E0EC2FF0E0E154FF4F8081811167
:1000F0000FC02FEF89E698E1215080409040E1F752
:1001000000C000000E94FA0781E090E0CF910895BE
:100110000E94DE07CF5FE6CF2F923F924F925F9211
:100120006F927F928F929F92AF92BF92CF92DF9207
:10013000EF92FF920F931F93CF93DF931F92CDB750
:10014000DEB7B12CA12C1091D7001111A2C0CE01A5
:1001500001960E94670689818F3FC9F38D3309F0AC
:100160004DC10E94DE075C018091DC008B3209F4F6
:10017000C9C008F0A3C08A3209F4F8C0C090D80002
:10018000D090D900E090DA00F090DB00C701B60112
:100190000E94340C0E94630C9B01AC01C701B601A4
:1001A0000E944E0B20E030E04AE754E40E94F10C3C
:1001B0000E94340C2B013C01C701B6010E942D0C9A
:1001C0006B017C011FEC411451046104710429F19D
:1001D000812F0E94EC07C301B2012AE030E040E029
:1001E00050E00E94ED0A022F932E842E352E80E3DC
:1001F000860F0E94DE07402E592C682C732C8FEF3F
:10020000810F411451046104710409F0D9C00E94A6
:10021000EC078EE20E94DE0712509AE0492E512C24
:10022000612C712CF7FEE4C0F094E094D094C0945B
:10023000C11CD11CE11CF11C8AE0282E312C412C60
:10024000512C812F0E94EC07C701B601A201910138
:100250000E940F0B722E832E942E052F80E3860FA3
:100260000E94DE07C72CD82CE92CF02E1150C114A7
:10027000D104E104F10429F7812F0E94EC078DE2FB
:100280000E94DE070E9400080E94490081E08093DE
:10029000D600C5010F90DF91CF911F910F91FF9074
:1002A000EF90DF90CF90BF90AF909F908F907F9016
:1002B0006F905F904F903F902F9008958D3209F48A
:1002C00040C08F3209F05ACFC090DD00D090DE00E0
:1002D000E090DF00F090E000C114D104E104F104EB
:1002E00009F057C00E94FA070E940008E12FF0E0D1
:1002F000E053FF4F8081882309F440CF0E94DE073E
:100300001F5FF4CF6091E1007091E2008091E30003
:100310009091E4000091DD001091DE002091DF005B
:100320003091E000600F711F821F931F0E94650CC7
:100330006093D8007093D9008093DA009093DB002B
:100340001DCF6091E1007091E2008091E3009091F7
:10035000E4000091DD001091DE002091DF0030917B
:10036000E000601B710B820B930BE0CF2091E1004A
:100370003091E2004091E3005091E4006091DD0093
:100380007091DE008091DF009091E0000E94DD0A14
:10039000CDCF6091E1007091E2008091E3009091F7
:1003A000E4000E94650C2B013C01C701B6010E94CC
:1003B000650C9B01AC01C301B2010E94BB0BB8CF1D
:1003C000182F06CF812F0E94EC07C701B601A301A9
:1003D00092010E940F0B322E832E942E052F80E364
:1003E000860F0E94DE07C32CD82CE92CF02E11506A
:1003F000C114D104E104F10429F744CF90ED980F22
:100400009A3008F062C08091D600813021F40E94B9
:10041000FA071092D6008091DC00811134C08091DF
:10042000E1009091E200A091E300B091E400892BFB
:100430008A2B8B2B11F40E94FA072091E100309156
:10044000E2004091E3005091E400AAE0B0E00E9495
:10045000340B29812053330B8901330F220B330BCB
:10046000DC01CB01800F911FA21FB31F8093E1001D
:100470009093E200A093E300B093E40089810E948E
:10048000DE075C0160CE2091DD003091DE004091FE
:10049000DF005091E000AAE0B0E00E94340B298117
:1004A0002053330B8901330F220B330BDC01CB01BB
:1004B000800F911FA21FB31F8093DD009093DE0079
:1004C000A093DF00B093E000D9CF833431F40E94D1
:1004D000FA075C010E94490036CE0E94DE075C01EB
:1004E0008091D600813021F40E94FA071092D60044
:1004F0001092D70089818093DC0025CE0C94B00245
:1005000021E0FC01208341E060E080E00C940704DE
:100510008093E5000895CF93DF931F92CDB7DEB7A8
:10052000898389818093E5000F90DF91CF910895B1
:1005300087B18F7187B986B1876086B990E080E016
:100540000895369A90E080E0089586B1982F9295AC
:100550009F7009F4FFCF806186B990E080E0089534
:10056000FC0125B136B13695279536952795208320
:1005700084B195B136E0880F991F3A95E1F7282BA1
:10058000208384B195B1808390E080E0089545B1E7
:1005900056B1FC015183408324B135B1322F22275B
:1005A000242B352B3183208390E080E00895009741
:1005B00059F09093E9008093E8007093E70060930E
:1005C000E60090E080E0089582E090E00895379A98
:1005D00090E080E00895379890E080E00895339AA5
:1005E00090E080E00895339890E080E008958830AE
:1005F00038F497B1907E892B87B981E090E0089517
:1006000083E090E00895359A883040F5E82FF0E0D7
:10061000E35FFC4F90B70C942E0B15031A031D03D8
:1006200020032303260329032C039F7190BF90E02E
:1006300080E008959F739062F9CF9F759064F6CF24
:100640009F779066F3CF9F799068F0CF9F7B906AF9
:10065000EDCF9F7D906CEACF906EE8CF83E090E085
:100660000895359890E080E008951F920F920FB69C
:100670000F9211242F933F934F935F936F937F9328
:100680008F939F93AF93BF93EF93FF93E091E80015
:10069000F091E900309729F08091E6009091E70011
:1006A0000995FF91EF91BF91AF919F918F917F91AC
:1006B0006F915F914F913F912F910F900FBE0F90CF
:1006C0001F9018958FEF8ABB9CEF97BB84BB81BBB3
:1006D0001BBA18BA15BA12BA81E090E008958430B6
:1006E00080F4823051F0833051F0813021F06ABBC8
:1006F00081E090E0089567BBFBCF64BBF9CF61BB9D
:10070000F7CF83E090E00895843080F4823051F098
:10071000833051F0813021F06BBB81E090E008958F
:1007200068BBFBCF65BBF9CF62BBF7CF83E090E03E
:1007300008958430C0F4823071F0833081F08130CC
:1007400031F08BB380958BBB81E090E0089588B346
:10075000809588BBF9CF85B3809585BBF5CF82B3F3
:10076000809582BBF1CF83E090E00895FB01843057
:10077000B8F43097C1F0823059F0833059F08130AD
:1007800029F089B3808381E090E0089586B3FACFA1
:1007900083B3F8CF80B3808382B3809582BBF3CFDD
:1007A00083E090E0089582E090E00895843060F561
:1007B000683050F5423040F521E030E0062E01C0AF
:1007C000220F0A94EAF7209501C0440F6A95EAF7D0
:1007D000823081F0833099F0813039F08AB3282358
:1007E000242B2ABB90E080E0089587B32823242B94
:1007F00027BBF8CF84B32823242B24BBF3CF81B3AA
:100800002823242B21BBEECF83E090E00895843091
:1008100060F5683050F5423040F521E030E0062EBA
:1008200001C0220F0A94EAF7209501C0440F6A958F
:10083000EAF7823081F0833099F0813039F08BB360
:100840002823242B2BBB90E080E0089588B3282335
:10085000242B28BBF8CF85B32823242B25BBF3CF2B
:1008600082B32823242B22BBEECF83E090E00895AF
:10087000843000F56830F0F421E030E001C0220F50
:100880006A95EAF7823071F0833081F0813031F07F
:100890008BB328272BBB90E080E0089588B32827EE
:1008A00028BBF9CF85B3282725BBF5CF82B32827EE
:1008B00022BBF1CF83E090E00895FA018430E0F4A8
:1008C0006830D0F43097D9F0823091F0833091F0D5
:1008D000813061F089B390E002C0959587956A9563
:1008E000E2F78170808390E080E0089586B3F3CFD3
:1008F00083B3F1CF80B3EFCF83E090E0089582E03F
:1009000090E00895009709F460C0FC0180E09081B8
:10091000913081F49BB7813051F1823009F446C0A7
:1009200090649BBF9181913091F058F09230B1F07A
:100930009330D1F08F5F3296833049F790E080E0BA
:10094000089595B7926095BF95B79E7F05C095B7FE
:10095000916095BF95B7926095BFECCF95B79D7F9D
:1009600095BF95B79160F8CF95B79D7FECCF906814
:100970009BBF9181913071F038F0923089F09330C3
:10098000C9F695B7977F02C095B7986095BF95B7A0
:100990009B7FE2CF95B7946095BF95B79860DCCF09
:1009A00095B7977F95BF95B79460D6CF90629BBF60
:1009B0009181992331F0913009F0BCCF94B79064C4
:1009C00002C094B79F7B94BFB5CF82E090E00895BA
:1009D000833080F4813041F0823049F08BB78064FD
:1009E0008BBF90E080E008958BB78068F9CF8BB71C
:1009F0008062F6CF83E090E00895833080F4813008
:100A000041F0823049F08BB78F7B8BBF90E080E064
:100A100008958BB78F77F9CF8BB78F7DF6CF83E0B3
:100A200090E00895643048F4843038F4813009F45B
:100A300042C030F0823009F445C090E080E0089573
:100A400085B7623009F1633059F1613079F0826025
:100A500085BF85B78E7F85BF85B7886085BF85B721
:100A60008B7F85BF84B78F7B84BFE7CF816085BFD5
:100A700085B7826085BF85B7846085BF85B788608C
:100A800085BF84B78064F0CF8D7F85BF85B78160D7
:100A900085BF85B7877F85BF85B7846085BFCDCF8C
:100AA0008D7F85BF85B78E7F85BF85B7877F85BFE3
:100AB00085B78B7FF3CF623061F36330B1F3613080
:100AC00059F6D9CF662371F26130D9F2B6CF8330AF
:100AD00098F46115710569F090E0880F991FFC0189
:100AE000E051FF4F7183608386519F4FFC0151831A
:100AF000408390E080E0089583E090E008951F92A5
:100B00000F920FB60F9211242F933F934F935F9341
:100B10006F937F938F939F93AF93BF93EF93FF93C5
:100B20008091EA009091EB00009739F0E091F0009D
:100B3000F091F100309709F00995FF91EF91BF9185
:100B4000AF919F918F917F916F915F914F913F9165
:100B50002F910F900FBE0F901F9018951F920F921C
:100B60000FB60F9211242F933F934F935F936F9380
:100B70007F938F939F93AF93BF93EF93FF93E091F6
:100B8000F200F091F300309729F08091EC00909101
:100B9000ED000995FF91EF91BF91AF919F918F91DA
:100BA0007F916F915F914F913F912F910F900FBE69
:100BB0000F901F9018951F920F920FB60F9211244D
:100BC0002F933F934F935F936F937F938F939F9355
:100BD000AF93BF93EF93FF93E091F400F091F50092
:100BE000309729F08091EE009091EF000995FF91E8
:100BF000EF91BF91AF919F918F917F916F915F9195
:100C00004F913F912F910F900FBE0F901F9018950D
:100C10008FB780688FBF81E090E008958FB78F779E
:100C20008FBF81E090E0089540E064E083E00E949F
:100C3000D60340E065E083E00E94D60340E066E032
:100C400083E00E94D60340E067E083E00E94D60381
:100C500041E060E083E00E94D60341E061E083E090
:100C60000E94D60341E062E083E00E94D60341E0A7
:100C700063E083E00E94D60341E064E083E00E94E9
:100C8000070441E065E083E00E94070441E066E07C
:100C900083E00E94070441E067E083E00E940704CC
:100CA00041E060E083E00E94070441E061E083E00E
:100CB0000E94070441E062E083E00E94070441E0F3
:100CC00063E083E00E94070490E080E008951F93B2
:100CD000CF93DF93EC018FEF8093F9001092F8002F
:100CE0001FEFE091F800E43030F08091F900888344
:100CF00090E080E041C0F0E0EF54FF4F40E06081C1
:100D000083E00E9407041092F700E091F700E430BE
:100D100080F0E091F800F0E0EF54FF4F41E0608197
:100D200083E00E9407048091F8008F5F8093F800B1
:100D3000D8CFF0E0E355FF4F46EF50E0608183E00D
:100D40000E945D048091F600811124C08091F7001B
:100D500090E02091F600222399F02091F800880F6E
:100D6000991F880F991F83569F4F820F911DFC0179
:100D70008081888381E090E0DF91CF911F91089579
:100D800083559F4F46EF50E0FC01608183E00E9455
:100D90005D04DCCF1093F9008091F7008F5F8093A2
:100DA000F700B3CFCF93C82F40E060E080E00E940F
:100DB000070440E061E080E00E94070440E062E058
:100DC00080E00E9407044C2F417060E081E00E94A7
:100DD0000704C1FB442740F961E081E00E94070459
:100DE000C2FB442740F962E081E00E940704C3FB94
:100DF000442740F963E081E00E940704C4FB4427D4
:100E000040F964E081E00E9407044C2F429546952A
:100E1000477065E081E00E94070440E066E081E001
:100E20000E94070440E067E081E00E94070441E07F
:100E300062E080E00E9407048FE19EE40197F1F7F1
:100E400000C0000040E062E080E0CF910C94070415
:100E5000CF93C82F40E061E080E00E94070440E0AB
:100E600062E080E00E940704C4FB442740F964E08C
:100E700081E00E940704C5FB442740F965E081E05A
:100E80000E940704C6FB442740F966E081E00E9407
:100E900007044C2F441F4427441F67E081E00E9451
:100EA00007044C2F417060E081E00E940704C1FB01
:100EB000442740F961E081E00E940704C2FB442717
:100EC00040F962E081E00E940704C3FB442740F937
:100ED00063E081E00E94070441E062E080E00E945C
:100EE00007048FE19EE40197F1F700C0000040E0A5
:100EF00062E080E0CF910C94070441E060E080E084
:100F00000E94D60341E061E080E00E94D60341E008
:100F100062E080E00E94D60341E064E081E00E944C
:100F2000D60341E065E081E00E94D60341E066E03F
:100F300081E00E94D60341E067E081E00E94D60391
:100F40002FEB8AED90E0215080409040E1F700C007
:100F5000000041E060E081E00E94D60341E061E0F2
:100F600081E00E94D60341E062E081E00E94D60366
:100F700041E063E081E00E94D60388E30E94D2064C
:100F80008FEC97E00197F1F700C000008FE00E941E
:100F9000D2068FEC97E00197F1F700C0000081E0E6
:100FA0000E94D2068FE99FE00197F1F700C0000090
:100FB00086E00E94D20690E080E00895CF93C82F8B
:100FC00041E060E080E00E9407048C2F0E94280727
:100FD00090E080E0CF910895CF93C82F40E060E08B
:100FE00080E00E9407048C2F0E94280790E080E098
:100FF000CF91089581E00E94D20690E080E00895AC
:1010000082E00E94D20690E080E008950F931F9343
:10101000CF93DF93009759F1EC018C01085F1F4FCC
:101020004B81698188810E9407048A81811115C0E2
:101030008B81813011F440E003C0811115C041E083
:10104000698188810E9407042496C017D10741F75F
:10105000DF91CF911F910F910895813029F48B81F9
:10106000813069F3882339F383E090E0EDCF82E0AB
:1010700090E0EECFFC01892B59F0828140E088237B
:1010800019F0813041F441E0618180810C940704C2
:1010900082E090E0089583E090E00895FC01892BC0
:1010A00059F0828141E0882319F0813041F440E019
:1010B000618180810C94070482E090E0089583E0D0
:1010C00090E008950F931F93CF93DF93009709F457
:1010D00044C0EC018C010A5D1F4F41E069818881A9
:1010E0000E94D60341E06B818A810E94D60341E0D1
:1010F0006D818C810E94D60341E06F818E810E94B8
:10110000D60341E0698588850E94D60341E06B855E
:101110008A850E94D60341E06D858C850E94D603A6
:101120002F85222339F06E85662321F041E0822F3E
:101130000E94D6032989222339F06889662321F089
:1011400041E0822F0E94D6036396C017D10729F68B
:10115000DF91CF911F910F91089590E080E0F8CF3B
:101160000F931F93CF93DF936A3008F0D7C082307C
:1011700008F0D4C0E62F082F10E093E1899FE0012A
:101180001124C259DF4F8A89811138C0F0E0EB5435
:10119000FF4F1081412F4170698188810E940704AF
:1011A00011FB442740F96B818A810E94070412FBDE
:1011B000442740F96D818C810E94070413FB44276A
:1011C00040F96F818E810E94070414FB442740F987
:1011D000698588850E94070415FB442740F96B85C3
:1011E0008A850E94070416FB442740F96D858C858B
:1011F000DF91CF911F910F910C940704813009F07A
:1012000094C0F0E0EB54FF4FC08141E0C11140E0D9
:1012100083E1809FF001819FF00D1124E259FF4F7F
:10122000618180810E94070441E08C2F869509F03E
:1012300040E083E1809FF001819FF00D1124E2598D
:10124000FF4F638182810E94070441E08C2F8695C5
:10125000869509F040E083E1809FF001819FF00DC9
:101260001124E259FF4F658184810E94070441E007
:101270008C2F86958695869509F040E083E1809FC6
:10128000F001819FF00D1124E259FF4F67818681A3
:101290000E94070441E08C2F82958F7009F040E096
:1012A00083E1809FF001819FF00D1124E259FF4FEF
:1012B000618580850E94070441E08C2F8295869588
:1012C000877009F040E083E1809FF001819FF00D7D
:1012D0001124E259FF4F638582850E94070441E093
:1012E0008C2F829586958695837009F040E023E1E6
:1012F000209FC001219F900D11248C0102591F4F86
:10130000F801658584850E9407044C2F4095441F91
:101310004427441FF801608981896ACF83E090E007
:10132000DF91CF911F910F91089584E090E0F8CF65
:10133000823098F493E1899FF0011124E259FF4F24
:101340006685662351F0828941E0882319F0813057
:1013500039F440E087850C94070483E090E0089519
:1013600084E090E00895823098F493E1899FF00141
:101370001124E259FF4F6685662351F0828940E0CF
:10138000882319F0813039F441E087850C940704F3
:1013900083E090E0089584E090E00895823098F42E
:1013A00093E1899FF0011124E259FF4F6089662380
:1013B00051F0828941E0882319F0813039F440E00E
:1013C00081890C94070483E090E0089584E090E024
:1013D0000895823098F493E1899FF0011124E25935
:1013E000FF4F6089662351F0828940E0882319F01D
:1013F000813039F441E081890C94070483E090E066
:10140000089584E090E00895CF93DF93823008F050
:1014100066C093E1899FE0011124C259DF4F8A8998
:1014200081112AC040E0698188810E94070440E060
:101430006B818A810E94070440E06D818C810E944B
:10144000070440E06F818E810E94070440E06985B7
:1014500088850E94070440E06B858A850E94070406
:1014600040E06D858C850E940704688940E0611129
:1014700031C0DF91CF9108958130A1F541E06981BC
:1014800088810E94070441E06B818A810E940704E1
:1014900041E06D818C810E94070441E06F818E8163
:1014A0000E94070441E0698588850E94070441E0A5
:1014B0006B858A850E94070441E06D858C850E94BA
:1014C000070441E0688989890E94070468896623C6
:1014D00081F241E08989DF91CF910C94070483E088
:1014E00090E0C7CF84E090E0C4CF0F931F93CF93D9
:1014F000DF930097B9F0EC018C01075F1F4F40E0CC
:10150000698188810E94D6034A81698188810E940D
:1015100007042396C017D10791F7DF91CF911F9150
:101520000F91089582E090E0F8CFAB01009739F079
:10153000672B29F0FC01618180810C945D0482E0BD
:1015400090E00895CF93DF931F92CDB7DEB7198255
:101550000E940E066FEF82E00E946F0340E062E09F
:1015600080E00E94D60340E062E083E00E94D60360
:101570000E94980280E690E00E94820460E080E091
:101580000E94120580E00E94E8040E94E70282E0C7
:101590000E94F70282E00E940303BE016F5F7F4F4B
:1015A0008EE792E00E94D7020E94A1020E940806E4
:1015B000698182E00E948403FBCFDB018F939F93BC
:1015C0000E94340BBF91AF91A29F800D911DA39FEC
:1015D000900DB29F900D11240895A1E21A2EAA1B1E
:1015E000BB1BFD010DC0AA1FBB1FEE1FFF1FA217D3
:1015F000B307E407F50720F0A21BB30BE40BF50BD0
:10160000661F771F881F991F1A9469F76095709558
:10161000809590959B01AC01BD01CF010895052EE9
:1016200097FB1EF400940E94260B57FD07D00E94E2
:10163000ED0A07FC03D04EF40C94260B5095409510
:10164000309521953F4F4F4F5F4F0895909580956E
:10165000709561957F4F8F4F9F4F0895EE0FFF1F3D
:101660000590F491E02D09940E943F0BA59F900DE9
:10167000B49F900DA49F800D911D11240895A29FE9
:10168000B001B39FC001A39F700D811D1124911D56
:10169000B29F700D811D1124911D08955058BB27D4
:1016A000AA270E94660B0C94B70C0E94A90C38F074
:1016B0000E94B00C20F039F49F3F19F426F40C94EA
:1016C000A60C0EF4E095E7FB0C94A00CE92F0E9409
:1016D000C80C58F3BA17620773078407950720F000
:1016E00079F4A6F50C94EA0C0EF4E0950B2EBA2FC3
:1016F000A02D0B01B90190010C01CA01A001112418
:10170000FF27591B99F0593F50F4503E68F11A16C3
:10171000F040A22F232F342F4427585FF3CF469554
:1017200037952795A795F0405395C9F77EF41F1676
:10173000BA0B620B730B840BBAF09150A1F0FF0F40
:10174000BB1F661F771F881FC2F70EC0BA0F621F2C
:10175000731F841F48F4879577956795B795F7951C
:101760009E3F08F0B0CF9395880F08F09927EE0FB1
:101770009795879508950E94CF0B0C94B70C0E9403
:10178000B00C58F00E94A90C40F029F45F3F29F0FA
:101790000C94A00C51110C94EB0C0C94A60C0E9410
:1017A000C80C68F39923B1F3552391F3951B550B9E
:1017B000BB27AA2762177307840738F09F5F5F4F24
:1017C000220F331F441FAA1FA9F335D00E2E3AF063
:1017D000E0E832D091505040E695001CCAF72BD07B
:1017E000FE2F29D0660F771F881FBB1F26173707CC
:1017F0004807AB07B0E809F0BB0B802DBF01FF27FE
:1018000093585F4F3AF09E3F510578F00C94A00C2E
:101810000C94EB0C5F3FE4F3983ED4F386957795F8
:101820006795B795F7959F5FC9F7880F911D9695B6
:10183000879597F90895E1E0660F771F881FBB1F12
:10184000621773078407BA0720F0621B730B840BBF
:10185000BA0BEE1F88F7E09508950E94340C689447
:10186000B1110C94EB0C08950E94D00C88F09F5796
:1018700098F0B92F9927B751B0F0E1F0660F771FB4
:10188000881F991F1AF0BA95C9F714C0B13091F0AA
:101890000E94EA0CB1E008950C94EA0C672F782FAF
:1018A0008827B85F39F0B93FCCF38695779567956F
:1018B000B395D9F73EF490958095709561957F4FDB
:1018C0008F4F9F4F0895E89409C097FB3EF4909581
:1018D0008095709561957F4F8F4F9F4F9923A9F009
:1018E000F92F96E9BB279395F69587957795679598
:1018F000B795F111F8CFFAF4BB0F11F460FF1BC0DC
:101900006F5F7F4F8F4F9F4F16C0882311F096E96E
:1019100011C0772321F09EE8872F762F05C066231C
:1019200071F096E8862F70E060E02AF09A95660FD5
:10193000771F881FDAF7880F9695879597F908958E
:1019400097F99F6780E870E060E008959FEF80EC72
:10195000089500240A941616170618060906089515
:1019600000240A9412161306140605060895092E7B
:101970000394000C11F4882352F0BB0F40F4BF2BEA
:1019800011F460FF04C06F5F7F4F8F4F9F4F08952A
:1019900057FD9058440F551F59F05F3F71F0479520
:1019A000880F97FB991F61F09F3F79F08795089505
:1019B000121613061406551FF2CF4695F1DF08C024
:1019C000161617061806991FF1CF86957105610541
:1019D00008940895E894BB2766277727CB0197F9E9
:1019E00008950E94040D0C94B70C0E94A90C38F0C5
:1019F0000E94B00C20F0952311F00C94A00C0C94D4
:101A0000A60C11240C94EB0C0E94C80C70F3959F4B
:101A1000C1F3950F50E0551F629FF001729FBB27E5
:101A2000F00DB11D639FAA27F00DB11DAA1F649F81
:101A30006627B00DA11D661F829F2227B00DA11D34
:101A4000621F739FB00DA11D621F839FA00D611DBA
:101A5000221F749F3327A00D611D231F849F600DDB
:101A6000211D822F762F6A2F11249F5750409AF004
:101A7000F1F088234AF0EE0FFF1FBB1F661F771F90
:101A8000881F91505040A9F79E3F510580F00C945B
:101A9000A00C0C94EB0C5F3FE4F3983ED4F38695D6
:101AA00077956795B795F795E7959F5FC1F7FE2BFB
:101AB000880F911D9695879597F90895F894FFCF13
:101AC0000100010001000000010000010100000010
:101AD00000010002000300040005000600020700E8
:101AE00000010001010102010301040105010600DA
:101AF0000207010002000102010102020137383928
:101B00002F3435362A3132332D43303D2B04050630
:101B100007000102033F065B4F666D7D077F6F483C
:101B2000656C6C6F2043616C63756C61746F7200DF
:061B30004572726F7200A5
:00000001FF
