:100000000C942A000C94A4060C94D1060C94FE06C1
:100010000C9447000C9447000C9456090C948309E7
:100020000C948D090C9497090C94CD080C94FA0843
:100030000C9447000C9447000C9447000C94470024
:100040000C9403040C9447000C9447000C94470054
:100050000C94470011241FBECFE5D8E0DEBFCDBF12
:1000600010E0A0E6B0E0E0E2F4E202C005900D92FC
:10007000A23EB107D9F721E0A2EEB0E001C01D9287
:10008000AD32B207E1F70E941E0F0C940E120C94D1
:1000900000001092ED001092EE001092EF0010920E
:1000A000F0001092E9001092EA001092EB0010921A
:1000B000EC001092E8001092E4001092E50010921B
:1000C000E6001092E7001092E3001092E20008951B
:1000D000CF930E94680B0E94F8090E94460C0E9470
:1000E0004C0CC0E0EC2FF0E0ED53FF4F808181110C
:1000F0000FC02FEF89E698E1215080409040E1F752
:1001000000C000000E94460C81E090E0CF9108956D
:100110000E94C90BCF5FE6CF2F923F924F925F9222
:100120006F927F928F929F92AF92BF92CF92DF9207
:10013000EF92FF920F931F93CF93DF931F92CDB750
:10014000DEB7B12CA12C1091E3001111A2C0CE0199
:1001500001960E944B0A89818F3FC9F38D3309F0C4
:100160004DC10E94C90B5C018091E8008B3209F4FB
:10017000C9C008F0A3C08A3209F4F8C0C090E400F6
:10018000D090E500E090E600F090E700C701B601EE
:100190000E94C0100E94EF109B01AC01C701B60184
:1001A0000E94D50F20E030E04AE754E40E94A111FC
:1001B0000E94C0102B013C01C701B6010E94B9107A
:1001C0006B017C011FEC411451046104710429F19D
:1001D000812F0E94380CC301B2012AE030E040E0D8
:1001E00050E00E94600F022F932E842E352E80E364
:1001F000860F0E94C90B402E592C682C732C8FEF50
:10020000810F411451046104710409F0D9C00E94A6
:10021000380C8EE20E94C90B12509AE0492E512CE4
:10022000612C712CF7FEE4C0F094E094D094C0945B
:10023000C11CD11CE11CF11C8AE0282E312C412C60
:10024000512C812F0E94380CC701B601A2019101E7
:100250000E94820F722E832E942E052F80E3860F2C
:100260000E94C90BC72CD82CE92CF02E1150C114B8
:10027000D104E104F10429F7812F0E94380C8DE2AA
:100280000E94C90B0E944C0C0E94490081E080939F
:10029000E200C5010F90DF91CF911F910F91FF9068
:1002A000EF90DF90CF90BF90AF909F908F907F9016
:1002B0006F905F904F903F902F9008958D3209F48A
:1002C00040C08F3209F05ACFC090E900D090EA00C8
:1002D000E090EB00F090EC00C114D104E104F104D3
:1002E00009F057C00E94460C0E944C0CE12FF0E030
:1002F000EC52FF4F8081882309F440CF0E94C90B44
:100300001F5FF4CF6091ED007091EE008091EF00DF
:100310009091F0000091E9001091EA002091EB002B
:100320003091EC00600F711F821F931F0E94F1102B
:100330006093E4007093E5008093E6009093E700FB
:100340001DCF6091ED007091EE008091EF009091D3
:10035000F0000091E9001091EA002091EB0030914B
:10036000EC00601B710B820B930BE0CF2091ED0032
:100370003091EE004091EF005091F0006091E90063
:100380007091EA008091EB009091EC000E943C0F8C
:10039000CDCF6091ED007091EE008091EF009091D3
:1003A000F0000E94F1102B013C01C701B6010E9430
:1003B000F1109B01AC01C301B2010E944710B8CFFC
:1003C000182F06CF812F0E94380CC701B601A30158
:1003D00092010E94820F322E832E942E052F80E3ED
:1003E000860F0E94C90BC32CD82CE92CF02E11507B
:1003F000C114D104E104F10429F744CF90ED980F22
:100400009A3008F062C08091E200813021F40E94AD
:10041000460C1092E2008091E800811134C0809176
:10042000ED009091EE00A091EF00B091F000892BCB
:100430008A2B8B2B11F40E94460C2091ED003091F9
:10044000EE004091EF005091F000AAE0B0E00E9471
:10045000A70F29812053330B8901330F220B330B54
:10046000DC01CB01800F911FA21FB31F8093ED0011
:100470009093EE00A093EF00B093F00089810E946A
:10048000C90B5C0160CE2091E9003091EA004091F7
:10049000EB005091EC00AAE0B0E00E94A70F298188
:1004A0002053330B8901330F220B330BDC01CB01BB
:1004B000800F911FA21FB31F8093E9009093EA0061
:1004C000A093EB00B093EC00D9CF833431F40E94B9
:1004D000460C5C010E94490036CE0E94C90B5C01AB
:1004E0008091E200813021F40E94460C1092E200DB
:1004F0001092E30089818093E80025CE8091F80076
:100500008F5F8093F800813021F490E080E00C94BC
:100510007908823041F48BEF90E00E947E0860E021
:1005200081E00C9444068330B1F489EF90E00E949E
:100530007E088091F9009091FA002091FB003091A3
:10054000FC00821B930B9093FA008093F9001092A9
:10055000F8000C944C0C08958091F7008F5F809305
:10056000F700813021F485EF90E00C94C0088230D0
:10057000A9F483EF90E00E94C0088091F30090916D
:10058000F4002091F5003091F600821B930B9093BC
:10059000FC008093FB0081E00C9494088330A1F46C
:1005A00081EF90E00E94C0088091F1009091F200EC
:1005B0002091F3003091F400821B930B9093FA008A
:1005C0008093F9000C94AA08089587B18F73806214
:1005D00087B986B1876086B990E080E008959091F0
:1005E000FD00911127C091E09093FD008830F8F450
:1005F00097B1907E892B87B981E090E026B1206584
:1006000026B924B1229526952695237030E0FB016A
:100610003183208345B1F4E04F9FA0011124242BA6
:10062000352BFB01318320831092FD00089583E078
:1006300090E0E4CF85E090E008959091FD00911165
:100640001EC08830F8F441155105F9F091E09093FF
:10065000FD007093040160930301509308014093DF
:100660000701309306012093050197B1907E892BF5
:1006700087B986B1886486B981E090E0089585E005
:1006800090E0089583E090E0089582E090E008957E
:10069000FC018091FD00811127C081E08093FD0065
:1006A0008093010182E090E04115510511F090E046
:1006B00080E070817830D8F45093080140930701AE
:1006C000309306012093050160930001F093FF0031
:1006D000E093FE0027B1207E27B93081232B27B974
:1006E00026B1286426B9089590E080E0089583E05B
:1006F00090E00895369A90E080E0089586B1982FB2
:1007000092959F7009F4FFCF806186B990E080E0F8
:10071000089525B1FC01208390E080E0089524B184
:10072000229526952695237030E0FC0131832083A5
:1007300045B1F4E04F9FA0011124242B352BFC017F
:100740003183208390E080E00895009759F09093E2
:10075000080180930701709306016093050190E002
:1007600080E0089582E090E00895379A90E080E07C
:100770000895379890E080E00895339A90E080E003
:100780000895339890E080E00895883038F497B168
:10079000907E892B87B981E090E0089583E090E016
:1007A0000895359A883040F5E82FF0E0E552FC4F87
:1007B00090B70C94A10FE303E803EB03EE03F103FE
:1007C000F403F703FA039F7190BF90E080E008956F
:1007D0009F739062F9CF9F759064F6CF9F77906674
:1007E000F3CF9F799068F0CF9F7B906AEDCF9F7D8C
:1007F000906CEACF906EE8CF83E090E00895359852
:1008000090E080E008951F920F920FB60F9211248E
:100810002F933F934F935F936F937F938F939F9308
:10082000AF93BF93EF93FF9380910101813009F063
:1008300057C080910201909100018917E0F5209145
:10084000FE003091FF0093E0F901899FE00DF11D5A
:1008500011240180F281E02D45B140838F5F8093A8
:100860000201899F200D311D1124F90180818830FA
:1008700088F487B1807E87B920910201E091FE0063
:10088000F091FF00299FE00DF11D11249081892B2B
:1008900087B9369AFF91EF91BF91AF919F918F9158
:1008A0007F916F915F914F913F912F910F900FBE6C
:1008B0000F901F9018958913EDCFE0910701F091EB
:1008C0000801309739F3809105019091060109954F
:1008D000349A1092FD001092020110920101DACFB9
:1008E000E0910701F09108013097A1F285B1A09144
:1008F0000301B09104018C93809105019091060150
:100900000995349A1092FD00C5CF8FEF8ABB9CEFFA
:1009100097BB84BB81BB1BBA18BA15BA12BA81E067
:1009200090E00895843080F4823051F0833051F0AB
:10093000813021F06ABB81E090E0089567BBFBCF76
:1009400064BBF9CF61BBF7CF83E090E008958430BA
:1009500080F4823051F0833051F0813021F06BBB54
:1009600081E090E0089568BBFBCF65BBF9CF62BB27
:10097000F7CF83E090E008958430C0F4823071F0C6
:10098000833081F0813031F08BB380958BBB81E077
:1009900090E0089588B3809588BBF9CF85B38095A2
:1009A00085BBF5CF82B3809582BBF1CF83E090E029
:1009B0000895FB018430B8F43097C1F0823059F0CB
:1009C000833059F0813029F089B3808381E090E051
:1009D000089586B3FACF83B3F8CF80B3808382B310
:1009E000809582BBF3CF83E090E0089582E090E0B1
:1009F0000895843060F5683050F5423040F521E0CC
:100A000030E0062E01C0220F0A94EAF7209501C0BB
:100A1000440F6A95EAF7823081F0833099F0813093
:100A200039F08AB32823242B2ABB90E080E0089574
:100A300087B32823242B27BBF8CF84B32823242B68
:100A400024BBF3CF81B32823242B21BBEECF83E03B
:100A500090E00895843060F5683050F5423040F5FC
:100A600021E030E0062E01C0220F0A94EAF720951B
:100A700001C0440F6A95EAF7823081F0833099F023
:100A8000813039F08BB32823242B2BBB90E080E0FE
:100A9000089588B32823242B28BBF8CF85B32823B7
:100AA000242B25BBF3CF82B32823242B22BBEECFEC
:100AB00083E090E00895843000F56830F0F421E0A0
:100AC00030E001C0220F6A95EAF7823071F083307E
:100AD00081F0813031F08BB328272BBB90E080E090
:100AE000089588B3282728BBF9CF85B3282725BBCD
:100AF000F5CF82B3282722BBF1CF83E090E00895A1
:100B0000FA018430E0F46830D0F43097D9F08230C4
:100B100091F0833091F0813061F089B390E002C0B0
:100B2000959587956A95E2F78170808390E080E0E3
:100B3000089586B3F3CF83B3F1CF80B3EFCF83E0D3
:100B400090E0089582E090E00895009709F46FC066
:100B5000FC0180E090819130B1F4813089F19BB744
:100B6000823009F455C090649BBF95B79D7F95BFB7
:100B700095B79E7F95BF9181913099F058F0923052
:100B800099F09330B9F08F5F3296833019F790E087
:100B900080E0089595B79E7F95BF95B7926095BF09
:100BA000F2CF95B79160F8CF95B7916095BF95B7A3
:100BB0009D7FF5CF95B79D7F95BF95B79E7FEFCF72
:100BC00095B79D7F95BF95B79E7F95BF91819130D9
:100BD00079F040F0923099F09330B9F09BB790687B
:100BE0009BBFD1CF95B7986095BF95B79B7F05C048
:100BF00095B7946095BF95B7986095BFEFCF95B7BF
:100C0000977F95BF95B79460F8CF95B7977FECCF56
:100C100090629BBF9181992331F0913009F0B3CF5D
:100C200094B7906402C094B79F7B94BFACCF82E02E
:100C300090E00895833080F4813041F0823049F0B3
:100C40008BB780648BBF90E080E008958BB780689D
:100C5000F9CF8BB78062F6CF83E090E008958330C0
:100C600080F4813041F0823049F08BB78F7B8BBFAD
:100C700090E080E008958BB78F77F9CF8BB78F7DA9
:100C8000F6CF83E090E00895643038F4843028F49F
:100C90008130F9F028F08230A1F190E080E00895F1
:100CA00085B7623079F0633091F0613029F082606D
:100CB00085BF85B78E7F04C0816085BF85B78260A0
:100CC00085BFEBCF8D7F85BF85B78160F9CF8D7FE5
:100CD000EFCF85B7623071F0633089F0613029F071
:100CE000886085BF85B78B7FEBCF846085BF85B774
:100CF0008860E6CF877F85BF85B78460E1CF877F37
:100D0000F0CF662329F0613041F684B7806402C0D9
:100D100084B78F7B84BFC1CF833098F46115710590
:100D200069F090E0880F991FFC01E15FFE4F71832D
:100D30006083875F9E4FFC015183408390E080E099
:100D4000089583E090E008951F920F920FB60F92DE
:100D500011242F933F934F935F936F937F938F93C0
:100D60009F93AF93BF93EF93FF93E0910F01F091A7
:100D70001001309729F08091090190910A0109959D
:100D8000FF91EF91BF91AF919F918F917F916F9163
:100D90005F914F913F912F910F900FBE0F901F9039
:100DA00018951F920F920FB60F9211242F933F9315
:100DB0004F935F936F937F938F939F93AF93BF9363
:100DC000EF93FF93E0911101F0911201309729F018
:100DD00080910B0190910C010995FF91EF91BF91CA
:100DE000AF919F918F917F916F915F914F913F91C3
:100DF0002F910F900FBE0F901F9018951F920F927A
:100E00000FB60F9211242F933F934F935F936F93DD
:100E10007F938F939F93AF93BF93EF93FF93E09153
:100E20001301F0911401309729F080910D019091F8
:100E30000E010995FF91EF91BF91AF919F918F9115
:100E40007F916F915F914F913F912F910F900FBEC6
:100E50000F901F9018958FB780688FBF81E090E04A
:100E600008958FB78F778FBF81E090E0089583B7A3
:100E70008F7E83BF83B78F7D83BF83B7806483BF3B
:100E800083B7886083BF83B7806283BF83B78F7E59
:100E900083BF89B78D7F89BF89B78E7F89BF83B7AD
:100EA0008E7F83BF83B7826083BF83B78B7F83BF0F
:100EB00090E080E008958FB58E7F8FBD8FB58D7FD8
:100EC0008FBD8EB5877F8EBD8EB58F7E8EBD8FB563
:100ED0008F7B8FBD8FB58F778FBD8EB58E7F8EBD8B
:100EE0008EB582608EBD8EB58B7F8EBD90E080E02A
:100EF00008958F929F92AF92BF92CF92DF92EF921E
:100F0000FF9229B72E7F29BF0E94EF102DEB37E308
:100F100046E859E30E9447104B015C010E94C01053
:100F20006B017C010E94EF109B01AC01C501B40173
:100F30000E94D50F4B015C0120E030E0A9010E9426
:100F400042108823A1F1A501940160E070E080E8DF
:100F50009FE30E94D50F20E030E040E853E40E9478
:100F6000A1110E94C01062BF8FEFC816D806E80614
:100F7000F80659F490E080E0FF90EF90DF90CF907A
:100F8000BF90AF909F908F90089508B600FEFDCF60
:100F900088B7816088BF81E0C81AD108E108F108EC
:100FA000E3CF08B600FEFDCF88B7816088BFC114CB
:100FB000D104E104F104A9F7DDCF8F929F92AF92A3
:100FC000BF92CF92DF92EF92FF92CF93DF93C2E076
:100FD000D0E04115510551F050932801409327016D
:100FE0003093240120932301C1E0D0E00E94EF1050
:100FF0002DEB37E346E859E30E9447104B015C01B3
:101000000E94C0106B017C010E94EF109B01AC019B
:10101000C501B4010E94D50F4B015C0120E030E016
:10102000A9010E9442108823C9F1A501940160E042
:1010300070E080E89FE30E94D50F20E030E040E8B8
:1010400053E40E94A1110E94C0108FEFC81AD80A61
:10105000E80AF80AC0921D01D0921E01E0921F0119
:10106000F0922001862F90E0B0E0A0E0809319017B
:1010700090931A01A0931B01B0931C0162BF89B722
:10108000816089BFCE01DF91CF91FF90EF90DF901B
:10109000CF90BF90AF909F908F900895C0921D0108
:1010A000D0921E01E0921F01F0922001E8CF00973C
:1010B00059F0909328018093270170932401609345
:1010C000230181E090E0089582E090E00895892B6B
:1010D00019F081E090E0089582E090E00895982F63
:1010E00080E064E670E00E944C0F6CBF81E090E00D
:1010F00008959DBD8CBD81E090E00895009741F07A
:101100002CB53DB5FC013183208381E090E008954A
:1011100082E090E008958EB580648EBD89B78062CC
:1011200089BF90E080E00895823058F4811106C0B4
:101130008EB580648EBD90E080E008958EB58F7B83
:10114000F9CF83E090E0089589B7806289BF81E09C
:1011500090E0089589B78F7D89BF81E090E0089580
:10116000009759F0909326018093250170932201F6
:101170006093210181E090E0089582E090E008957D
:10118000009741F026B537B5FC013183208381E01B
:1011900090E0089582E090E008951F920F920FB6BC
:1011A0000F9211242F933F934F935F936F937F93ED
:1011B0008F939F93AF93BF93EF93FF93E09127019A
:1011C000F0912801309729F080912301909124011A
:1011D0000995FF91EF91BF91AF919F918F917F9171
:1011E0006F915F914F913F912F910F900FBE0F9094
:1011F0001F9018951F920F920FB60F9211242F93E4
:101200003F934F935F936F937F938F939F93AF938E
:10121000BF93EF93FF938091270190912801892B31
:10122000A1F18091150190911601A0911701B09143
:1012300018010196A11DB11D80931501909316010F
:10124000A0931701B093180140911D0150911E0108
:1012500060911F017091200184179507A607B707B9
:10126000A1F48091190182BFE0912701F09128013A
:1012700080912301909124010995109215011092FB
:1012800016011092170110921801FF91EF91BF9172
:10129000AF919F918F917F916F915F914F913F910E
:1012A0002F910F900FBE0F901F9018951F920F92C5
:1012B0000FB60F9211242F933F934F935F936F9329
:1012C0007F938F939F93AF93BF93EF93FF93E0919F
:1012D0002501F0912601309729F08091210190910C
:1012E00022010995FF91EF91BF91AF919F918F914D
:1012F0007F916F915F914F913F912F910F900FBE12
:101300000F901F9018951F920F920FB60F921124F5
:101310000F900FBE0F901F9018951F920F920FB64F
:101320000F9211240F900FBE0F901F9018951F92CF
:101330000F920FB60F9211240F900FBE0F901F90B7
:10134000189559988AB188618AB98AB1806E8AB92C
:10135000529886E880BD83E389B980B580BD90E06E
:1013600080E008955D9BFECF8CB990E080E0089509
:10137000009741F05F9BFECF2CB1FC01208381E000
:1013800090E0089582E090E00895FC019191911120
:1013900003C090E080E008955D9BFECF9CB9F6CF3E
:1013A000AC0190E05F9BFECF2CB1FA01E90FF11D7B
:1013B0002D3029F02A3019F020839F5FF3CF10825F
:1013C00090E080E0089581B5886081BD81E090E083
:1013D000089588E181BD11BC81E090E0089591B548
:1013E000987F91BD91B5892B81BD81E090E00895F2
:1013F00040E064E083E00E94F90440E065E083E0BF
:101400000E94F90440E066E083E00E94F90440E0B5
:1014100067E083E00E94F90441E060E083E00E941D
:10142000F90441E061E083E00E94F90441E062E0F8
:1014300083E00E94F90441E063E083E00E94F90444
:1014400041E064E083E00E942A0541E065E083E03A
:101450000E942A0541E066E083E00E942A0541E0FF
:1014600067E083E00E942A0541E060E083E00E949B
:101470002A0541E061E083E00E942A0541E062E044
:1014800083E00E942A0541E063E083E00E942A0590
:1014900090E080E008951F93CF93DF93EC018FEFEE
:1014A00080932C0110922B011FEFE0912B01E4306F
:1014B00030F080912C01888390E080E041C0F0E022
:1014C000EB54FF4F40E0608183E00E942A051092B8
:1014D0002A01E0912A01E43080F0E0912B01F0E054
:1014E000EB54FF4F41E0608183E00E942A05809128
:1014F0002B018F5F80932B01D8CFF0E0EF54FF4F8B
:1015000049E251E0608183E00E94800580912901D9
:10151000811124C080912A0190E020912901222389
:1015200099F020912B01880F991F880F991F8F55D3
:101530009F4F820F911DFC018081888381E090E0A4
:10154000DF91CF911F9108958F549F4F49E251E051
:10155000FC01608183E00E948005DCCF10932C01A8
:1015600080912A018F5F80932A01B3CFCF93C82F38
:1015700040E067E080E00E942A0540E066E080E00D
:101580000E942A0540E065E080E00E942A054C2F79
:10159000417060E082E00E942A05C1FB442740F9C7
:1015A00061E082E00E942A05C2FB442740F962E024
:1015B00082E00E942A05C3FB442740F963E082E0F1
:1015C0000E942A05C4FB442740F964E082E00E949F
:1015D0002A054C2F42954695477065E082E00E94AF
:1015E0002A0540E066E082E00E942A0540E067E0CC
:1015F00082E00E942A0541E065E080E00E942A0521
:101600008FE19EE40197F1F700C0000040E065E043
:1016100080E0CF910C942A05CF93C82F40E066E07C
:1016200080E00E942A0540E065E080E00E942A05F3
:10163000C4FB442740F964E082E00E942A05C5FB10
:10164000442740F965E082E00E942A05C6FB442752
:1016500040F966E082E00E942A054C2F441F44278F
:10166000441F67E082E00E942A054C2F417060E031
:1016700082E00E942A05C1FB442740F961E082E034
:101680000E942A05C2FB442740F962E082E00E94E2
:101690002A05C3FB442740F963E082E00E942A0543
:1016A00041E065E080E00E942A058FE19EE4019719
:1016B000F1F700C0000040E065E080E00E942A05EC
:1016C0008FE19EE40197F1F700C00000CF910895EB
:1016D00041E067E080E00E94F90441E066E080E0DC
:1016E0000E94F90441E065E080E00E94F90441E0D5
:1016F00064E082E00E94F90441E065E082E00E943B
:10170000F90441E066E082E00E94F90441E067E00C
:1017100082E00E94F9042FEB8AED90E02150804096
:101720009040E1F700C0000041E060E082E00E94EC
:10173000F90441E061E082E00E94F90441E062E0E6
:1017400082E00E94F90441E063E082E00E94F90433
:1017500088E30E94B60A8FEC97E00197F1F700C08A
:1017600000008FE00E94B60A8FEC97E00197F1F736
:1017700000C0000081E00E94B60A8FE99FE0019757
:10178000F1F700C0000086E00E94B60A90E080E019
:101790000895CF93C82F41E067E080E00E942A05BA
:1017A0008C2F0E940C0B90E080E0CF9108954F9217
:1017B0005F926F927F928F929F92AF92BF92DF92D1
:1017C000EF92FF920F931F93CF93DF93CDB7DEB7C6
:1017D0002A970FB6F894DEBF0FBECDBF4B015C0158
:1017E00041E067E080E00E942A05D12CCE010196FD
:1017F0007C018AE0482E512C612C712C0D2D10E0BB
:101800000E0D1F1D81149104A104B104F9F40150BF
:101810001109C8018E199F09019621F590E080E019
:101820002A960FB6F894DEBF0FBECDBFDF91CF91E1
:101830001F910F91FF90EF90DF90BF90AF909F901E
:101840008F907F906F905F904F900895C501B40185
:10185000A30192010E94820FF8016083D394490191
:101860005A01CCCFF8018081805D0E940C0BCFCF54
:10187000CF93C82F40E067E080E00E942A058C2FBC
:101880000E940C0B90E080E0CF91089581E00E94CF
:10189000B60A90E080E0089582E00E94B60A90E0E7
:1018A00080E008950F931F93CF93DF93009759F132
:1018B000EC018C01045F1F4F4B81698188810E947C
:1018C0002A058A81811115C08B81813011F440E095
:1018D00003C0811115C041E0698188810E942A05F9
:1018E0002496C017D10741F7DF91CF911F910F9137
:1018F0000895813029F48B81813069F3882339F38D
:1019000083E090E0EDCF82E090E0EECFFC01892B08
:1019100059F0828140E0882319F0813041F441E0A0
:10192000618180810C942A0582E090E0089583E033
:1019300090E00895FC01892B59F0828141E08823D1
:1019400019F0813041F440E0618180810C942A05D6
:1019500082E090E0089583E090E008950E94B5034E
:101960000C94E5020F931F93CF93DF9300D0CDB774
:10197000DEB71A8219820097F1F08C01BE016F5F09
:101980007F4F80E00E94EF0269817A8144EF51E04D
:10199000649F9001659F300D749F300D1124232F9B
:1019A00026952695F80120830F900F90DF91CF9117
:1019B0001F910F91089582E090E0F6CF0F931F934F
:1019C000CF93DF93009709F444C0EC018C010A5DCA
:1019D0001F4F41E0698188810E94F90441E06B81D9
:1019E0008A810E94F90441E06D818C810E94F90492
:1019F00041E06F818E810E94F90441E0698588850C
:101A00000E94F90441E06B858A850E94F90441E057
:101A10006D858C850E94F9042F85222339F06E850F
:101A2000662321F041E0822F0E94F90429892223B4
:101A300039F06889662321F041E0822F0E94F90481
:101A40006396C017D10729F6DF91CF911F910F91AF
:101A5000089590E080E0F8CF0F931F93CF93DF932A
:101A60006A3008F0D7C0823008F0D4C0E62F082FC3
:101A700010E093E1899FE0011124CE58DF4F8A895D
:101A8000811138C0F0E0E754FF4F1081412F4170C1
:101A9000698188810E942A0511FB442740F96B81E6
:101AA0008A810E942A0512FB442740F96D818C81AE
:101AB0000E942A0513FB442740F96F818E810E9402
:101AC0002A0514FB442740F9698588850E942A0568
:101AD00015FB442740F96B858A850E942A0516FB71
:101AE000442740F96D858C85DF91CF911F910F912F
:101AF0000C942A05813009F094C0F0E0E754FF4FC0
:101B0000C08141E0C11140E083E1809FF001819FED
:101B1000F00D1124EE58FF4F618180810E942A054B
:101B200041E08C2F869509F040E083E1809FF00131
:101B3000819FF00D1124EE58FF4F638182810E9436
:101B40002A0541E08C2F8695869509F040E083E1D7
:101B5000809FF001819FF00D1124EE58FF4F6581A9
:101B600084810E942A0541E08C2F86958695869572
:101B700009F040E083E1809FF001819FF00D112486
:101B8000EE58FF4F678186810E942A0541E08C2F25
:101B900082958F7009F040E083E1809FF001819F82
:101BA000F00D1124EE58FF4F618580850E942A05B3
:101BB00041E08C2F82958695877009F040E083E1A3
:101BC000809FF001819FF00D1124EE58FF4F638537
:101BD00082850E942A0541E08C2F82958695869504
:101BE000837009F040E023E1209FC001219F900D08
:101BF00011248C010E581F4FF801658584850E94C1
:101C00002A054C2F4095441F4427441FF801608942
:101C100081896ACF83E090E0DF91CF911F910F918E
:101C2000089584E090E0F8CF823098F493E1899FA2
:101C3000F0011124EE58FF4F6685662351F082892A
:101C400041E0882319F0813039F440E087850C9415
:101C50002A0583E090E0089584E090E008958230C2
:101C600098F493E1899FF0011124EE58FF4F6685A7
:101C7000662351F0828940E0882319F0813039F4DD
:101C800041E087850C942A0583E090E0089584E084
:101C900090E00895823098F493E1899FF001112437
:101CA000EE58FF4F6089662351F0828941E0882316
:101CB00019F0813039F440E081890C942A0583E0E1
:101CC00090E0089584E090E00895823098F493E1E4
:101CD000899FF0011124EE58FF4F6089662351F06F
:101CE000828940E0882319F0813039F441E081890C
:101CF0000C942A0583E090E0089584E090E0089534
:101D0000CF93DF93823008F066C093E1899FE001B2
:101D10001124CE58DF4F8A8981112AC040E06981A1
:101D200088810E942A0540E06B818A810E942A05F1
:101D300040E06D818C810E942A0540E06F818E8198
:101D40000E942A0540E0698588850E942A0540E0B6
:101D50006B858A850E942A0540E06D858C850E94EE
:101D60002A05688940E0611131C0DF91CF91089563
:101D70008130A1F541E0698188810E942A0541E016
:101D80006B818A810E942A0541E06D818C810E94CD
:101D90002A0541E06F818E810E942A0541E0698514
:101DA00088850E942A0541E06B858A850E942A0564
:101DB00041E06D858C850E942A0541E0688989890A
:101DC0000E942A056889662381F241E08989DF91B2
:101DD000CF910C942A0583E090E0C7CF84E090E097
:101DE000C4CF0F931F93CF93DF930097B9F0EC010B
:101DF0008C01075F1F4F40E0698188810E94F904D0
:101E00004A81698188810E942A052396C017D107DB
:101E100091F7DF91CF911F910F91089582E090E0AB
:101E2000F8CFAB01009739F0672B29F0FC016181F5
:101E300080810C94800582E090E00895CF93DF9339
:101E40001F92CDB7DEB740E060E083E00E942A0534
:101E500041E061E083E00E942A050E94A1098AED29
:101E600090E00E94C5091982CE0101960E94B8092E
:101E700089810E94B209F8CFDB018F939F930E9462
:101E8000A70FBF91AF91A29F800D911DA39F900DB1
:101E9000B29F900D1124089597FB072E16F400941D
:101EA00007D077FD09D00E94B20F07FC05D03EF4A1
:101EB000909581959F4F0895709561957F4F0895F6
:101EC000A1E21A2EAA1BBB1BFD010DC0AA1FBB1F3E
:101ED000EE1FFF1FA217B307E407F50720F0A21BB0
:101EE000B30BE40BF50B661F771F881F991F1A941D
:101EF00069F760957095809590959B01AC01BD0147
:101F0000CF010895052E97FB1EF400940E94990FAF
:101F100057FD07D00E94600F07FC03D04EF40C94CD
:101F2000990F50954095309521953F4F4F4F5F4FFA
:101F3000089590958095709561957F4F8F4F9F4F35
:101F40000895EE0FFF1F0590F491E02D09940E9473
:101F5000C60FA59F900DB49F900DA49F800D911D5D
:101F600011240895AA1BBB1B51E107C0AA1FBB1F68
:101F7000A617B70710F0A61BB70B881F991F5A9515
:101F8000A9F780959095BC01CD010895A29FB0015D
:101F9000B39FC001A39F700D811D1124911DB29F9D
:101FA000700D811D1124911D08955058BB27AA273B
:101FB0000E94ED0F0C9467110E94591138F00E9495
:101FC000601120F039F49F3F19F426F40C94561157
:101FD0000EF4E095E7FB0C945011E92F0E94781164
:101FE00058F3BA17620773078407950720F079F44E
:101FF000A6F50C949A110EF4E0950B2EBA2FA02D95
:102000000B01B90190010C01CA01A0011124FF27A5
:10201000591B99F0593F50F4503E68F11A16F040A0
:10202000A22F232F342F4427585FF3CF469537959F
:102030002795A795F0405395C9F77EF41F16BA0B64
:10204000620B730B840BBAF09150A1F0FF0FBB1F12
:10205000661F771F881FC2F70EC0BA0F621F731F5B
:10206000841F48F4879577956795B795F7959E3FB8
:1020700008F0B0CF9395880F08F09927EE0F979549
:10208000879508950E942C1108F481E008950E941C
:102090005B100C9467110E94601158F00E94591156
:1020A00040F029F45F3F29F00C94501151110C9429
:1020B0009B110C9456110E94781168F39923B1F387
:1020C000552391F3951B550BBB27AA27621773075E
:1020D000840738F09F5F5F4F220F331F441FAA1FF2
:1020E000A9F335D00E2E3AF0E0E832D091505040AE
:1020F000E695001CCAF72BD0FE2F29D0660F771F5C
:10210000881FBB1F261737074807AB07B0E809F041
:10211000BB0B802DBF01FF2793585F4F3AF09E3FC6
:10212000510578F00C9450110C949B115F3FE4F32F
:10213000983ED4F3869577956795B795F7959F5F09
:10214000C9F7880F911D9695879597F90895E1E055
:10215000660F771F881FBB1F621773078407BA07B4
:1021600020F0621B730B840BBA0BEE1F88F7E0950F
:1021700008950E94C0106894B1110C949B110895A9
:102180000E94801188F09F5798F0B92F9927B75176
:10219000B0F0E1F0660F771F881F991F1AF0BA950B
:1021A000C9F714C0B13091F00E949A11B1E00895BE
:1021B0000C949A11672F782F8827B85F39F0B93FB0
:1021C000CCF3869577956795B395D9F73EF49095BE
:1021D0008095709561957F4F8F4F9F4F0895E8943C
:1021E00009C097FB3EF490958095709561957F4F5F
:1021F0008F4F9F4F9923A9F0F92F96E9BB2793950D
:10220000F695879577956795B795F111F8CFFAF41C
:10221000BB0F11F460FF1BC06F5F7F4F8F4F9F4F4D
:1022200016C0882311F096E911C0772321F09EE8AB
:10223000872F762F05C0662371F096E8862F70E011
:1022400060E02AF09A95660F771F881FDAF7880FEB
:102250009695879597F90895990F0008550FAA0B41
:10226000E0E8FEEF16161706E807F907C0F01216A9
:102270001306E407F50798F0621B730B840B950BAC
:1022800039F40A2661F0232B242B252B21F4089501
:102290000A2609F4A140A6958FEF811D811D08959E
:1022A00097F99F6780E870E060E008959FEF80EC09
:1022B000089500240A9416161706180609060895AC
:1022C00000240A9412161306140605060895092E12
:1022D0000394000C11F4882352F0BB0F40F4BF2B81
:1022E00011F460FF04C06F5F7F4F8F4F9F4F0895C1
:1022F00057FD9058440F551F59F05F3F71F04795B7
:10230000880F97FB991F61F09F3F79F0879508959B
:10231000121613061406551FF2CF4695F1DF08C0BA
:10232000161617061806991FF1CF869571056105D7
:1023300008940895E894BB2766277727CB0197F97F
:1023400008950E94B4110C9467110E94591138F03D
:102350000E94601120F0952311F00C9450110C9400
:10236000561111240C949B110E94781170F3959FC3
:10237000C1F3950F50E0551F629FF001729FBB277C
:10238000F00DB11D639FAA27F00DB11DAA1F649F18
:102390006627B00DA11D661F829F2227B00DA11DCB
:1023A000621F739FB00DA11D621F839FA00D611D51
:1023B000221F749F3327A00D611D231F849F600D72
:1023C000211D822F762F6A2F11249F5750409AF09B
:1023D000F1F088234AF0EE0FFF1FBB1F661F771F27
:1023E000881F91505040A9F79E3F510580F00C94F2
:1023F00050110C949B115F3FE4F3983ED4F3869503
:1024000077956795B795F795E7959F5FC1F7FE2B91
:10241000880F911D9695879597F90895F894FFCFA9
:1024200001000001000000000100000101000002A5
:10243000010001000101010201030104010501067F
:10244000040307010001000101010201030104016D
:10245000050106010307010002000002010002025B
:10246000003738392F3435362A3132332D43303D59
:102470002B04050607000102033F065B4F666D7DD6
:10248000077F6F48656C6C6F2043616C63756C618E
:10249000746F72004572726F720057656C636F6D76
:0224A0006500D5
:00000001FF
